{
  "address": "0xb65346A8ade3dF4b563459d98af21891EEff7859",
  "abi": [
    {
      "inputs": [
        {
          "internalType": "address",
          "name": "_lightClient",
          "type": "address"
        }
      ],
      "stateMutability": "nonpayable",
      "type": "constructor"
    },
    {
      "anonymous": false,
      "inputs": [
        {
          "indexed": false,
          "internalType": "uint256",
          "name": "blockNum",
          "type": "uint256"
        },
        {
          "indexed": false,
          "internalType": "bytes32",
          "name": "blockHash",
          "type": "bytes32"
        }
      ],
      "name": "AnchorBlockUpdated",
      "type": "event"
    },
    {
      "anonymous": false,
      "inputs": [
        {
          "indexed": true,
          "internalType": "address",
          "name": "previousOwner",
          "type": "address"
        },
        {
          "indexed": true,
          "internalType": "address",
          "name": "newOwner",
          "type": "address"
        }
      ],
      "name": "OwnershipTransferred",
      "type": "event"
    },
    {
      "inputs": [
        {
          "internalType": "uint256",
          "name": "",
          "type": "uint256"
        }
      ],
      "name": "blocks",
      "outputs": [
        {
          "internalType": "bytes32",
          "name": "",
          "type": "bytes32"
        }
      ],
      "stateMutability": "view",
      "type": "function"
    },
    {
      "inputs": [],
      "name": "latestBlockNum",
      "outputs": [
        {
          "internalType": "uint256",
          "name": "",
          "type": "uint256"
        }
      ],
      "stateMutability": "view",
      "type": "function"
    },
    {
      "inputs": [],
      "name": "lightClient",
      "outputs": [
        {
          "internalType": "contract IEthereumLightClient",
          "name": "",
          "type": "address"
        }
      ],
      "stateMutability": "view",
      "type": "function"
    },
    {
      "inputs": [],
      "name": "owner",
      "outputs": [
        {
          "internalType": "address",
          "name": "",
          "type": "address"
        }
      ],
      "stateMutability": "view",
      "type": "function"
    },
    {
      "inputs": [
        {
          "components": [
            {
              "components": [
                {
                  "components": [
                    {
                      "internalType": "uint64",
                      "name": "slot",
                      "type": "uint64"
                    },
                    {
                      "internalType": "uint64",
                      "name": "proposerIndex",
                      "type": "uint64"
                    },
                    {
                      "internalType": "bytes32",
                      "name": "parentRoot",
                      "type": "bytes32"
                    },
                    {
                      "internalType": "bytes32",
                      "name": "stateRoot",
                      "type": "bytes32"
                    },
                    {
                      "internalType": "bytes32",
                      "name": "bodyRoot",
                      "type": "bytes32"
                    }
                  ],
                  "internalType": "struct BeaconBlockHeader",
                  "name": "beacon",
                  "type": "tuple"
                },
                {
                  "components": [
                    {
                      "components": [
                        {
                          "internalType": "bytes32",
                          "name": "leaf",
                          "type": "bytes32"
                        },
                        {
                          "internalType": "bytes32[]",
                          "name": "branch",
                          "type": "bytes32[]"
                        }
                      ],
                      "internalType": "struct LeafWithBranch",
                      "name": "stateRoot",
                      "type": "tuple"
                    },
                    {
                      "components": [
                        {
                          "internalType": "bytes32",
                          "name": "leaf",
                          "type": "bytes32"
                        },
                        {
                          "internalType": "bytes32[]",
                          "name": "branch",
                          "type": "bytes32[]"
                        }
                      ],
                      "internalType": "struct LeafWithBranch",
                      "name": "blockHash",
                      "type": "tuple"
                    },
                    {
                      "components": [
                        {
                          "internalType": "bytes32",
                          "name": "leaf",
                          "type": "bytes32"
                        },
                        {
                          "internalType": "bytes32[]",
                          "name": "branch",
                          "type": "bytes32[]"
                        }
                      ],
                      "internalType": "struct LeafWithBranch",
                      "name": "blockNumber",
                      "type": "tuple"
                    }
                  ],
                  "internalType": "struct ExecutionPayload",
                  "name": "execution",
                  "type": "tuple"
                },
                {
                  "components": [
                    {
                      "internalType": "bytes32",
                      "name": "leaf",
                      "type": "bytes32"
                    },
                    {
                      "internalType": "bytes32[]",
                      "name": "branch",
                      "type": "bytes32[]"
                    }
                  ],
                  "internalType": "struct LeafWithBranch",
                  "name": "executionRoot",
                  "type": "tuple"
                }
              ],
              "internalType": "struct HeaderWithExecution",
              "name": "attestedHeader",
              "type": "tuple"
            },
            {
              "components": [
                {
                  "internalType": "uint64",
                  "name": "participation",
                  "type": "uint64"
                },
                {
                  "internalType": "bytes32",
                  "name": "poseidonRoot",
                  "type": "bytes32"
                },
                {
                  "internalType": "uint256",
                  "name": "commitment",
                  "type": "uint256"
                },
                {
                  "components": [
                    {
                      "internalType": "uint256[2]",
                      "name": "a",
                      "type": "uint256[2]"
                    },
                    {
                      "internalType": "uint256[2][2]",
                      "name": "b",
                      "type": "uint256[2][2]"
                    },
                    {
                      "internalType": "uint256[2]",
                      "name": "c",
                      "type": "uint256[2]"
                    },
                    {
                      "internalType": "uint256[2]",
                      "name": "commitment",
                      "type": "uint256[2]"
                    }
                  ],
                  "internalType": "struct IBeaconVerifier.Proof",
                  "name": "proof",
                  "type": "tuple"
                }
              ],
              "internalType": "struct SyncAggregate",
              "name": "syncAggregate",
              "type": "tuple"
            },
            {
              "internalType": "uint64",
              "name": "signatureSlot",
              "type": "uint64"
            }
          ],
          "internalType": "struct LightClientOptimisticUpdate",
          "name": "hb",
          "type": "tuple"
        }
      ],
      "name": "processUpdate",
      "outputs": [],
      "stateMutability": "nonpayable",
      "type": "function"
    },
    {
      "inputs": [
        {
          "components": [
            {
              "components": [
                {
                  "components": [
                    {
                      "internalType": "uint64",
                      "name": "slot",
                      "type": "uint64"
                    },
                    {
                      "internalType": "uint64",
                      "name": "proposerIndex",
                      "type": "uint64"
                    },
                    {
                      "internalType": "bytes32",
                      "name": "parentRoot",
                      "type": "bytes32"
                    },
                    {
                      "internalType": "bytes32",
                      "name": "stateRoot",
                      "type": "bytes32"
                    },
                    {
                      "internalType": "bytes32",
                      "name": "bodyRoot",
                      "type": "bytes32"
                    }
                  ],
                  "internalType": "struct BeaconBlockHeader",
                  "name": "beacon",
                  "type": "tuple"
                },
                {
                  "components": [
                    {
                      "components": [
                        {
                          "internalType": "bytes32",
                          "name": "leaf",
                          "type": "bytes32"
                        },
                        {
                          "internalType": "bytes32[]",
                          "name": "branch",
                          "type": "bytes32[]"
                        }
                      ],
                      "internalType": "struct LeafWithBranch",
                      "name": "stateRoot",
                      "type": "tuple"
                    },
                    {
                      "components": [
                        {
                          "internalType": "bytes32",
                          "name": "leaf",
                          "type": "bytes32"
                        },
                        {
                          "internalType": "bytes32[]",
                          "name": "branch",
                          "type": "bytes32[]"
                        }
                      ],
                      "internalType": "struct LeafWithBranch",
                      "name": "blockHash",
                      "type": "tuple"
                    },
                    {
                      "components": [
                        {
                          "internalType": "bytes32",
                          "name": "leaf",
                          "type": "bytes32"
                        },
                        {
                          "internalType": "bytes32[]",
                          "name": "branch",
                          "type": "bytes32[]"
                        }
                      ],
                      "internalType": "struct LeafWithBranch",
                      "name": "blockNumber",
                      "type": "tuple"
                    }
                  ],
                  "internalType": "struct ExecutionPayload",
                  "name": "execution",
                  "type": "tuple"
                },
                {
                  "components": [
                    {
                      "internalType": "bytes32",
                      "name": "leaf",
                      "type": "bytes32"
                    },
                    {
                      "internalType": "bytes32[]",
                      "name": "branch",
                      "type": "bytes32[]"
                    }
                  ],
                  "internalType": "struct LeafWithBranch",
                  "name": "executionRoot",
                  "type": "tuple"
                }
              ],
              "internalType": "struct HeaderWithExecution",
              "name": "attestedHeader",
              "type": "tuple"
            },
            {
              "components": [
                {
                  "internalType": "uint64",
                  "name": "participation",
                  "type": "uint64"
                },
                {
                  "internalType": "bytes32",
                  "name": "poseidonRoot",
                  "type": "bytes32"
                },
                {
                  "internalType": "uint256",
                  "name": "commitment",
                  "type": "uint256"
                },
                {
                  "components": [
                    {
                      "internalType": "uint256[2]",
                      "name": "a",
                      "type": "uint256[2]"
                    },
                    {
                      "internalType": "uint256[2][2]",
                      "name": "b",
                      "type": "uint256[2][2]"
                    },
                    {
                      "internalType": "uint256[2]",
                      "name": "c",
                      "type": "uint256[2]"
                    },
                    {
                      "internalType": "uint256[2]",
                      "name": "commitment",
                      "type": "uint256[2]"
                    }
                  ],
                  "internalType": "struct IBeaconVerifier.Proof",
                  "name": "proof",
                  "type": "tuple"
                }
              ],
              "internalType": "struct SyncAggregate",
              "name": "syncAggregate",
              "type": "tuple"
            },
            {
              "internalType": "uint64",
              "name": "signatureSlot",
              "type": "uint64"
            }
          ],
          "internalType": "struct LightClientOptimisticUpdate",
          "name": "hb",
          "type": "tuple"
        },
        {
          "internalType": "bytes32",
          "name": "blockHash",
          "type": "bytes32"
        },
        {
          "components": [
            {
              "internalType": "bytes",
              "name": "left",
              "type": "bytes"
            },
            {
              "internalType": "bytes",
              "name": "right",
              "type": "bytes"
            }
          ],
          "internalType": "struct AnchorBlocks.BlockHashWitness[]",
          "name": "chainProof",
          "type": "tuple[]"
        }
      ],
      "name": "processUpdateWithChainProof",
      "outputs": [],
      "stateMutability": "nonpayable",
      "type": "function"
    },
    {
      "inputs": [],
      "name": "renounceOwnership",
      "outputs": [],
      "stateMutability": "nonpayable",
      "type": "function"
    },
    {
      "inputs": [
        {
          "internalType": "address",
          "name": "_lightClient",
          "type": "address"
        }
      ],
      "name": "setLightClient",
      "outputs": [],
      "stateMutability": "nonpayable",
      "type": "function"
    },
    {
      "inputs": [
        {
          "internalType": "address",
          "name": "newOwner",
          "type": "address"
        }
      ],
      "name": "transferOwnership",
      "outputs": [],
      "stateMutability": "nonpayable",
      "type": "function"
    }
  ],
  "transactionHash": "0xf8fdefc8650426782a68adac6a6c85e8610ad551d2d29c5e2b7ca3fa6eb13fc6",
  "args": [
    "0x958D7C94595BDf9067FC473C2141b432033F9759"
  ],
  "numDeployments": 1,
  "solcInputHash": "73e654e6b7af01b8885ee72617afe181",
  "bytecode": "0x6080346100a757601f6111b738819003918201601f19168301916001600160401b038311848410176100ac578084926020946040528339810103126100a757516001600160a01b0390818116908190036100a75760005460018060a01b0319903382821617600055604051933391167f8be0079c531659141344cd1fd0a4f28419497f9722a3daafe3b4186f6b6457e0600080a360015416176001556110f490816100c38239f35b600080fd5b634e487b7160e01b600052604160045260246000fdfe6040608081526004908136101561001557600080fd5b600091823560e01c9081632e3466f6146105755781633e553bab14610520578163715018a6146104b35781638da5cb5b1461048d578163b5700e6814610465578163f25b3f991461043d578163f2fde38b14610347578163fb8cfb51146100a7575063fbbea34c1461008657600080fd5b346100a357816003193601126100a3576020906003549051908152f35b5080fd5b8383346100a35760603660031901126100a35767ffffffffffffffff8335818111610343576100d9903690860161079c565b9160249485359560449081359585871161033f573660238801121561033f578684013596610106886106aa565b976101138751998a61066e565b80895260209784898b019260051b8401019236841161033b57858101925b8484106102c65750505050508651156102865761014d90610a8a565b97909887518a03998a11610275578099829a5b89518c101561021d57866101748d8c61104a565b515151036101dc5789896101cd6101d6938f836101a0826101986101bf948961104a565b51519761104a565b5101518d519485936101b58286018099611074565b9081520190611074565b03601f19810183528261066e565b5190209b611025565b9a610160565b875162461bcd60e51b81528088018a90526010818701527f696e76616c6964206c656674206c656e0000000000000000000000000000000081880152606490fd5b85858a8a8e8b950361023757876102348888610f78565b80f35b5162461bcd60e51b8152938401526012908301527f696e76616c696420636861696e50726f6f66000000000000000000000000000090820152606490fd5b50634e487b7160e01b815260118452fd5b506014906064957f696e76616c69642070726f6f66206c656e6774680000000000000000000000009495519562461bcd60e51b8752860152840152820152fd5b83358381116103375782018a6023198236030112610337578a51906102ea82610604565b8881013585811161033357610304908a36918401016109c0565b82528981013585811161033357916103248e94928b8695369201016109c0565b83820152815201930192610131565b8f80fd5b8d80fd5b8b80fd5b8780fd5b8380fd5b91905034610439576020366003190112610439578135916001600160a01b039081841680940361043557845491821692610382338514610a17565b84156103cc57505073ffffffffffffffffffffffffffffffffffffffff1916821783557f8be0079c531659141344cd1fd0a4f28419497f9722a3daafe3b4186f6b6457e08380a380f35b906020608492519162461bcd60e51b8352820152602660248201527f4f776e61626c653a206e6577206f776e657220697320746865207a65726f206160448201527f64647265737300000000000000000000000000000000000000000000000000006064820152fd5b8480fd5b8280fd5b9050346104395760203660031901126104395760209282913581526002845220549051908152f35b5050346100a357816003193601126100a3576020906001600160a01b03600154169051908152f35b5050346100a357816003193601126100a3576001600160a01b0360209254169051908152f35b833461051d578060031936011261051d5780805473ffffffffffffffffffffffffffffffffffffffff196001600160a01b038216916104f3338414610a17565b1682557f8be0079c531659141344cd1fd0a4f28419497f9722a3daafe3b4186f6b6457e08280a380f35b80fd5b8390346100a35760203660031901126100a357356001600160a01b0380821680920361043957610554908354163314610a17565b73ffffffffffffffffffffffffffffffffffffffff19600154161760015580f35b839150346100a35760203660031901126100a357803567ffffffffffffffff8111610439576105aa6105af913690840161079c565b610a8a565b9182156105c157509061023491610f78565b606490602086519162461bcd60e51b8352820152600f60248201527f656d70747920626c6f636b4861736800000000000000000000000000000000006044820152fd5b6040810190811067ffffffffffffffff82111761062057604052565b634e487b7160e01b600052604160045260246000fd5b6060810190811067ffffffffffffffff82111761062057604052565b6080810190811067ffffffffffffffff82111761062057604052565b90601f8019910116810190811067ffffffffffffffff82111761062057604052565b359067ffffffffffffffff821682036106a557565b600080fd5b67ffffffffffffffff81116106205760051b60200190565b91906040838203126106a557604051926106db84610604565b8381358152602091828101359067ffffffffffffffff82116106a557019280601f850112156106a557833561070f816106aa565b9461071d604051968761066e565b818652848087019260051b8201019283116106a55784809101915b83831061074757505050500152565b8235815291810191859101610738565b9080601f830112156106a5576040519161077083610604565b8290604081019283116106a557905b82821061078c5750505090565b813581526020918201910161077f565b9190828103926101e084126106a5576040908151926107ba84610636565b839582359067ffffffffffffffff918281116106a55784019182840360e081126106a55760a08751916107ec83610636565b126106a55786519160a083018381108282111761062057885261080e85610690565b835260209461081e868201610690565b868501528881013589850152606093848201358582015260808201356080820152835260a08101358281116106a557810184818903126106a55789519061086482610636565b80358481116106a557896108799183016106c2565b8252878101358481116106a557896108929183016106c2565b888301528a810135908482116106a5576108ae918a91016106c2565b8a8201528684015260c08101359182116106a5576108ce918791016106c2565b8188015287526101a0601f198301126106a5578551936108ed85610652565b6108f8848701610690565b8552868601358486015281860135878601526101408093607f1901126106a55786519261092484610652565b6109318260808901610757565b84528160df880112156106a557875161094981610604565b80918801918383116106a5578960c08a01915b8483106109a757505050826109848694889694610992946109a29c9a6101c09c9a0152610757565b8a8501526101808701610757565b8183015283015286015201610690565b910152565b88906109b38785610757565b8152019101908a9061095c565b81601f820112156106a55780359067ffffffffffffffff821161062057604051926109f5601f8401601f19166020018561066e565b828452602083830101116106a557816000926020809301838601378301015290565b15610a1e57565b606460405162461bcd60e51b815260206004820152602060248201527f4f776e61626c653a2063616c6c6572206973206e6f7420746865206f776e65726044820152fd5b6000915b60028310610a7357505050565b600190825181526020809101920192019190610a66565b60209182820192835192600094600367ffffffffffffffff8096511602858116908103610f645761040011610f1f57815191604094858401908151936080865101519887865196015195968b975b8751891015610b8a5760ff8911610b76576001808a1b15610b62578a918e9160198c1c811603610b4a57610b19610b2491610b138d8d61104a565b5161109f565b8d5191828092611074565b039060025afa15610b4057610b3a8c5198611025565b97610ad8565b89513d8d823e3d90fd5b610b19610b2491610b5b8d8d61104a565b519061109f565b634e487b7160e01b8e52601260045260248efd5b634e487b7160e01b8d52601160045260248dfd5b92959a9194975092955003610edb578501938685510151938151519887865196015195968b975b8751891015610c195760ff8911610b76576001808a1b15610b62578a918e9160168c1c811603610c0857610b19610bec91610b138d8d61104a565b039060025afa15610b4057610c028c5198611025565b97610bb1565b610b19610bec91610b5b8d8d61104a565b92959a9194975092955003610eab57859051015192515196858451940151939489955b8551871015610ce15760ff8711610ccd57600180881b15610cb95788918c91601c8a1c811603610ca857610c77610c8291610b138b8b61104a565b8b5191828092611074565b039060025afa15610c9e57610c988a5196611025565b95610c3c565b87513d8b823e3d90fd5b610c77610c8291610b5b8b8b61104a565b634e487b7160e01b8c52601260045260248cfd5b634e487b7160e01b8b52601160045260248bfd5b929550929790935095949503610e7b5760016001600160a01b0381541690828686015116938551519051833b15610e77579160608b9492969360808a51988996631ee9fa5560e11b88526004880152888151166024880152888d8201511660448801528b8101516064880152838101516084880152015160a48601528681511660c48601528a81015160e486015289810151610104860152015190610d8b61012485018351610a62565b818a0151858b8b61016488015b60028410610e4c5750610264969450610dd3935060609250859150610dc690889601516101e4870190610a62565b0151610224840190610a62565b5afa8015610e4257610e1b575b50508290510190815101515184905b838210610dff5750505101515190565b600895861b60ff821617951c90610e1590611025565b90610def565b8196929611610e2e578252938238610de0565b634e487b7160e01b82526041600452602482fd5b84513d89823e3d90fd5b9091929496985083959750610e6381889551610a62565b0193019101908c9593918b8b8a9795610d98565b8a80fd5b835162461bcd60e51b81526004810186905260096024820152683130b210383937b7b360b91b6044820152606490fd5b865162461bcd60e51b81526004810187905260096024820152683130b210383937b7b360b91b6044820152606490fd5b865162461bcd60e51b815260048101879052601360248201527f626164206578656320726f6f742070726f6f66000000000000000000000000006044820152606490fd5b60405162461bcd60e51b815260048101849052601260248201527f71756f72756d206e6f74207265616368656400000000000000000000000000006044820152606490fd5b634e487b7160e01b87526011600452602487fd5b90816000526002602052604060002054610fe057816040917fa9aaf84657c346a7eafe57cf0403ab0be7867b79a5fdd5e5ab3527fbfc739d859360005260026020528083600020556003548211610fd7575b82519182526020820152a1565b81600355610fca565b60405162461bcd60e51b815260206004820152601960248201527f626c6f636b206861736820616c726561647920657869737473000000000000006044820152606490fd5b60001981146110345760010190565b634e487b7160e01b600052601160045260246000fd5b805182101561105e5760209160051b010190565b634e487b7160e01b600052603260045260246000fd5b9081519160005b83811061108c575050016000815290565b806020809284010151818501520161107b565b91906040519260208401526040830152604082526110bc82610636565b56fea26469706673582212207b0e496f028b13c5670d9506610e40fbe798a489873e7c35b9d1f641d6ef9c7a64736f6c63430008120033",
  "devdoc": {
    "kind": "dev",
    "methods": {
      "owner()": {
        "details": "Returns the address of the current owner."
      },
      "processUpdateWithChainProof((((uint64,uint64,bytes32,bytes32,bytes32),((bytes32,bytes32[]),(bytes32,bytes32[]),(bytes32,bytes32[])),(bytes32,bytes32[])),(uint64,bytes32,uint256,(uint256[2],uint256[2][2],uint256[2],uint256[2])),uint64),bytes32,(bytes,bytes)[])": {
        "details": "It is possible that an attested block doesn't collect enough sync committee signatures in its corresponding signature slot and thus cannot be used in an anchor update. In that case, the updater can pick a later block that has enough sigs, and supply a chainProof to show that the block they want to sync can chain to the head block."
      },
      "renounceOwnership()": {
        "details": "Leaves the contract without owner. It will not be possible to call `onlyOwner` functions anymore. Can only be called by the current owner. NOTE: Renouncing ownership will leave the contract without an owner, thereby removing any functionality that is only available to the owner."
      },
      "transferOwnership(address)": {
        "details": "Transfers ownership of the contract to a new account (`newOwner`). Can only be called by the current owner."
      }
    },
    "version": 1
  },
  "userdoc": {
    "kind": "user",
    "methods": {
      "processUpdate((((uint64,uint64,bytes32,bytes32,bytes32),((bytes32,bytes32[]),(bytes32,bytes32[]),(bytes32,bytes32[])),(bytes32,bytes32[])),(uint64,bytes32,uint256,(uint256[2],uint256[2][2],uint256[2],uint256[2])),uint64))": {
        "notice": "Updates an \"anchor block\" of a specific block number to the contract state"
      },
      "processUpdateWithChainProof((((uint64,uint64,bytes32,bytes32,bytes32),((bytes32,bytes32[]),(bytes32,bytes32[]),(bytes32,bytes32[])),(bytes32,bytes32[])),(uint64,bytes32,uint256,(uint256[2],uint256[2][2],uint256[2],uint256[2])),uint64),bytes32,(bytes,bytes)[])": {
        "notice": "Updates an \"anchor block\" of a specific block number to the contract state"
      }
    },
    "version": 1
  },
  "storageLayout": {
    "storage": [
      {
        "astId": 7,
        "contract": "contracts/light-client/AnchorBlocks.sol:AnchorBlocks",
        "label": "_owner",
        "offset": 0,
        "slot": "0",
        "type": "t_address"
      },
      {
        "astId": 58481,
        "contract": "contracts/light-client/AnchorBlocks.sol:AnchorBlocks",
        "label": "lightClient",
        "offset": 0,
        "slot": "1",
        "type": "t_contract(IEthereumLightClient)60797"
      },
      {
        "astId": 58485,
        "contract": "contracts/light-client/AnchorBlocks.sol:AnchorBlocks",
        "label": "blocks",
        "offset": 0,
        "slot": "2",
        "type": "t_mapping(t_uint256,t_bytes32)"
      },
      {
        "astId": 58487,
        "contract": "contracts/light-client/AnchorBlocks.sol:AnchorBlocks",
        "label": "latestBlockNum",
        "offset": 0,
        "slot": "3",
        "type": "t_uint256"
      }
    ],
    "types": {
      "t_address": {
        "encoding": "inplace",
        "label": "address",
        "numberOfBytes": "20"
      },
      "t_bytes32": {
        "encoding": "inplace",
        "label": "bytes32",
        "numberOfBytes": "32"
      },
      "t_contract(IEthereumLightClient)60797": {
        "encoding": "inplace",
        "label": "contract IEthereumLightClient",
        "numberOfBytes": "20"
      },
      "t_mapping(t_uint256,t_bytes32)": {
        "encoding": "mapping",
        "key": "t_uint256",
        "label": "mapping(uint256 => bytes32)",
        "numberOfBytes": "32",
        "value": "t_bytes32"
      },
      "t_uint256": {
        "encoding": "inplace",
        "label": "uint256",
        "numberOfBytes": "32"
      }
    }
  }
}