{
  "address": "0xb77b728B4766d48c8757f80B3669b5eBF034963E",
  "abi": [
    {
      "inputs": [
        {
          "internalType": "uint256[2]",
          "name": "a",
          "type": "uint256[2]"
        },
        {
          "internalType": "uint256[2][2]",
          "name": "b",
          "type": "uint256[2][2]"
        },
        {
          "internalType": "uint256[2]",
          "name": "c",
          "type": "uint256[2]"
        },
        {
          "internalType": "uint256[2]",
          "name": "commit",
          "type": "uint256[2]"
        },
        {
          "internalType": "uint256[35]",
          "name": "input",
          "type": "uint256[35]"
        }
      ],
      "name": "verifyBlsSigProof",
      "outputs": [
        {
          "internalType": "bool",
          "name": "r",
          "type": "bool"
        }
      ],
      "stateMutability": "view",
      "type": "function"
    },
    {
      "inputs": [
        {
          "internalType": "uint256[2]",
          "name": "a",
          "type": "uint256[2]"
        },
        {
          "internalType": "uint256[2][2]",
          "name": "b",
          "type": "uint256[2][2]"
        },
        {
          "internalType": "uint256[2]",
          "name": "c",
          "type": "uint256[2]"
        },
        {
          "internalType": "uint256[33]",
          "name": "input",
          "type": "uint256[33]"
        }
      ],
      "name": "verifyCommitteeRootMappingProof",
      "outputs": [
        {
          "internalType": "bool",
          "name": "r",
          "type": "bool"
        }
      ],
      "stateMutability": "view",
      "type": "function"
    },
    {
      "inputs": [
        {
          "internalType": "bytes32",
          "name": "signingRoot",
          "type": "bytes32"
        },
        {
          "internalType": "bytes32",
          "name": "syncCommitteePoseidonRoot",
          "type": "bytes32"
        },
        {
          "internalType": "uint256",
          "name": "participation",
          "type": "uint256"
        },
        {
          "internalType": "uint256",
          "name": "commitment",
          "type": "uint256"
        },
        {
          "components": [
            {
              "internalType": "uint256[2]",
              "name": "a",
              "type": "uint256[2]"
            },
            {
              "internalType": "uint256[2][2]",
              "name": "b",
              "type": "uint256[2][2]"
            },
            {
              "internalType": "uint256[2]",
              "name": "c",
              "type": "uint256[2]"
            },
            {
              "internalType": "uint256[2]",
              "name": "commitment",
              "type": "uint256[2]"
            }
          ],
          "internalType": "struct IBeaconVerifier.Proof",
          "name": "p",
          "type": "tuple"
        }
      ],
      "name": "verifySignatureProof",
      "outputs": [
        {
          "internalType": "bool",
          "name": "",
          "type": "bool"
        }
      ],
      "stateMutability": "view",
      "type": "function"
    },
    {
      "inputs": [
        {
          "internalType": "bytes32",
          "name": "sszRoot",
          "type": "bytes32"
        },
        {
          "internalType": "bytes32",
          "name": "poseidonRoot",
          "type": "bytes32"
        },
        {
          "components": [
            {
              "internalType": "uint256[2]",
              "name": "a",
              "type": "uint256[2]"
            },
            {
              "internalType": "uint256[2][2]",
              "name": "b",
              "type": "uint256[2][2]"
            },
            {
              "internalType": "uint256[2]",
              "name": "c",
              "type": "uint256[2]"
            },
            {
              "internalType": "uint256[2]",
              "name": "commitment",
              "type": "uint256[2]"
            }
          ],
          "internalType": "struct IBeaconVerifier.Proof",
          "name": "p",
          "type": "tuple"
        }
      ],
      "name": "verifySyncCommitteeRootMappingProof",
      "outputs": [
        {
          "internalType": "bool",
          "name": "",
          "type": "bool"
        }
      ],
      "stateMutability": "view",
      "type": "function"
    }
  ],
  "transactionHash": "0x55e9a309f2a9a057546f88a50d5ef78c44fe1b07ce60f403e91057091960a16f",
  "args": [],
  "numDeployments": 1,
  "solcInputHash": "73e654e6b7af01b8885ee72617afe181",
  "bytecode": "0x6080806040523461001657613087908161001c8239f35b600080fdfe6080604052600436101561001257600080fd5b6000803560e01c9081630cc267691461005a5750806352356da0146100555780637a538781146100505763ab00dde61461004b57600080fd5b61066a565b6105e4565b610531565b346100bf576105a03660031901126100bf576100753661023c565b9061007f36610337565b61008836610279565b90610092366102b7565b923661016312156100bf5760206100b5868686866100af3661015f565b93610adf565b6040519015158152f35b80fd5b634e487b7160e01b600052604160045260246000fd5b604051906080820182811067ffffffffffffffff8211176100f857604052565b6100c2565b604051906040820182811067ffffffffffffffff8211176100f857604052565b60405190610460820182811067ffffffffffffffff8211176100f857604052565b60405190610420820182811067ffffffffffffffff8211176100f857604052565b9061016861011d565b91826105a491821161019557610144905b82821061018557505050565b8135815260209182019101610179565b600080fd5b906101a36100fd565b918261018491821161019557610144905b8282106101c057505050565b81358152602091820191016101b4565b906101d96100fd565b91826101c491821161019557610184905b8282106101f657505050565b81358152602091820191016101ea565b9061020f6100fd565b918261014491821161019557610104905b82821061022c57505050565b8135815260209182019101610220565b80602312156101955761024d6100fd565b90816044918211610195576004905b8282106102695750505090565b813581526020918201910161025c565b8060e312156101955761028a6100fd565b90816101049182116101955760c4905b8282106102a75750505090565b813581526020918201910161029a565b806101231215610195576102c96100fd565b908161014491821161019557610104905b8282106102e75750505090565b81358152602091820191016102da565b9080601f830112156101955761030b6100fd565b80926040810192831161019557905b8282106103275750505090565b813581526020918201910161031a565b8060631215610195576103486100fd565b908160c491808311610195576044915b838310610366575050505090565b602060409161037584866102f7565b815201920191610358565b8060e31215610195576103916100fd565b9081610144918083116101955760c4915b8383106103b0575050505090565b60206040916103bf84866102f7565b8152019201916103a2565b8060a31215610195576103db6100fd565b908161010491808311610195576084915b8383106103fa575050505090565b602060409161040984866102f7565b8152019201916103ec565b906101406083198301126101955761042a6100d8565b918060a312156101955761043c6100fd565b60c481838211610195576084905b82821061049657505050835261045f81610380565b6020840152806101631215610195576104778161019a565b6040840152806101a312156101955761048f906101d0565b6060830152565b813581526020918201910161044a565b90610140604319830112610195576104bc6100d8565b918060631215610195576104ce6100fd565b608481838211610195576044905b8282106105215750505083526104f1816103ca565b60208401528061012312156101955761050981610206565b60408401528061016312156101955761048f9061019a565b81358152602091820191016104dc565b34610195576101c03660031901126101955761054c36610414565b61055461011d565b9061046036833760006004355b602082106105ba576105b66105a4858560443561040083015260243561042083015260643561044083015280519060208101516060604083015192015192610adf565b60405190151581529081906020820190565b0390f35b8060ff6105de92166105d46105ce85610762565b87610786565b5260081c91610753565b90610561565b3461019557610180366003190112610195576105ff366104a6565b61060761013e565b9061042036833760006004355b60208210610640576105b66105a485856024356104008301528051906040602082015191015191611c7a565b601f908282039182116106655761065f916105d460ff8316918761079c565b90610614565b61073d565b3461019557610520366003190112610195576106853661023c565b61068e36610337565b9061069836610279565b91366101231215610195576106ab61013e565b9283916105249336851161019557602095610104905b8682106106d45750506100b59450611c7a565b813581529087019087016106c1565b6106eb6100d8565b906080368337565b604051906060820182811067ffffffffffffffff8211176100f8576040526060368337565b604051906020820182811067ffffffffffffffff8211176100f8576040526020368337565b634e487b7160e01b600052601160045260246000fd5b60001981146106655760010190565b601f0390601f821161066557565b634e487b7160e01b600052603260045260246000fd5b9060238110156107975760051b0190565b610770565b9060218110156107975760051b0190565b6107b56100fd565b906107be6100fd565b604036823782526107cd6100fd565b60403682376020830152565b6107e16100d8565b906107ea6100fd565b60009081815281602082015283526108006107ad565b602084015261080d6100fd565b81815281602082015260408401526108236100fd565b9080825260208201526060830152565b1561083a57565b60405162461bcd60e51b815260206004820152601760248201527f76657269666965722d61582d6774652d7072696d652d710000000000000000006044820152606490fd5b1561088657565b60405162461bcd60e51b815260206004820152601760248201527f76657269666965722d61592d6774652d7072696d652d710000000000000000006044820152606490fd5b156108d257565b60405162461bcd60e51b815260206004820152601860248201527f76657269666965722d6258302d6774652d7072696d652d7100000000000000006044820152606490fd5b1561091e57565b60405162461bcd60e51b815260206004820152601860248201527f76657269666965722d6259302d6774652d7072696d652d7100000000000000006044820152606490fd5b1561096a57565b60405162461bcd60e51b815260206004820152601860248201527f76657269666965722d6258312d6774652d7072696d652d7100000000000000006044820152606490fd5b156109b657565b60405162461bcd60e51b815260206004820152601860248201527f76657269666965722d6259312d6774652d7072696d652d7100000000000000006044820152606490fd5b15610a0257565b60405162461bcd60e51b815260206004820152601760248201527f76657269666965722d63582d6774652d7072696d652d710000000000000000006044820152606490fd5b15610a4e57565b60405162461bcd60e51b815260206004820152601760248201527f76657269666965722d63592d6774652d7072696d652d710000000000000000006044820152606490fd5b15610a9a57565b60405162461bcd60e51b815260206004820152601f60248201527f76657269666965722d6774652d736e61726b2d7363616c61722d6669656c64006044820152606490fd5b94939492919092610aee6107d9565b8151602080930151610afe6100fd565b918252838201528152610b0f6100fd565b948051518652610b20815160200190565b5183870152610b3f83610b316100fd565b920180515183525160200190565b5183820152610b4c6100fd565b95865282860152818101948552818351930151610b676100fd565b9384528284015260408101928352835193828101948551610b866100fd565b9182528482015260608301908152610c3a7f30644e72e131a029b85045b68181585d97816a916871ca8d3c208c16d87cfd47610bc58186515110610833565b610bd48187875101511061087f565b610be2818a515151106108cb565b610bf281878b5101515110610917565b610c0981610c028b515160200190565b5110610963565b610c2281610c1b888c51015160200190565b51106109af565b610c2f81885151106109fb565b858751015110610a47565b60005b6023811061197b5750906119549798939291610c576119fe565b96610c606100fd565b926000845261191b848781019860008a528199610c7b6106e3565b918a610440610c886106f3565b927f2065b90c648581703a4ef82833653ae713aaf62c2dc4ef26b0a9bbbdf254b48a610cb26100fd565b95600087526000858801527f0da0d09dcc32c2d20c9905307190ffb91538db928804c70e7ed77639f2cee0fe8952527f2fcf362c494439bcae24ab0ab7dd0bd40825ed18725c1d11d25eeb863f24194884527f184edce371c121d112278a4d1239f9d65421fb00e688d7612320bb5f66e7409d8385017f1a7a0f4ef55687795fa98c4585fc66e26ddea1f6e161a837ef4a4f1ae9c8808b815282519460408701958652610d618a8a8a8a612c83565b7f159c9e6c6ad47c3114dd4bdc88dc34359cae49de8306c8f56c9ba9d56429755e87527f261a0e3bad2b8c7b4057a7708b68ddaa9684eaa9d458088e7a2fe7813e08d06082528301518552610db889898989612c83565b7f1243c2c01b1a238bd0937eed8a5eb5f962eae681000356540ae1cfb36e1e308b86527e816901d1be816971e5f7e84b32a92c58a9f8971ff921adc37884d47db225e2815260408301518552610e1089898989612c83565b7f25ebb06beeca9f8b08c511a86423c8f8705f115fe942220b9f8e30d54b016e0686527f1a598b2d183a54a959959d562879ae4b48df2203151d223973543b7d9584c59e815260608301518552610e6989898989612c83565b7f0ede030d344e453627bd0d2e849cd89947ed04b1825b0d4f7d6a8bf8b6ca5bae86527f01e7b010c4ab8cfc4791d0886bb39e1e8785b51a2a2165514d1fe026b8de24ad815260808301518552610ec289898989612c83565b7f1f81ffd062f9644e01e392d39b8de8e030afd731c770e58f96050ed1d36d553286527f0ac85a9509ed9a6e21c1e933b10794303a4b77d9fd1fb036e966fef320cb4dad815260a08301518552610f1b89898989612c83565b7f2d46add97dc6a65ee2f3dd3ea61060bf9fd510929a701e4cec0913f8ab1cafe386527f1e8e47b54e79299b14dfe604a3c8ce10ee4cb2d09be71e23628c13888c29a254815260c08301518552610f7489898989612c83565b7f146a85b7d5644a318ee8d2a44d995f580695fb92ade1dc0bbfc84cb4010ac1c386527f1d3734ea6fc621a0710ba60b024e87e0442525b2c77aff46634f6c5c0035e073815260e08301518552610fcd89898989612c83565b7f12664f87a4a89be5df17d8f4cb797e102a083e505835ddfa68bfff968ded011f86527f062c4ef046ea89c77def686012d175292e6cca3adb8dc9e0234bbbe4384e6b188152610100830151855261102789898989612c83565b7f22ecd52df7b85f6392fa550619d401fedebde3332b7c8857f3b26caac17f4b7986527f25696ccea69b88905a95af209f6daa0d638426ae494b1b5800d1bb32aa271c3c8152610120830151855261108189898989612c83565b7ee5e920eb2bd31bc7480c75e93c11a2a8f421af3e287f37a87453a96b4dd6c086527f2b82a4685f51b881675e3e4958242a11585b1aa2211bef1ba101ade59d484fcb815261014083015185526110da89898989612c83565b7f1bb112783a4bd8e95decec6012a6b0c06d076f07806241e64d5bb279055ce2e386527f03aacbe5b76da6ffe5a38b5f74bb1defdf60afde8f7bed77c2103c7d6d285c458152610160830151855261113489898989612c83565b7e89a49d6c462af5737f4f74e89ee3fd5fcda9b129a6885f4402b7191ce06ecc86527f03670d5e8e16d0f9e9351a53b707cddd87f0df01f7e71f8ef942b35a63c54d808152610180830151855261118d89898989612c83565b7f148203b1cf918d850c2e4eb482623111d69a0d149273d88bd472cc2dc667788886527f09e3685cddd844c117894cf1560ee45625a29890eb111e539598ac6c8510b26f81526101a083015185526111e789898989612c83565b7f038bda99e81e5aee528c18e38ab4a8806508a531d1f22f6618919bffb81f59f686527f14ce622b4ba47284ea8c421b00498ea220fb6f88026998098cbb21d38d8e0b0a81526101c0830151855261124189898989612c83565b7f0c1641e14f8c4509f0c675448654f877363c981ca8c18363b549cfb115737ea386527f0b8cc9ed761dfbad8b821e125c571ba83a857c405c10df3bdeb64fc9b3248e2a81526101e0830151855261129b89898989612c83565b7f14c11b03d9e6d4e5c71174b991b0b1b63f5a8539d4449e10a08275be0454646586527f014e6374d23fc81a10b61fd108e7b0e59003f8d3ed87edd40a722aafbc1c2635815261020083015185526112f589898989612c83565b7f2a195965e3a4ebe550289af22bb4c1118e21dc2c74be94ad6455e8f6eb70c8c486527f12024e0b3b82946c93024f8e1159da64dc1d3c72c49929836a5f2577d5a0ed688152610220830151855261134f89898989612c83565b7f1f679e8223e56ae364c7fe5b1eb44e3b3c66cbf45645c364d308c505539047c986527f2c32d125628fae7d840d3f28e83a7fa88112f60ee52f5f86fba53c08e474ff69815261024083015185526113a989898989612c83565b7f1b73d0bdb2a03d112f31e25b60799a767fb82a9d6418db824c632ffba80be47d86527f21b9840d5d347552e43ea2e7bd19560353b633a278b602c6074025ddb9f63a218152610260830151855261140389898989612c83565b7f16b45c0468819f85893ab1c4877c4fe4f49c146b976419b48aa07a0f6cbfb2e286527f06b26b18879ce8c03298c0302e22e9be3407e4b50aa15e3153b0eea99ce024148152610280830151855261145d89898989612c83565b7f1fe6017431f3e3861894f3e1871a3627f3fc61c832f3e951b3e55c86c4b9615886527f2236d30c0a8738dcac59bc76c975d2ac9c9f1347adfc85c977fc196f4a963f5e81526102a083015185526114b789898989612c83565b7f2fd10aed9958e2d8257e4a70a742fa4774402f36a25babac21c8e0b5f661c12886527f0f8a616d021292af83c9631904c885899f5fe78a5489c14462c97f8472ce5bbf81526102c0830151855261151189898989612c83565b7f280a41e1efcd026c87f851e0180aad3ac57df1f93286a57f53c400268d8752c386527f1633532825ddc9c0da04246a44b706dcfd57ae2f4c1bb69738ff8433d5b2a8bb81526102e0830151855261156b89898989612c83565b7e027cbc9193ee97f7eec57e57cb0ff7347cc0b2586a1637f4ce954bea3ff97186527f1c897b0f8a07cbc7a4b69597227129b4a12ba68e1926ecc7a45a4ec4bdc5bf07815261030083015185526115c489898989612c83565b7f1b1da35eea8e3139d38e9db84386f59853a18040d1a2216b74679e08c191a01c86527f0bfab57806284de52685f6dda04330043efee9399c75b78e48b5b1d7cb80038e8152610320830151855261161e89898989612c83565b7f012154f85b76ea46de9dc3f61d7c053aa9a583e3e2e57d6a076db599b1326a2f86527f1d25427c48b7647c1efe27b5e7da3240ee333d288ebabeb8b45e30c113c6474e8152610340830151855261167889898989612c83565b7f111fb275c27d543c507e0c685728727d2344f736a345419dd396d083296211ed86527f01c636dbb603223ca61aee282e75c2ee554f6639e813f990cc7e045128e9ba6e815261036083015185526116d289898989612c83565b7f0e3ef51ec2992fd4fd4e08d2fc6c02cb6586ec574edec92b74583bd38cc15cae86527f0eeb3ece8b4b83ce8946832b6dd7f35204669e47ccd8b1fc31cba6c71808f6898152610380830151855261172c89898989612c83565b7f0a7e2bd7bb8aeb9e84739db84898a9115aa023c279d2df4536366e445e618b1e86527f0141bc992ed56ad3af847ed62afe254e174e6df8efbc36cf3314adad1244b42381526103a0830151855261178689898989612c83565b7f0f2ecde94b061c256edb823ac557ce52f907f612791c85a2e66fb888ce8a417b86527f1c09474255a3b4c33f9452b362e6352c65acb1406a454a1d4b212538d529ed9a81526103c083015185526117e089898989612c83565b7f1a2a4a634641112a1b940ba3b089193dfde76611dc7a7c29538a0f93bbdaf83086527f1752d5a3839dedbad8cd819b7b86a82982d1c7663453d236c559353725c2901381526103e0830151855261183a89898989612c83565b7f2e9b2e2e4921cd57e24d3215d41cfa43545b0fa8907380f2b4eca856b242ace086527f192ca02d2e86b7636626a919c871396ba8108cc7f2358ded277a32ed4ba10d4b8152610400830151855261189489898989612c83565b7f1266b7cbb61c28d580a6aa8e4a6b3455bf5c925fe9321c0b0afd01596c4a950586527f0f945b9129e6749912477338802d286af2f6aca2e71cdf199f387d570acf5f10815261042083015185526118ee89898989612c83565b7f1be6c06af2b7182fc509c0c72a3874173c0e9b8ef208c89a6ffcbe343f74440a86525201519052612c83565b511590811591611970575b50611957575b50506119389051612cd4565b9451908451908501519160606040870151955196015196612ef2565b90565b519193506119389161196891612daa565b92903861192c565b905051151538611926565b806119b47f30644e72e131a029b85045b68181585d2833e84879b9709143e1f593f00000016119ad6119b9948e610786565b5110610a93565b610753565b610c3d565b6119c66100d8565b906119cf6100fd565b600081526000602082015282526119e46107ad565b60208301526119f16107ad565b604083015261048f6107ad565b611a066119be565b90611a0f6100fd565b7f3059a4f6581fbdcc0d5e847306a4862568fbf62d22d49958fc3902e4bc379ef381526020907f1dd7c04824ae7a26cbb4bb2e8e647030df4de01e51764344c9da30b1ac0317c8828201528352611a646100fd565b7f0f98f7aa65c680ca7cd4b7f95afc5f6827e95398c599befdd9a9eca741e46b6181527f0a6f18525c7167edf6945aa57ecf8e0dde824c50912f1fe71574e86908579b6882820152611ab46100fd565b7f1d1dacfe7971320b875aa2dbcdafb33d4141ca0b0435904e1e2ead83b600d26b81527f1e0cdae1aa15580307c121c8518d1b513fb8bfc62718065a60e88eee79d0288d83820152611b046100fd565b9182528282015281840152611b176100fd565b7f1887c867c4428fd8c7157ac7f5e81a19271ea37ac336aa87203e65bd77cdcad281527f10d21089c03935120870563d17d271a9165f3d541cf4b41a450b8c3741e8442382820152611b676100fd565b7f105ceb8102cb4bd76c903c3f045988d7407aab02a26e2b0ac08c58af1edec5a481527f0b32e41ba74a1a65c885129ca2c3c87475d584c75ebc553cb79d4468de6483a883820152611bb76100fd565b918252828201526040840152611bcb6100fd565b907f04e9e06a4684b3f9cfea22a0b5d19239c957ba0b12a17f2d9dc9d1e63f9ae49482527f0ef0df2626365d3222024595b1cd400614d2db4a442bb59f5ab585b4717528f881830152611c1c6100fd565b907f239dd78f7b5dba6a6d81f994b3060a73e4d7602aeb8909fd9785a0f1e04367e382527f178fb89664e86e6758f974887c6d9d19cd52b518c16d799e75556a7ae9a2582981830152611c6d6100fd565b9283528201526060830152565b9091939293611c876107d9565b918051602080920151611c986100fd565b918252828201528352611ca96100fd565b938051518552611cba815160200190565b5182860152611ccb82610b316100fd565b5182820152611cd86100fd565b94855281850152808301938452808251920151611cf36100fd565b9283528183015260408301918252611d997f30644e72e131a029b85045b68181585d97816a916871ca8d3c208c16d87cfd47611d328186515110610833565b611d418184875101511061087f565b611d4f8187515151106108cb565b611d5f8184885101515110610917565b611d6f81610c0288515160200190565b611d8181610c1b858951015160200190565b611d8e81855151106109fb565b828451015110610a47565b60005b602181106129cc5750946119549495611938611db6612a03565b946129c6611dc26100fd565b80956000825285820160008152611dd76106e3565b91611de06106f3565b907f305c9c1aa4a3294d7d6f331d65dc097fd9b9011350a6065eed3d56ad4d48a5e2611e0a6100fd565b936000855260008b8601527f2d704aa2e65d5ad168e2ebdd814a37bf7f58961077a78e2ce2eea371cf886b0e8752527f05595e70b8c63dfb8fe2f8adb49c225ee5e6f783b5736f3221d423194db5585d8252610400898301917e7f03a8f871280b33c0292e973247afd9cddfa419e978678bde69323baece8383527f0e4ddacfcf167969963d2bb01ca92fa86b4bfd92c37917bad4ab760f0279625081519360408601948552611ebc89898989612c83565b7f2cbe10c7c83f6dbe1bc89736f5dc9a9b91e55be6941a4b99b058acd8001fb00486527f1500351867036612a9db15b6f7d4198993f31565af0610ed3fda8d92ffb5e67181528c8301518552611f1489898989612c83565b7f2ff215cfa1c7c99fc0b382d9d7225a0636ccd9a01be83959da430a3a25d4481f86527f2918236b7c008f70fc98cc3bcc41eb60fb8b85d02b4e83100de7a9a7eed34645815260408301518552611f6d89898989612c83565b7f0943a399c312616b46deee38e49b364b3449d7bab638b580df78aece26ecedf186527f11c937747adbd7b45585d385c0174241e937dce9fa818ca66d00f550b3f3d128815260608301518552611fc689898989612c83565b7f05dd54c0736f8a8d838a097e3151776cc6f602439ecc7833d223dc6cc69d585186527ee6465472f5b3647daa18848088f62f4fe1e57c401172d39f45b827bcc898f781526080830151855261201e89898989612c83565b7f0d64a91e0e28a2e96b12a3211ebd9f66d854efbc1bd17fccc28e33993722b96d86527f0b30126ec8f40991e90ef34a78e10acb9848fe65e84547e64346fbaebafc9a98815260a0830151855261207789898989612c83565b7f08272a78392bca7c2597f09f39daf6f7129808e6a6b34a49239dbf2a264e4e3b86527f02ac17971af65a980f6ab150b8ebaf573008d90c0af4eeed28d50374e8eed16b815260c083015185526120d089898989612c83565b7f19e3f8ff1265325376056bd2155edf79762433ec7b24c2196701da40ff2e6b3186527f0b33297cf3ae84083dab64e559bccd29e271c3e7d9ba307b7d623d223d091ead815260e0830151855261212989898989612c83565b7f01341f47e05793a19ea7b92ff3b84c73f7223d56104d070f246e00eb1db7967986527f052fb71e652150885399cfb863b33f0dc0dfe9b279d0bf29df0fc403810fdb178152610100830151855261218389898989612c83565b7f04e2785630031d901e87c72d18c1e526142d7b79ee5b4360f5f9373d385aa1be86527f13fdbcc7f866114bdd363bc99c54b3ea0921b9b5526e46885291a00f8f9feea7815261012083015185526121dd89898989612c83565b7f0bc888012014ac70c1692250c46020392de91756724c6c890edbc8d860450b8086527f02ce5d7f6c5c1ec90a48c08531305543ef94f25d0d03f67124280afb560406d48152610140830151855261223789898989612c83565b7f0aee169033d6ddce5c5dde351a6ce45eb60dc3018752274e14f68e3f19a5359686527f1481dacc3a815550ede26690b83395cb031c17fb4aca75baa0a74acc404233518152610160830151855261229189898989612c83565b7f1c24a404b575734133f0c03bbf71c74c5b03a34f1d0817662c7d9293eaecaad586527f10af37e497d439239dfdab04bce89b1eaeaa12bc5f327129816a7a3841863fdd815261018083015185526122eb89898989612c83565b7f14a256de1a2c7bb25672a1acc5406b90543c8a3b8c7c6e0a1895f019171141a886527f08f0539c9fd5ef363053e6560e4769e20e56dd0a510c30dce8adab0230c5fdb181526101a0830151855261234589898989612c83565b7f082d61eb34a0a6544527e7db6b9bd16a8f6488733c83bee559ec5378191c93ba86527f144b7ab9c8fd2fb71b51c102820f2b08303be60f9fdd313e68f412d3f027a82081526101c0830151855261239f89898989612c83565b7f22510e5ce22c30374993b2a360ceed3bdc20bd64b8d14cb3baedf76ddbd8062386527f0c0c88dfbf63ebc976d642a63c3d22288c546570b101f0219b3e2f3af5bedcfb81526101e083015185526123f989898989612c83565b7f2c71d775cc194f6e13408a12a33cb48babccfee137654d1443371de1d0f30c0c86527f1ba219dea8d4ffd8339c1c10cda690451c10fb5058f36ce7e1407118d871cc808152610200830151855261245389898989612c83565b7f14e7d115c5cfbe3c075697f305b8660abf41c5725a40557d3e14c9703aef64c286527f0cbc84b02d09b3f498b122ab5819248195aea678e0a41e744967da6bd8d0ce11815261022083015185526124ad89898989612c83565b7f0332f7d5660e970f229a174367929acabfa2f9fdab763460fd7acebddd944dde86527f15be1ce817121a7c25340b8d9c50a584a179d3dffd489f54311a12f922a6942f8152610240830151855261250789898989612c83565b7f0257933903a2e91846df829f8084008ddf5fc35dd8d4acdebd426bff0d97e2a386527f17e9653840e81e1a68076e0c5f8c89f61463791e918991df86c86f63dccd93918152610260830151855261256189898989612c83565b7f106f1170be9c02c979b3d6e1d43737530d6bfc444c16df873400384d39e393be86527f1c2b9f619d809bb543e712ac0ee22cc3c6aa99ae73c97246c9769c9c98713fc5815261028083015185526125bb89898989612c83565b7f131eb8c00ed76432c870a74c71365748a51807c021e678beb083b0e7e8b5b61186527f2491a76ab72146d0aeb330815df908ad5dd6cd86201e97d220b63d0d8d0f3ac481526102a0830151855261261589898989612c83565b7f2561f4abb9fabeeb813dcc6d4d487d8f6e36fdd18805e785cccdf2b0a2ff085786527f2e6269f87539d6b464a25b6bd4522d1e2b78c3918f48e79de55dd640261faa4281526102c0830151855261266f89898989612c83565b7f2e485df27f23a93b97e296061758e7dd3d34c4722c6fd7ae249433c55d259adc86527f1614f76a407ac31a5acb91266c2c7f54166ee17112e69f0b5e5fad32dafe5f6581526102e083015185526126c989898989612c83565b7f153af4e0fe4af748819ca675d8781da95111510763de4bec8abf25bca637703b86527f0b1f5a812c51999ebc7ac97de6ab2409b894ad5fb02d45f0798acc2548344cb98152610300830151855261272389898989612c83565b7f2c69e0646f6bfc70dfd02cf64d0b781ab481cafbd190dba9ee603f8160c44dcd86527f126015936956b109beba47938f9808cd9eed7ba5fc4531e6f6f267cadb13f4f88152610320830151855261277d89898989612c83565b7f22c6d8b6cf6965d431abf72b985b44f1d0831026a43d6dc8cbcb9ca85ab4a0bc86527f19fd6ce3da2b55331cdd361a63f29e95c52f07bcf9cbe355077e5141bf020d83815261034083015185526127d789898989612c83565b7f0cc996a6a427bcf59dad5cb6a2da92164e142372347a8ca5b1b3b32d8b20a0ef86527f232f08e45f51e15d57617fc960278b4dd236ed78e9014d43950751ea862841f18152610360830151855261283189898989612c83565b7f1e03c25c13870ae3e127e009be017aa0f47c7b53fc8636bd519ad68f035aa55c86527f04d8795eee1d4bcb8a4042ed861d91024ec5ce76c4fdac892d0c0047987451998152610380830151855261288b89898989612c83565b7f2690cf34bdf3837f3036c3c61e73f94f8026f6a6e9be13695cf81ccebbac7ca886527f0db77d728541f6ab723d2dc8389a97864f9e61349120d35d76c004579c3fc10881526103a083015185526128e589898989612c83565b7f10f3808b8fb7eb5be9d22fa5e7b4599e94116d5803607ae38bd3c637c10224f286527f06cb766b59e904c5b47098c0f98af9c4444f614cf303f1c939fd24b6bd60cc9c81526103c0830151855261293f89898989612c83565b7f1610f9fbade90d90feada79ae229d67175dee93355fbbf229133ce0d6e75e3a186527f1a3084c2af6e7f823d2044866e00b80af74b5586f26c9685943786f355712ddd81526103e0830151855261299989898989612c83565b7f1b88a7f08e12e3e28b9b10c0c0cbfd8d7df8b8a8fae1840b33c1cd4d24c8b23c86525201519052612c83565b51612cd4565b806119b47f30644e72e131a029b85045b68181585d2833e84879b9709143e1f593f00000016119ad6129fe948b61079c565b611d9c565b612a0b6119be565b90612a146100fd565b7f0a3a3884405b8d1fe46693685f02ba163634fd63d14bf91b6a433825b9ed6b5a81526020907f111fc830b029cfb2c94e450b570cf3be3eac81076213c2dcb1e1059330c605bf828201528352612a696100fd565b7f23ab779b99bf99c421500d8fe70c4e84fc1ff6eefdf3e92d8f581d046cb3eab781527f1611f26f3d9d6b19c4a418d02f19f6796be688f08507bc59ee5f9862dd46fa5b82820152612ab96100fd565b7f2d34a3d654ca9ea36195f8167d653fa7240b0af8acad4b224aed268f9d8756ff81527f178cda417a663a79267fba64b28caf8fc8484866bfe0f423cb8d3b7da164d7f983820152612b096100fd565b9182528282015281840152612b1c6100fd565b7f1f682eee4eeb25b38c3bff07fad9aaeb8c1ae87a95472a7819a57fd8b37a6e1581527f0db20bc4434468f4ce7f5888da80c6013c5392645400eee1ddbb77b0696ea1a782820152612b6c6100fd565b7f01979b2d16e0fb974244f72e399fd4d24be132523f4aeb010c75f26b6452d53c81527f21900fdcdfde4102dbbcd9525e925c0f4ea5317aefc7a1c350753b5c9741ebd583820152612bbc6100fd565b918252828201526040840152612bd06100fd565b907f04969a13dd24e7586c1e7e668f9be1cfab2bfb7baf9e48cd94428a55b4cfb89882527f3026f4334a515ea181839681e5a601e08615013a7355b0a0ad1c6ffce279eb1681830152612c216100fd565b907f0987e27c310f4a785adc7dfc5324848dc4b1b4957907733a04c889777c88a78582527f13c07cb3a59387f85f315e9b41060f8a993a3c3d22113439d63f9be212afc23481830152611c6d6100fd565b9060048110156107975760051b0190565b90929160608460806107cf19946007865a01fa15612cd257600660c0926020606096865185528187015182860152805160408601520151868401525a01fa8015612cd257612cd090612d5e565b565bfe5b60006020612ce06100fd565b8281520152805190811580612d52575b15612d0d575050612cff6100fd565b600081526000602082015290565b602001517f30644e72e131a029b85045b68181585d97816a916871ca8d3c208c16d87cfd4790819006810390811161066557612d476100fd565b918252602082015290565b50602081015115612cf0565b15612d6557565b60405162461bcd60e51b815260206004820152601260248201527f70616972696e672d6164642d6661696c656400000000000000000000000000006044820152606490fd5b60609092919260c0612dba6100fd565b9160008352600060208401526020839681612dd36100d8565b936080368637805185520151828401528051604084015201518482015260066107cf195a01fa8015612cd257612cd090612d5e565b60405190610320820182811067ffffffffffffffff8211176100f85760405260188252610300366020840137565b9060068202918083046006149015171561066557565b906001820180921161066557565b906002820180921161066557565b906003820180921161066557565b906004820180921161066557565b906005820180921161066557565b80518210156107975760209160051b010190565b15612ead57565b60405162461bcd60e51b815260206004820152601560248201527f70616972696e672d6f70636f64652d6661696c656400000000000000000000006044820152606490fd5b9491959692909396612f026100d8565b95865260209788978888015260408701526060860152612f206100d8565b9384528584015260408301526060820152612f39612e08565b9160005b60048110612f7557505050610300612f53610718565b9384920160086107cf195a01fa8015612cd257612f6f90612ea6565b51151590565b6130479192939450612f8681612e36565b612f908285612c72565b5151612f9c8288612e92565b5286612fa88386612c72565b510151612fbd612fb783612e4c565b88612e92565b52612fc88286612c72565b515151612fd7612fb783612e5a565b52612fed612fe58387612c72565b515160200190565b51612ffa612fb783612e68565b52866130068387612c72565b51015151613016612fb783612e76565b5261304161303b6130348961302b868a612c72565b51015160200190565b5192612e84565b87612e92565b52610753565b9084939291612f3d56fea2646970667358221220b9fa2f23e4127f4fdaba081ac3dba396285832f973e55cb5b9b7a2acd0161a1164736f6c63430008120033",
  "devdoc": {
    "kind": "dev",
    "methods": {},
    "version": 1
  },
  "userdoc": {
    "kind": "user",
    "methods": {},
    "version": 1
  },
  "storageLayout": {
    "storage": [],
    "types": null
  }
}