{
  "address": "0x420755E97ca29314dB49ae019161f4b52012AADf",
  "abi": [
    {
      "anonymous": false,
      "inputs": [
        {
          "indexed": true,
          "internalType": "address",
          "name": "previousOwner",
          "type": "address"
        },
        {
          "indexed": true,
          "internalType": "address",
          "name": "newOwner",
          "type": "address"
        }
      ],
      "name": "OwnershipTransferred",
      "type": "event"
    },
    {
      "anonymous": false,
      "inputs": [
        {
          "indexed": false,
          "internalType": "uint64",
          "name": "chainId",
          "type": "uint64"
        },
        {
          "indexed": false,
          "internalType": "address",
          "name": "newAddress",
          "type": "address"
        }
      ],
      "name": "UpdateAnchorBlockProvider",
      "type": "event"
    },
    {
      "anonymous": false,
      "inputs": [
        {
          "indexed": false,
          "internalType": "uint64",
          "name": "chainId",
          "type": "uint64"
        },
        {
          "indexed": false,
          "internalType": "uint32",
          "name": "startBlockNumber",
          "type": "uint32"
        },
        {
          "indexed": false,
          "internalType": "bytes32",
          "name": "prevHash",
          "type": "bytes32"
        },
        {
          "indexed": false,
          "internalType": "bytes32",
          "name": "root",
          "type": "bytes32"
        },
        {
          "indexed": false,
          "internalType": "uint32",
          "name": "numFinal",
          "type": "uint32"
        }
      ],
      "name": "UpdateEvent",
      "type": "event"
    },
    {
      "anonymous": false,
      "inputs": [
        {
          "indexed": false,
          "internalType": "uint64",
          "name": "chainId",
          "type": "uint64"
        },
        {
          "indexed": false,
          "internalType": "address",
          "name": "newAddress",
          "type": "address"
        }
      ],
      "name": "UpdateVerifierAddress",
      "type": "event"
    },
    {
      "inputs": [
        {
          "internalType": "uint64",
          "name": "",
          "type": "uint64"
        }
      ],
      "name": "anchorBlockProviders",
      "outputs": [
        {
          "internalType": "address",
          "name": "",
          "type": "address"
        }
      ],
      "stateMutability": "view",
      "type": "function"
    },
    {
      "inputs": [
        {
          "internalType": "uint64",
          "name": "chainId",
          "type": "uint64"
        },
        {
          "internalType": "uint32",
          "name": "startBlockNumber",
          "type": "uint32"
        }
      ],
      "name": "historicalRoots",
      "outputs": [
        {
          "internalType": "bytes32",
          "name": "",
          "type": "bytes32"
        }
      ],
      "stateMutability": "view",
      "type": "function"
    },
    {
      "inputs": [
        {
          "components": [
            {
              "internalType": "uint64",
              "name": "chainId",
              "type": "uint64"
            },
            {
              "internalType": "uint32",
              "name": "blkNum",
              "type": "uint32"
            },
            {
              "internalType": "bytes32",
              "name": "claimedBlkHash",
              "type": "bytes32"
            },
            {
              "internalType": "bytes32",
              "name": "prevHash",
              "type": "bytes32"
            },
            {
              "internalType": "uint32",
              "name": "numFinal",
              "type": "uint32"
            },
            {
              "internalType": "bytes32[7]",
              "name": "merkleProof",
              "type": "bytes32[7]"
            }
          ],
          "internalType": "struct IBlockChunks.BlockHashWitness",
          "name": "witness",
          "type": "tuple"
        }
      ],
      "name": "isBlockHashValid",
      "outputs": [
        {
          "internalType": "bool",
          "name": "",
          "type": "bool"
        }
      ],
      "stateMutability": "view",
      "type": "function"
    },
    {
      "inputs": [],
      "name": "owner",
      "outputs": [
        {
          "internalType": "address",
          "name": "",
          "type": "address"
        }
      ],
      "stateMutability": "view",
      "type": "function"
    },
    {
      "inputs": [],
      "name": "renounceOwnership",
      "outputs": [],
      "stateMutability": "nonpayable",
      "type": "function"
    },
    {
      "inputs": [
        {
          "internalType": "address",
          "name": "newOwner",
          "type": "address"
        }
      ],
      "name": "transferOwnership",
      "outputs": [],
      "stateMutability": "nonpayable",
      "type": "function"
    },
    {
      "inputs": [
        {
          "internalType": "uint64",
          "name": "_chainId",
          "type": "uint64"
        },
        {
          "internalType": "address",
          "name": "_provider",
          "type": "address"
        }
      ],
      "name": "updateAnchorBlockProvider",
      "outputs": [],
      "stateMutability": "nonpayable",
      "type": "function"
    },
    {
      "inputs": [
        {
          "internalType": "uint64",
          "name": "chainId",
          "type": "uint64"
        },
        {
          "internalType": "bytes32",
          "name": "nextRoot",
          "type": "bytes32"
        },
        {
          "internalType": "uint32",
          "name": "nextNumFinal",
          "type": "uint32"
        },
        {
          "internalType": "bytes",
          "name": "proofData",
          "type": "bytes"
        }
      ],
      "name": "updateOld",
      "outputs": [],
      "stateMutability": "nonpayable",
      "type": "function"
    },
    {
      "inputs": [
        {
          "internalType": "uint64",
          "name": "chainId",
          "type": "uint64"
        },
        {
          "internalType": "bytes",
          "name": "proofData",
          "type": "bytes"
        }
      ],
      "name": "updateRecent",
      "outputs": [],
      "stateMutability": "nonpayable",
      "type": "function"
    },
    {
      "inputs": [
        {
          "internalType": "uint64",
          "name": "_chainId",
          "type": "uint64"
        },
        {
          "internalType": "address",
          "name": "_verifierAddress",
          "type": "address"
        }
      ],
      "name": "updateVerifierAddress",
      "outputs": [],
      "stateMutability": "nonpayable",
      "type": "function"
    },
    {
      "inputs": [
        {
          "internalType": "uint64",
          "name": "",
          "type": "uint64"
        }
      ],
      "name": "verifierAddresses",
      "outputs": [
        {
          "internalType": "address",
          "name": "",
          "type": "address"
        }
      ],
      "stateMutability": "view",
      "type": "function"
    }
  ],
  "transactionHash": "0x78e95432f6c2b3810968412634e99377c2febb6cfc09f6e3afb1f213409674d2",
  "args": [],
  "numDeployments": 1,
  "solcInputHash": "7d436983b9105fa11c99b67b99048ba9",
  "bytecode": "0x6080806040523461005b5760008054336001600160a01b0319821681178355916001600160a01b03909116907f8be0079c531659141344cd1fd0a4f28419497f9722a3daafe3b4186f6b6457e09080a3610ea790816100618239f35b600080fdfe6040608081526004908136101561001557600080fd5b600091823560e01c9081631d8441a11461097b57816350a26d481461073157816352cfc56014610526578163544f73a41461039b5781635d727e971461035a578163715018a6146102fa5781638da5cb5b146102d4578163b551a1871461027d578163ec4ffc52146101c8578163f2fde38b146100df575063f5cec6af1461009c57600080fd5b346100db5760203660031901126100db576001600160a01b038160209367ffffffffffffffff6100ca610a2a565b168152600185522054169051908152f35b5080fd5b919050346101c45760203660031901126101c4578135916001600160a01b03908184168094036101c05784549182169261011a338514610a8a565b84156101575750506001600160a01b031916821783557f8be0079c531659141344cd1fd0a4f28419497f9722a3daafe3b4186f6b6457e08380a380f35b906020608492519162461bcd60e51b8352820152602660248201527f4f776e61626c653a206e6577206f776e657220697320746865207a65726f206160448201527f64647265737300000000000000000000000000000000000000000000000000006064820152fd5b8480fd5b8280fd5b5050346100db57806003193601126100db577ffd4bb2421fdcb098a8b68c19410f433a24b805b98f148eb28b7cc384b0a0e65f90610204610a2a565b61027761020f610a46565b926001600160a01b03610226818854163314610a8a565b67ffffffffffffffff8416875260016020528187209085166001600160a01b031982541617905551928392839092916001600160a01b0360209167ffffffffffffffff604085019616845216910152565b0390a180f35b5050346100db57806003193601126100db57610297610a2a565b6024359063ffffffff82168092036102d05792829167ffffffffffffffff60209516825260038552828220908252845220549051908152f35b8380fd5b5050346100db57816003193601126100db576001600160a01b0360209254169051908152f35b83346103575780600319360112610357578080546001600160a01b03196001600160a01b0382169161032d338414610a8a565b1682557f8be0079c531659141344cd1fd0a4f28419497f9722a3daafe3b4186f6b6457e08280a380f35b80fd5b5050346100db5760203660031901126100db576001600160a01b038160209367ffffffffffffffff61038a610a2a565b168152600285522054169051908152f35b839150346100db576101803660031901126100db5760443580156101c457607f6103c3610e36565b16936103d6856103d1610e36565b610ad5565b833567ffffffffffffffff81168103610522579061041b9167ffffffffffffffff16600052600360205263ffffffff6040600020911660005260205260406000205490565b9182156101c0579184925b60ff841660078110156104bc5787811c60011661048e5761044690610e49565b35835190602082019283528482015283815261046181610b99565b519020925b60ff80911690811461047b5760010192610426565b634e487b7160e01b865260118552602486fd5b61049790610e49565b359083519060208201928352848201528381526104b381610b99565b51902092610466565b5060843593508563ffffffff8516850361035757506105096105176020958551928391888301956064358791604493918352602083015263ffffffff60e01b9060e01b1660408201520190565b03601f198101835282610bcb565b519020149051908152f35b8580fd5b8383346100db5760803660031901126100db57610541610a2a565b60443563ffffffff9283821682036101c05767ffffffffffffffff60643581811161072d57859291906105779036908a01610a5c565b61058381839993610d9e565b8682607f819f979d969c94161561059990610b4d565b6105a39083610ad5565b16607f146105b090610b01565b16600101858111610719576102779896948b9a98969461068f610672957fa946b3d79b3150fec8e4d9ccc6100de98308a472f1ba57d23aeda162bb86e33e9f9e956106296106959661069a9867ffffffffffffffff16600052600360205263ffffffff6040600020911660005260205260406000205490565b8b5160208101928352602435604082015260e09390931b7fffffffff00000000000000000000000000000000000000000000000000000000166060840152919788906064820190565b0397610686601f19998a8101835282610bcb565b51902014610bed565b8b610c85565b610c39565b83516020810186815260408201889052600160e71b606083015260649283018252916106c69082610bcb565b5190209187168a526003602052828a209088168a5260205281892055519485948590949360809363ffffffff859467ffffffffffffffff60a0860199168552166020840152604083015260608201520152565b50634e487b7160e01b8c5260118d5260248cfd5b8680fd5b919050346101c457806003193601126101c45761074c610a2a565b67ffffffffffffffff926024358481116105225761076d9036908301610a5c565b91909361077a8386610d9e565b929593969163ffffffff9991999a8b8b1694608086018d8111610968578d1660001901908d8211610968578d169c8e95949392916107ba91168e14610b01565b6107c7607f8d1615610b4d565b8a169586855287602095600287526001600160a01b0391829120541615610925579085918f808a8c92526002855220541689519e8f9263f25b3f9960e01b8452830152815a91602492fa9b8c1561091b578d9c6108d0575b506102779897969594939261085d9261068f610695937fa946b3d79b3150fec8e4d9ccc6100de98308a472f1ba57d23aeda162bb86e33e9f14610bed565b835181810186815260208101889052600160e71b6040820152906108848160448401610509565b519020928b5260038152838b20918b525281892055519485948590949360809363ffffffff859467ffffffffffffffff60a0860199168552166020840152604083015260608201520152565b9198979695949380939c5082813d8311610914575b6108ef8183610bcb565b810103126109105790519a969795969495939492939192919061027761081f565b8c80fd5b503d6108e5565b87513d8f823e3d90fd5b885162461bcd60e51b8152808301879052601d60248201527f636861696e20616e63686f722070726f7669646572206e6f74207365740000006044820152606490fd5b634e487b7160e01b8f526011885260248ffd5b5050346100db57806003193601126100db577f4b8c49e37c813f3cbe140bc7b6a5662bd14e48311b5864c106ca3f9c4a2bc02b906109b7610a2a565b6102776109c2610a46565b926001600160a01b036109d9818854163314610a8a565b67ffffffffffffffff8416875260026020528187209085166001600160a01b031982541617905551928392839092916001600160a01b0360209167ffffffffffffffff604085019616845216910152565b6004359067ffffffffffffffff82168203610a4157565b600080fd5b602435906001600160a01b0382168203610a4157565b9181601f84011215610a415782359167ffffffffffffffff8311610a415760208381860195010111610a4157565b15610a9157565b606460405162461bcd60e51b815260206004820152602060248201527f4f776e61626c653a2063616c6c6572206973206e6f7420746865206f776e65726044820152fd5b63ffffffff9182169082160391908211610aeb57565b634e487b7160e01b600052601160045260246000fd5b15610b0857565b60405162461bcd60e51b815260206004820152600d60248201527f6e6565642031323820626c6b73000000000000000000000000000000000000006044820152606490fd5b15610b5457565b60405162461bcd60e51b815260206004820152601460248201527f6e6565642073746172742066726f6d20313238780000000000000000000000006044820152606490fd5b6060810190811067ffffffffffffffff821117610bb557604052565b634e487b7160e01b600052604160045260246000fd5b90601f8019910116810190811067ffffffffffffffff821117610bb557604052565b15610bf457565b60405162461bcd60e51b815260206004820152601360248201527f656e6448617368206e6f7420636f7272656374000000000000000000000000006044820152606490fd5b15610c4057565b60405162461bcd60e51b815260206004820152600f60248201527f70726f6f66206e6f742076616c696400000000000000000000000000000000006044820152606490fd5b67ffffffffffffffff1691600091838352602093600185526001600160a01b03908160408620541615610d595791839186938652600184526040862054169060446040518096819582946322bb937360e11b8452886004850152816024850152848401378181018301899052601f01601f191681010301915afa928315610d4e578293610d13575b50505090565b9080929350813d8311610d47575b610d2b8183610bcb565b810103126100db57519081151582036103575750388080610d0d565b503d610d21565b6040513d84823e3d90fd5b60405162461bcd60e51b815260048101879052601660248201527f636861696e207665726966696572206e6f7420736574000000000000000000006044820152606490fd5b9190918261016011610a415761018092808411610a4157608092610170830135841c610140840135851b1794826101a011610a41576101c090838211610a41576101b0850135861c90850135861b1794836101e011610a41578361020011610a41576101f0850135811c91850135901b17928261022011610a415761021c81013560e01c9261024011610a415761023c013560e01c90565b60243563ffffffff81168103610a415790565b6007811015610e5b5760051b60a40190565b634e487b7160e01b600052603260045260246000fdfea2646970667358221220c2b27c6772ffcf9fe0b911ee4c953435a7d4c4d50f686afda0aa76fca5dafcd864736f6c63430008120033",
  "devdoc": {
    "kind": "dev",
    "methods": {
      "owner()": {
        "details": "Returns the address of the current owner."
      },
      "renounceOwnership()": {
        "details": "Leaves the contract without owner. It will not be possible to call `onlyOwner` functions anymore. Can only be called by the current owner. NOTE: Renouncing ownership will leave the contract without an owner, thereby removing any functionality that is only available to the owner."
      },
      "transferOwnership(address)": {
        "details": "Transfers ownership of the contract to a new account (`newOwner`). Can only be called by the current owner."
      }
    },
    "version": 1
  },
  "userdoc": {
    "kind": "user",
    "methods": {},
    "version": 1
  },
  "storageLayout": {
    "storage": [
      {
        "astId": 7,
        "contract": "contracts/chunk-sync/BlockChunks.sol:BlockChunks",
        "label": "_owner",
        "offset": 0,
        "slot": "0",
        "type": "t_address"
      },
      {
        "astId": 57759,
        "contract": "contracts/chunk-sync/BlockChunks.sol:BlockChunks",
        "label": "verifierAddresses",
        "offset": 0,
        "slot": "1",
        "type": "t_mapping(t_uint64,t_address)"
      },
      {
        "astId": 57763,
        "contract": "contracts/chunk-sync/BlockChunks.sol:BlockChunks",
        "label": "anchorBlockProviders",
        "offset": 0,
        "slot": "2",
        "type": "t_mapping(t_uint64,t_address)"
      },
      {
        "astId": 57769,
        "contract": "contracts/chunk-sync/BlockChunks.sol:BlockChunks",
        "label": "_historicalRoots",
        "offset": 0,
        "slot": "3",
        "type": "t_mapping(t_uint64,t_mapping(t_uint32,t_bytes32))"
      }
    ],
    "types": {
      "t_address": {
        "encoding": "inplace",
        "label": "address",
        "numberOfBytes": "20"
      },
      "t_bytes32": {
        "encoding": "inplace",
        "label": "bytes32",
        "numberOfBytes": "32"
      },
      "t_mapping(t_uint32,t_bytes32)": {
        "encoding": "mapping",
        "key": "t_uint32",
        "label": "mapping(uint32 => bytes32)",
        "numberOfBytes": "32",
        "value": "t_bytes32"
      },
      "t_mapping(t_uint64,t_address)": {
        "encoding": "mapping",
        "key": "t_uint64",
        "label": "mapping(uint64 => address)",
        "numberOfBytes": "32",
        "value": "t_address"
      },
      "t_mapping(t_uint64,t_mapping(t_uint32,t_bytes32))": {
        "encoding": "mapping",
        "key": "t_uint64",
        "label": "mapping(uint64 => mapping(uint32 => bytes32))",
        "numberOfBytes": "32",
        "value": "t_mapping(t_uint32,t_bytes32)"
      },
      "t_uint32": {
        "encoding": "inplace",
        "label": "uint32",
        "numberOfBytes": "4"
      },
      "t_uint64": {
        "encoding": "inplace",
        "label": "uint64",
        "numberOfBytes": "8"
      }
    }
  }
}