{
  "address": "0x12a6c023Db6eC119Fe616cDcd138c65532035d1B",
  "abi": [
    {
      "inputs": [
        {
          "internalType": "string",
          "name": "name_",
          "type": "string"
        },
        {
          "internalType": "string",
          "name": "symbol_",
          "type": "string"
        },
        {
          "internalType": "address",
          "name": "_minter",
          "type": "address"
        }
      ],
      "stateMutability": "nonpayable",
      "type": "constructor"
    },
    {
      "anonymous": false,
      "inputs": [
        {
          "indexed": true,
          "internalType": "address",
          "name": "owner",
          "type": "address"
        },
        {
          "indexed": true,
          "internalType": "address",
          "name": "approved",
          "type": "address"
        },
        {
          "indexed": true,
          "internalType": "uint256",
          "name": "tokenId",
          "type": "uint256"
        }
      ],
      "name": "Approval",
      "type": "event"
    },
    {
      "anonymous": false,
      "inputs": [
        {
          "indexed": true,
          "internalType": "address",
          "name": "owner",
          "type": "address"
        },
        {
          "indexed": true,
          "internalType": "address",
          "name": "operator",
          "type": "address"
        },
        {
          "indexed": false,
          "internalType": "bool",
          "name": "approved",
          "type": "bool"
        }
      ],
      "name": "ApprovalForAll",
      "type": "event"
    },
    {
      "anonymous": false,
      "inputs": [
        {
          "indexed": true,
          "internalType": "address",
          "name": "previousOwner",
          "type": "address"
        },
        {
          "indexed": true,
          "internalType": "address",
          "name": "newOwner",
          "type": "address"
        }
      ],
      "name": "OwnershipTransferred",
      "type": "event"
    },
    {
      "anonymous": false,
      "inputs": [
        {
          "indexed": true,
          "internalType": "address",
          "name": "from",
          "type": "address"
        },
        {
          "indexed": true,
          "internalType": "address",
          "name": "to",
          "type": "address"
        },
        {
          "indexed": true,
          "internalType": "uint256",
          "name": "tokenId",
          "type": "uint256"
        }
      ],
      "name": "Transfer",
      "type": "event"
    },
    {
      "inputs": [
        {
          "internalType": "address",
          "name": "to",
          "type": "address"
        },
        {
          "internalType": "uint256",
          "name": "tokenId",
          "type": "uint256"
        }
      ],
      "name": "approve",
      "outputs": [],
      "stateMutability": "nonpayable",
      "type": "function"
    },
    {
      "inputs": [
        {
          "internalType": "address",
          "name": "owner",
          "type": "address"
        }
      ],
      "name": "balanceOf",
      "outputs": [
        {
          "internalType": "uint256",
          "name": "",
          "type": "uint256"
        }
      ],
      "stateMutability": "view",
      "type": "function"
    },
    {
      "inputs": [],
      "name": "baseTokenURI",
      "outputs": [
        {
          "internalType": "string",
          "name": "",
          "type": "string"
        }
      ],
      "stateMutability": "view",
      "type": "function"
    },
    {
      "inputs": [],
      "name": "count",
      "outputs": [
        {
          "internalType": "uint256",
          "name": "",
          "type": "uint256"
        }
      ],
      "stateMutability": "view",
      "type": "function"
    },
    {
      "inputs": [
        {
          "internalType": "uint256",
          "name": "tokenId",
          "type": "uint256"
        }
      ],
      "name": "getApproved",
      "outputs": [
        {
          "internalType": "address",
          "name": "",
          "type": "address"
        }
      ],
      "stateMutability": "view",
      "type": "function"
    },
    {
      "inputs": [
        {
          "internalType": "address",
          "name": "owner",
          "type": "address"
        },
        {
          "internalType": "address",
          "name": "operator",
          "type": "address"
        }
      ],
      "name": "isApprovedForAll",
      "outputs": [
        {
          "internalType": "bool",
          "name": "",
          "type": "bool"
        }
      ],
      "stateMutability": "view",
      "type": "function"
    },
    {
      "inputs": [
        {
          "internalType": "address",
          "name": "to",
          "type": "address"
        }
      ],
      "name": "mint",
      "outputs": [],
      "stateMutability": "nonpayable",
      "type": "function"
    },
    {
      "inputs": [],
      "name": "minter",
      "outputs": [
        {
          "internalType": "address",
          "name": "",
          "type": "address"
        }
      ],
      "stateMutability": "view",
      "type": "function"
    },
    {
      "inputs": [],
      "name": "name",
      "outputs": [
        {
          "internalType": "string",
          "name": "",
          "type": "string"
        }
      ],
      "stateMutability": "view",
      "type": "function"
    },
    {
      "inputs": [],
      "name": "owner",
      "outputs": [
        {
          "internalType": "address",
          "name": "",
          "type": "address"
        }
      ],
      "stateMutability": "view",
      "type": "function"
    },
    {
      "inputs": [
        {
          "internalType": "uint256",
          "name": "tokenId",
          "type": "uint256"
        }
      ],
      "name": "ownerOf",
      "outputs": [
        {
          "internalType": "address",
          "name": "",
          "type": "address"
        }
      ],
      "stateMutability": "view",
      "type": "function"
    },
    {
      "inputs": [],
      "name": "renounceOwnership",
      "outputs": [],
      "stateMutability": "nonpayable",
      "type": "function"
    },
    {
      "inputs": [
        {
          "internalType": "address",
          "name": "from",
          "type": "address"
        },
        {
          "internalType": "address",
          "name": "to",
          "type": "address"
        },
        {
          "internalType": "uint256",
          "name": "tokenId",
          "type": "uint256"
        }
      ],
      "name": "safeTransferFrom",
      "outputs": [],
      "stateMutability": "nonpayable",
      "type": "function"
    },
    {
      "inputs": [
        {
          "internalType": "address",
          "name": "from",
          "type": "address"
        },
        {
          "internalType": "address",
          "name": "to",
          "type": "address"
        },
        {
          "internalType": "uint256",
          "name": "tokenId",
          "type": "uint256"
        },
        {
          "internalType": "bytes",
          "name": "_data",
          "type": "bytes"
        }
      ],
      "name": "safeTransferFrom",
      "outputs": [],
      "stateMutability": "nonpayable",
      "type": "function"
    },
    {
      "inputs": [
        {
          "internalType": "address",
          "name": "operator",
          "type": "address"
        },
        {
          "internalType": "bool",
          "name": "approved",
          "type": "bool"
        }
      ],
      "name": "setApprovalForAll",
      "outputs": [],
      "stateMutability": "nonpayable",
      "type": "function"
    },
    {
      "inputs": [
        {
          "internalType": "string",
          "name": "_uri",
          "type": "string"
        }
      ],
      "name": "setBaseURI",
      "outputs": [],
      "stateMutability": "nonpayable",
      "type": "function"
    },
    {
      "inputs": [
        {
          "internalType": "address",
          "name": "_minter",
          "type": "address"
        }
      ],
      "name": "setMinter",
      "outputs": [],
      "stateMutability": "nonpayable",
      "type": "function"
    },
    {
      "inputs": [
        {
          "internalType": "bytes4",
          "name": "interfaceId",
          "type": "bytes4"
        }
      ],
      "name": "supportsInterface",
      "outputs": [
        {
          "internalType": "bool",
          "name": "",
          "type": "bool"
        }
      ],
      "stateMutability": "view",
      "type": "function"
    },
    {
      "inputs": [],
      "name": "symbol",
      "outputs": [
        {
          "internalType": "string",
          "name": "",
          "type": "string"
        }
      ],
      "stateMutability": "view",
      "type": "function"
    },
    {
      "inputs": [
        {
          "internalType": "uint256",
          "name": "tokenId",
          "type": "uint256"
        }
      ],
      "name": "tokenURI",
      "outputs": [
        {
          "internalType": "string",
          "name": "",
          "type": "string"
        }
      ],
      "stateMutability": "view",
      "type": "function"
    },
    {
      "inputs": [
        {
          "internalType": "address",
          "name": "from",
          "type": "address"
        },
        {
          "internalType": "address",
          "name": "to",
          "type": "address"
        },
        {
          "internalType": "uint256",
          "name": "tokenId",
          "type": "uint256"
        }
      ],
      "name": "transferFrom",
      "outputs": [],
      "stateMutability": "nonpayable",
      "type": "function"
    },
    {
      "inputs": [
        {
          "internalType": "address",
          "name": "newOwner",
          "type": "address"
        }
      ],
      "name": "transferOwnership",
      "outputs": [],
      "stateMutability": "nonpayable",
      "type": "function"
    }
  ],
  "transactionHash": "0x85422a9dacbf44db77bbe41adf494359e336beb3533070ec28865562a58db6ae",
  "args": [
    "Uniswap Stone-Tier Trader",
    "UniSTONE",
    "0x0e38FDbDebB447B76568a57A71165fC0a669C9F8"
  ],
  "numDeployments": 18,
  "solcInputHash": "88412c49ed27190cac976e00b987d18e",
  "bytecode": "0x6080604052346200038f5762002000803803806200001d8162000394565b92833981016060828203126200038f5781516001600160401b0391908281116200038f57816200004f918501620003ba565b602091828501518481116200038f576040916200006e918701620003ba565b9401516001600160a01b039485821694918590036200038f5782519082821162000379576000948554926001958685811c951680156200036e575b838610146200035a578190601f9586811162000307575b508390868311600114620002a357899262000297575b5050600019600383901b1c191690861b1786555b8151938411620002835784548581811c9116801562000278575b82821014620002645790818486959493116200020d575b5080928411600114620001a55750859262000199575b5050600019600383901b1c191690821b1790555b60075460018060a01b03199133838316176007557f8be0079c531659141344cd1fd0a4f28419497f9722a3daafe3b4186f6b6457e0604051953393169180a36008541617600855611bd390816200042d8239f35b01519050388062000131565b9190859450601f1984168588528388209388905b828210620001f35750508411620001d9575b505050811b01905562000145565b015160001960f88460031b161c19169055388080620001cb565b8484015186558897909501949384019390810190620001b9565b90919293508587528187208480870160051c8201928488106200025a575b9187968992969594930160051c01915b8281106200024b5750506200011b565b8981558796508891016200023b565b925081926200022b565b634e487b7160e01b87526022600452602487fd5b90607f169062000104565b634e487b7160e01b86526041600452602486fd5b015190503880620000d6565b898052848a208994509190601f1984168b5b87828210620002f05750508411620002d6575b505050811b018655620000ea565b015160001960f88460031b161c19169055388080620002c8565b8385015186558c97909501949384019301620002b5565b9091508880528389208680850160051c82019286861062000350575b918a91869594930160051c01915b82811062000341575050620000c0565b8b81558594508a910162000331565b9250819262000323565b634e487b7160e01b88526022600452602488fd5b94607f1694620000a9565b634e487b7160e01b600052604160045260246000fd5b600080fd5b6040519190601f01601f191682016001600160401b038111838210176200037957604052565b919080601f840112156200038f5782516001600160401b0381116200037957602090620003f0601f8201601f1916830162000394565b928184528282870101116200038f5760005b8181106200041857508260009394955001015290565b85810183015184820184015282016200040256fe6080604052600436101561001257600080fd5b60003560e01c806301ffc9a71461017757806306661abd1461017257806306fdde031461016d5780630754617214610168578063081812fc14610163578063095ea7b31461015e57806323b872dd1461015957806342842e0e1461015457806355f804b31461014f5780636352211e1461014a5780636a6278421461014557806370a0823114610140578063715018a61461013b5780638da5cb5b1461013657806395d89b4114610131578063a22cb4651461012c578063b88d4fde14610127578063c87b56dd14610122578063d547cfb71461011d578063e985e9c514610118578063f2fde38b146101135763fca3b5aa1461010e57600080fd5b610f23565b610e78565b610e16565b610dfa565b610c2b565b610bcb565b610ade565b610a39565b610a12565b6109b2565b6108fd565b610776565b610758565b61061e565b61054a565b610521565b6103f8565b61039d565b610376565b610293565b610219565b6101ab565b7fffffffff000000000000000000000000000000000000000000000000000000008116036101a657565b600080fd5b346101a65760203660031901126101a65760206004356101ca8161017c565b63ffffffff60e01b166380ac58cd60e01b8114908115610208575b81156101f7575b506040519015158152f35b6301ffc9a760e01b149050386101ec565b635b5e139f60e01b811491506101e5565b346101a65760003660031901126101a6576020600954604051908152f35b60005b83811061024a5750506000910152565b818101518382015260200161023a565b9060209161027381518092818552858086019101610237565b601f01601f1916010190565b90602061029092818152019061025a565b90565b346101a65760008060031936011261037357604051908080546102b581610c5e565b8085529160019180831690811561034957506001146102ef575b6102eb856102df818703826105a9565b6040519182918261027f565b0390f35b80809450527f290decd9548b62a8d60345a988386fc84ba6bc95484008f6362f93160ef3e5635b8284106103315750505081016020016102df826102eb6102cf565b80546020858701810191909152909301928101610316565b8695506102eb969350602092506102df94915060ff191682840152151560051b82010192936102cf565b80fd5b346101a65760003660031901126101a65760206001600160a01b0360085416604051908152f35b346101a65760203660031901126101a65760206103bb6004356110fb565b6001600160a01b0360405191168152f35b600435906001600160a01b03821682036101a657565b602435906001600160a01b03821682036101a657565b346101a65760403660031901126101a6576104116103cc565b60243561041d81610ffe565b916001600160a01b03808416809183161461049d5761044f9361044a913314908115610451575b50611089565b6115c7565b005b61049791506104909061047833916001600160a01b03166000526005602052604060002090565b906001600160a01b0316600052602052604060002090565b5460ff1690565b38610444565b60405162461bcd60e51b815260206004820152602160248201527f4552433732313a20617070726f76616c20746f2063757272656e74206f776e656044820152603960f91b6064820152608490fd5b60609060031901126101a6576001600160a01b039060043582811681036101a6579160243590811681036101a6579060443590565b346101a65761044f610532366104ec565b9161054561054084336112af565b611194565b61143e565b346101a65761044f61055b366104ec565b906040519261056984610588565b60008452611219565b634e487b7160e01b600052604160045260246000fd5b6020810190811067ffffffffffffffff8211176105a457604052565b610572565b90601f8019910116810190811067ffffffffffffffff8211176105a457604052565b67ffffffffffffffff81116105a457601f01601f191660200190565b9291926105f3826105cb565b9161060160405193846105a9565b8294818452818301116101a6578281602093846000960137010152565b346101a6576020806003193601126101a65767ffffffffffffffff6004358181116101a657366023820112156101a6576106629036906024816004013591016105e7565b916106796001600160a01b03600754163314610f6b565b82519182116105a45761069682610691600a54610c5e565b611b2c565b80601f83116001146106d1575081926000926106c6575b5050600019600383901b1c191660019190911b17600a55005b0151905038806106ad565b90601f19831693610704600a6000527fc65a7bb8d6351c1cf70c95a316cc6a92839c986682d98bc35f958f4883f9d2a890565b926000905b8682106107405750508360019510610727575b505050811b01600a55005b015160001960f88460031b161c1916905538808061071c565b80600185968294968601518155019501930190610709565b346101a65760203660031901126101a65760206103bb600435610ffe565b346101a65760203660031901126101a65761078f6103cc565b6001600160a01b0390816008541633036108b8576009549181169081156108745761083b906107e36107de6107da8660005260026020526001600160a01b0360406000205416151590565b1590565b611ae0565b610800816001600160a01b03166000526003602052604060002090565b61080a8154611422565b9055610820846000526002602052604060002090565b906001600160a01b03166001600160a01b0319825416179055565b60007fddf252ad1be2c89b69c2b068fc378daa952ba7f163c4a11628f55a4df523b3ef8180a461044f61086f6009546119ba565b600955565b606460405162461bcd60e51b815260206004820152602060248201527f4552433732313a206d696e7420746f20746865207a65726f20616464726573736044820152fd5b60405162461bcd60e51b815260206004820152601460248201527f63616c6c6572206973206e6f74206d696e7465720000000000000000000000006044820152606490fd5b346101a65760203660031901126101a6576001600160a01b0361091e6103cc565b1680156109475760005260036020526102eb604060002054604051918291829190602083019252565b60405162461bcd60e51b815260206004820152602a60248201527f4552433732313a2062616c616e636520717565727920666f7220746865207a6560448201527f726f2061646472657373000000000000000000000000000000000000000000006064820152608490fd5b346101a65760008060031936011261037357806007546001600160a01b03196001600160a01b038216916109e7338414610f6b565b166007557f8be0079c531659141344cd1fd0a4f28419497f9722a3daafe3b4186f6b6457e08280a380f35b346101a65760003660031901126101a65760206001600160a01b0360075416604051908152f35b346101a6576000806003193601126103735760405190806001805491610a5e83610c5e565b808652928281169081156103495750600114610a84576102eb856102df818703826105a9565b92508083527fb10e2d527612073b26eecdfd717e6a320cf44b4afac2b0732d9fcbe2b7fa0cf65b828410610ac65750505081016020016102df826102eb6102cf565b80546020858701810191909152909301928101610aab565b346101a65760403660031901126101a657610af76103cc565b60243580151581036101a6576001600160a01b03821691823314610b865781610b43610b54923360005260056020526040600020906001600160a01b0316600052602052604060002090565b9060ff801983541691151516179055565b604051901515815233907f17307eab39ab6107e8899845ad3d59bd9653f200f220920489ca2b5937696c3190602090a3005b60405162461bcd60e51b815260206004820152601960248201527f4552433732313a20617070726f766520746f2063616c6c6572000000000000006044820152606490fd5b346101a65760803660031901126101a657610be46103cc565b610bec6103e2565b6064359167ffffffffffffffff83116101a657366023840112156101a657610c2161044f9336906024816004013591016105e7565b9160443591611219565b346101a65760203660031901126101a6576102eb610c4a6004356117e9565b60405191829160208352602083019061025a565b90600182811c92168015610c8e575b6020831014610c7857565b634e487b7160e01b600052602260045260246000fd5b91607f1691610c6d565b60405190600082600a5491610cac83610c5e565b80835292600190818116908115610d345750600114610cd5575b50610cd3925003836105a9565b565b600a600090815291507fc65a7bb8d6351c1cf70c95a316cc6a92839c986682d98bc35f958f4883f9d2a85b848310610d195750610cd3935050810160200138610cc6565b81935090816020925483858a01015201910190918592610d00565b905060209250610cd394915060ff191682840152151560051b82010138610cc6565b9060405191826000825492610d6a84610c5e565b908184526001948581169081600014610dd75750600114610d94575b5050610cd3925003836105a9565b9093915060005260209081600020936000915b818310610dbf575050610cd393508201013880610d86565b85548884018501529485019487945091830191610da7565b915050610cd394506020925060ff191682840152151560051b8201013880610d86565b346101a65760003660031901126101a6576102eb610c4a610c98565b346101a65760403660031901126101a657602060ff610e6c610e366103cc565b6001600160a01b03610e466103e2565b9116600052600584526040600020906001600160a01b0316600052602052604060002090565b54166040519015158152f35b346101a65760203660031901126101a657610e916103cc565b6001600160a01b03610ea881600754163314610f6b565b811615610eb85761044f90610fb6565b60405162461bcd60e51b815260206004820152602660248201527f4f776e61626c653a206e6577206f776e657220697320746865207a65726f206160448201527f64647265737300000000000000000000000000000000000000000000000000006064820152608490fd5b346101a65760203660031901126101a657610f3c6103cc565b6001600160a01b0390610f5482600754163314610f6b565b166001600160a01b03196008541617600855600080f35b15610f7257565b606460405162461bcd60e51b815260206004820152602060248201527f4f776e61626c653a2063616c6c6572206973206e6f7420746865206f776e65726044820152fd5b600754906001600160a01b0380911691826001600160a01b0319821617600755167f8be0079c531659141344cd1fd0a4f28419497f9722a3daafe3b4186f6b6457e0600080a3565b60005260026020526001600160a01b0360406000205416801561101e5790565b60405162461bcd60e51b815260206004820152602960248201527f4552433732313a206f776e657220717565727920666f72206e6f6e657869737460448201527f656e7420746f6b656e00000000000000000000000000000000000000000000006064820152608490fd5b1561109057565b60405162461bcd60e51b815260206004820152603860248201527f4552433732313a20617070726f76652063616c6c6572206973206e6f74206f7760448201527f6e6572206e6f7220617070726f76656420666f7220616c6c00000000000000006064820152608490fd5b61111b8160005260026020526001600160a01b0360406000205416151590565b1561113a5760005260046020526001600160a01b036040600020541690565b60405162461bcd60e51b815260206004820152602c60248201527f4552433732313a20617070726f76656420717565727920666f72206e6f6e657860448201526b34b9ba32b73a103a37b5b2b760a11b6064820152608490fd5b1561119b57565b60405162461bcd60e51b815260206004820152603160248201527f4552433732313a207472616e736665722063616c6c6572206973206e6f74206f60448201527f776e6572206e6f7220617070726f7665640000000000000000000000000000006064820152608490fd5b6040519061121382610588565b60008252565b9061123d93929161122d61054084336112af565b61123883838361143e565b6116a5565b1561124457565b60405162461bcd60e51b815260206004820152603260248201527f4552433732313a207472616e7366657220746f206e6f6e20455243373231526560448201527f63656976657220696d706c656d656e74657200000000000000000000000000006064820152608490fd5b6112cf8260005260026020526001600160a01b0360406000205416151590565b15611346576112dd82610ffe565b6001600160a01b0380831690808316821494851561132e575b505050821561130457505090565b60ff925090610478611329926001600160a01b03166000526005602052604060002090565b541690565b61133b91929395506110fb565b1614913880806112f6565b60405162461bcd60e51b815260206004820152602c60248201527f4552433732313a206f70657261746f7220717565727920666f72206e6f6e657860448201526b34b9ba32b73a103a37b5b2b760a11b6064820152608490fd5b156113a757565b60405162461bcd60e51b8152602060048201526024808201527f4552433732313a207472616e7366657220746f20746865207a65726f206164646044820152637265737360e01b6064820152608490fd5b634e487b7160e01b600052601160045260246000fd5b60001981019190821161141d57565b6113f8565b906001820180921161141d57565b603001908160301161141d57565b9061144883610ffe565b6001600160a01b039182918285169384911603611506576114966114df928216946114748615156113a0565b61147d87611571565b6001600160a01b03166000526003602052604060002090565b6114a0815461140e565b90556114bf816001600160a01b03166000526003602052604060002090565b6114c98154611422565b9055610820856000526002602052604060002090565b7fddf252ad1be2c89b69c2b068fc378daa952ba7f163c4a11628f55a4df523b3ef600080a4565b60405162461bcd60e51b815260206004820152602560248201527f4552433732313a207472616e736665722066726f6d20696e636f72726563742060448201527f6f776e65720000000000000000000000000000000000000000000000000000006064820152608490fd5b80600052600460205260406000206001600160a01b0319815416905560006001600160a01b036115a083610ffe565b167f8c5be1e5ebec7d5bd14f71427d1e84f3dd0314c0f7b2291e5b200ac8c7c3b9258280a4565b8160005260046020526115f4816040600020906001600160a01b03166001600160a01b0319825416179055565b6001600160a01b038061160684610ffe565b169116907f8c5be1e5ebec7d5bd14f71427d1e84f3dd0314c0f7b2291e5b200ac8c7c3b925600080a4565b908160209103126101a657516102908161017c565b909261029094936080936001600160a01b0380921684521660208301526040820152816060820152019061025a565b3d156116a0573d90611686826105cb565b9161169460405193846105a9565b82523d6000602084013e565b606090565b92909190823b156117c9576116e09260209260006001600160a01b03604051809781968295630a85bd0160e11b9b8c85523360048601611646565b0393165af160009181611799575b50611773576116fb611675565b8051908161176e5760405162461bcd60e51b815260206004820152603260248201527f4552433732313a207472616e7366657220746f206e6f6e20455243373231526560448201527f63656976657220696d706c656d656e74657200000000000000000000000000006064820152608490fd5b602001fd5b7fffffffff00000000000000000000000000000000000000000000000000000000161490565b6117bb91925060203d81116117c2575b6117b381836105a9565b810190611631565b90386116ee565b503d6117a9565b50505050600190565b906117e560209282815194859201610237565b0190565b6118098160005260026020526001600160a01b0360406000205416151590565b156118805761182a611825826000526006602052604060002090565b610d56565b90611833610c98565b80511561187b57825161184b575061029091506118eb565b610290915061186d6118679360405194859360208501906117d2565b906117d2565b03601f1981018352826105a9565b505090565b60405162461bcd60e51b815260206004820152603160248201527f45524337323155524953746f726167653a2055524920717565727920666f722060448201527f6e6f6e6578697374656e7420746f6b656e0000000000000000000000000000006064820152608490fd5b61190b8160005260026020526001600160a01b0360406000205416151590565b1561194f57611918610c98565b805190919015611945576118679161186d611935610290936119f0565b60405194859360208501906117d2565b5050610290611206565b60405162461bcd60e51b815260206004820152602f60248201527f4552433732314d657461646174613a2055524920717565727920666f72206e6f60448201527f6e6578697374656e7420746f6b656e00000000000000000000000000000000006064820152608490fd5b600019811461141d5760010190565b9081518110156119da570160200190565b634e487b7160e01b600052603260045260246000fd5b8015611ab157806000908282935b611a9d5750611a0c836105cb565b92611a1a60405194856105a9565b80845281601f19611a2a836105cb565b013660208701375b611a3c5750505090565b611a459061140e565b90600a90611a88611a60611a5a848406611430565b60ff1690565b60f81b7fff000000000000000000000000000000000000000000000000000000000000001690565b841a611a9484876119c9565b53049081611a32565b92611aa9600a916119ba565b9304806119fe565b506040516040810181811067ffffffffffffffff8211176105a45760405260018152600360fc1b602082015290565b15611ae757565b60405162461bcd60e51b815260206004820152601c60248201527f4552433732313a20746f6b656e20616c7265616479206d696e746564000000006044820152606490fd5b601f8111611b38575050565b600090600a82527fc65a7bb8d6351c1cf70c95a316cc6a92839c986682d98bc35f958f4883f9d2a8906020601f850160051c83019410611b93575b601f0160051c01915b828110611b8857505050565b818155600101611b7c565b9092508290611b7356fea264697066735822122080f9ec3cc9cdb4d4bcad00781ed116562a1c36998f4fc2bc3d37bb920ddae43164736f6c63430008120033",
  "devdoc": {
    "events": {
      "Approval(address,address,uint256)": {
        "details": "Emitted when `owner` enables `approved` to manage the `tokenId` token."
      },
      "ApprovalForAll(address,address,bool)": {
        "details": "Emitted when `owner` enables or disables (`approved`) `operator` to manage all of its assets."
      },
      "Transfer(address,address,uint256)": {
        "details": "Emitted when `tokenId` token is transferred from `from` to `to`."
      }
    },
    "kind": "dev",
    "methods": {
      "approve(address,uint256)": {
        "details": "See {IERC721-approve}."
      },
      "balanceOf(address)": {
        "details": "See {IERC721-balanceOf}."
      },
      "getApproved(uint256)": {
        "details": "See {IERC721-getApproved}."
      },
      "isApprovedForAll(address,address)": {
        "details": "See {IERC721-isApprovedForAll}."
      },
      "name()": {
        "details": "See {IERC721Metadata-name}."
      },
      "owner()": {
        "details": "Returns the address of the current owner."
      },
      "ownerOf(uint256)": {
        "details": "See {IERC721-ownerOf}."
      },
      "renounceOwnership()": {
        "details": "Leaves the contract without owner. It will not be possible to call `onlyOwner` functions anymore. Can only be called by the current owner. NOTE: Renouncing ownership will leave the contract without an owner, thereby removing any functionality that is only available to the owner."
      },
      "safeTransferFrom(address,address,uint256)": {
        "details": "See {IERC721-safeTransferFrom}."
      },
      "safeTransferFrom(address,address,uint256,bytes)": {
        "details": "See {IERC721-safeTransferFrom}."
      },
      "setApprovalForAll(address,bool)": {
        "details": "See {IERC721-setApprovalForAll}."
      },
      "supportsInterface(bytes4)": {
        "details": "See {IERC165-supportsInterface}."
      },
      "symbol()": {
        "details": "See {IERC721Metadata-symbol}."
      },
      "tokenURI(uint256)": {
        "details": "See {IERC721Metadata-tokenURI}."
      },
      "transferFrom(address,address,uint256)": {
        "details": "See {IERC721-transferFrom}."
      },
      "transferOwnership(address)": {
        "details": "Transfers ownership of the contract to a new account (`newOwner`). Can only be called by the current owner."
      }
    },
    "version": 1
  },
  "userdoc": {
    "kind": "user",
    "methods": {},
    "version": 1
  },
  "storageLayout": {
    "storage": [
      {
        "astId": 1129,
        "contract": "contracts/apps/uniswap-volume/BrevisUniNFT.sol:BrevisUniNFT",
        "label": "_name",
        "offset": 0,
        "slot": "0",
        "type": "t_string_storage"
      },
      {
        "astId": 1131,
        "contract": "contracts/apps/uniswap-volume/BrevisUniNFT.sol:BrevisUniNFT",
        "label": "_symbol",
        "offset": 0,
        "slot": "1",
        "type": "t_string_storage"
      },
      {
        "astId": 1135,
        "contract": "contracts/apps/uniswap-volume/BrevisUniNFT.sol:BrevisUniNFT",
        "label": "_owners",
        "offset": 0,
        "slot": "2",
        "type": "t_mapping(t_uint256,t_address)"
      },
      {
        "astId": 1139,
        "contract": "contracts/apps/uniswap-volume/BrevisUniNFT.sol:BrevisUniNFT",
        "label": "_balances",
        "offset": 0,
        "slot": "3",
        "type": "t_mapping(t_address,t_uint256)"
      },
      {
        "astId": 1143,
        "contract": "contracts/apps/uniswap-volume/BrevisUniNFT.sol:BrevisUniNFT",
        "label": "_tokenApprovals",
        "offset": 0,
        "slot": "4",
        "type": "t_mapping(t_uint256,t_address)"
      },
      {
        "astId": 1149,
        "contract": "contracts/apps/uniswap-volume/BrevisUniNFT.sol:BrevisUniNFT",
        "label": "_operatorApprovals",
        "offset": 0,
        "slot": "5",
        "type": "t_mapping(t_address,t_mapping(t_address,t_bool))"
      },
      {
        "astId": 2116,
        "contract": "contracts/apps/uniswap-volume/BrevisUniNFT.sol:BrevisUniNFT",
        "label": "_tokenURIs",
        "offset": 0,
        "slot": "6",
        "type": "t_mapping(t_uint256,t_string_storage)"
      },
      {
        "astId": 7,
        "contract": "contracts/apps/uniswap-volume/BrevisUniNFT.sol:BrevisUniNFT",
        "label": "_owner",
        "offset": 0,
        "slot": "7",
        "type": "t_address"
      },
      {
        "astId": 3490,
        "contract": "contracts/apps/uniswap-volume/BrevisUniNFT.sol:BrevisUniNFT",
        "label": "minter",
        "offset": 0,
        "slot": "8",
        "type": "t_address"
      },
      {
        "astId": 3492,
        "contract": "contracts/apps/uniswap-volume/BrevisUniNFT.sol:BrevisUniNFT",
        "label": "count",
        "offset": 0,
        "slot": "9",
        "type": "t_uint256"
      },
      {
        "astId": 3494,
        "contract": "contracts/apps/uniswap-volume/BrevisUniNFT.sol:BrevisUniNFT",
        "label": "baseTokenURI",
        "offset": 0,
        "slot": "10",
        "type": "t_string_storage"
      }
    ],
    "types": {
      "t_address": {
        "encoding": "inplace",
        "label": "address",
        "numberOfBytes": "20"
      },
      "t_bool": {
        "encoding": "inplace",
        "label": "bool",
        "numberOfBytes": "1"
      },
      "t_mapping(t_address,t_bool)": {
        "encoding": "mapping",
        "key": "t_address",
        "label": "mapping(address => bool)",
        "numberOfBytes": "32",
        "value": "t_bool"
      },
      "t_mapping(t_address,t_mapping(t_address,t_bool))": {
        "encoding": "mapping",
        "key": "t_address",
        "label": "mapping(address => mapping(address => bool))",
        "numberOfBytes": "32",
        "value": "t_mapping(t_address,t_bool)"
      },
      "t_mapping(t_address,t_uint256)": {
        "encoding": "mapping",
        "key": "t_address",
        "label": "mapping(address => uint256)",
        "numberOfBytes": "32",
        "value": "t_uint256"
      },
      "t_mapping(t_uint256,t_address)": {
        "encoding": "mapping",
        "key": "t_uint256",
        "label": "mapping(uint256 => address)",
        "numberOfBytes": "32",
        "value": "t_address"
      },
      "t_mapping(t_uint256,t_string_storage)": {
        "encoding": "mapping",
        "key": "t_uint256",
        "label": "mapping(uint256 => string)",
        "numberOfBytes": "32",
        "value": "t_string_storage"
      },
      "t_string_storage": {
        "encoding": "bytes",
        "label": "string",
        "numberOfBytes": "32"
      },
      "t_uint256": {
        "encoding": "inplace",
        "label": "uint256",
        "numberOfBytes": "32"
      }
    }
  }
}