{
  "address": "0xe2ecc51BFF4C4E459a29E609902538D79270c417",
  "abi": [
    {
      "inputs": [
        {
          "internalType": "uint256[2]",
          "name": "a",
          "type": "uint256[2]"
        },
        {
          "internalType": "uint256[2][2]",
          "name": "b",
          "type": "uint256[2][2]"
        },
        {
          "internalType": "uint256[2]",
          "name": "c",
          "type": "uint256[2]"
        },
        {
          "internalType": "uint256[2]",
          "name": "commit",
          "type": "uint256[2]"
        },
        {
          "internalType": "uint256[8]",
          "name": "input",
          "type": "uint256[8]"
        }
      ],
      "name": "verifyProof",
      "outputs": [
        {
          "internalType": "bool",
          "name": "r",
          "type": "bool"
        }
      ],
      "stateMutability": "view",
      "type": "function"
    },
    {
      "inputs": [
        {
          "internalType": "bytes",
          "name": "proofData",
          "type": "bytes"
        }
      ],
      "name": "verifyRaw",
      "outputs": [
        {
          "internalType": "bool",
          "name": "",
          "type": "bool"
        }
      ],
      "stateMutability": "view",
      "type": "function"
    }
  ],
  "transactionHash": "0xd577c0201b738765cd2fa5c55705668c5981c70fe172444f292652c79bbd6a81",
  "args": [],
  "numDeployments": 1,
  "solcInputHash": "11e3a24ebfef09159002fde56630c3f4",
  "bytecode": "0x60808060405234610016576115d4908161001c8239f35b600080fdfe604060808152600436101561001357600080fd5b600090813560e01c9182630714287e1461003d57505063457726e61461003857600080fd5b61029a565b346100db576102403660031901126100db576100583661015a565b9036606312156100db5761006a6100f4565b908160c4913683116100db57506044905b8282106100c2576100be866100ad87876100943661019c565b61009d366101da565b916100a73661025a565b93610706565b905190151581529081906020820190565b0390f35b602086916100d0368561021a565b81520191019061007b565b80fd5b634e487b7160e01b600052604160045260246000fd5b604051906040820182811067ffffffffffffffff82111761011457604052565b6100de565b604051906080820182811067ffffffffffffffff82111761011457604052565b60405190610100820182811067ffffffffffffffff82111761011457604052565b80602312156101975761016b6100f4565b90816044918211610197576004905b8282106101875750505090565b813581526020918201910161017a565b600080fd5b8060e31215610197576101ad6100f4565b90816101049182116101975760c4905b8282106101ca5750505090565b81358152602091820191016101bd565b806101231215610197576101ec6100f4565b908161014491821161019757610104905b82821061020a5750505090565b81358152602091820191016101fd565b9080601f830112156101975761022e6100f4565b80926040810192831161019757905b82821061024a5750505090565b813581526020918201910161023d565b8061016312156101975761026c610139565b908161024491821161019757610144905b82821061028a5750505090565b813581526020918201910161027d565b346101975760203660031901126101975767ffffffffffffffff6004358181116101975736602382011215610197578060040135918211610197573660248383010111610197576100be9160246102f19201611046565b60405190151581529081906020820190565b61030b610119565b906080368337565b604051906060820182811067ffffffffffffffff821117610114576040526060368337565b6103406100f4565b906040368337565b610350610139565b90610100368337565b604051906020820182811067ffffffffffffffff821117610114576040526020368337565b6103866100f4565b9061038f6100f4565b6040368237825261039e6100f4565b60403682376020830152565b6103b2610119565b906103bb6100f4565b60009081815281602082015283526103d161037e565b60208401526103de6100f4565b81815281602082015260408401526103f46100f4565b9080825260208201526060830152565b634e487b7160e01b600052603260045260246000fd5b1561042157565b60405162461bcd60e51b815260206004820152601760248201527f76657269666965722d61582d6774652d7072696d652d710000000000000000006044820152606490fd5b1561046d57565b60405162461bcd60e51b815260206004820152601760248201527f76657269666965722d61592d6774652d7072696d652d710000000000000000006044820152606490fd5b156104b957565b60405162461bcd60e51b815260206004820152601860248201527f76657269666965722d6258302d6774652d7072696d652d7100000000000000006044820152606490fd5b1561050557565b60405162461bcd60e51b815260206004820152601860248201527f76657269666965722d6259302d6774652d7072696d652d7100000000000000006044820152606490fd5b1561055157565b60405162461bcd60e51b815260206004820152601860248201527f76657269666965722d6258312d6774652d7072696d652d7100000000000000006044820152606490fd5b1561059d57565b60405162461bcd60e51b815260206004820152601860248201527f76657269666965722d6259312d6774652d7072696d652d7100000000000000006044820152606490fd5b156105e957565b60405162461bcd60e51b815260206004820152601760248201527f76657269666965722d63582d6774652d7072696d652d710000000000000000006044820152606490fd5b1561063557565b60405162461bcd60e51b815260206004820152601760248201527f76657269666965722d63592d6774652d7072696d652d710000000000000000006044820152606490fd5b634e487b7160e01b600052601160045260246000fd5b600019811461069f5760010190565b61067a565b9060088110156106b55760051b0190565b610404565b156106c157565b60405162461bcd60e51b815260206004820152601f60248201527f76657269666965722d6774652d736e61726b2d7363616c61722d6669656c64006044820152606490fd5b949394929190926107156103aa565b81516020809301516107256100f4565b9182528382015281526107366100f4565b948051518652610747815160200190565b5183870152610766836107586100f4565b920180515183525160200190565b51838201526107736100f4565b9586528286015281810194855281835193015161078e6100f4565b93845282840152604081019283528351938281019485516107ad6100f4565b91825284820152606083019081526108617f30644e72e131a029b85045b68181585d97816a916871ca8d3c208c16d87cfd476107ec818651511061041a565b6107fb81878751015110610466565b610809818a515151106104b2565b61081981878b51015151106104fe565b610830816108298b515160200190565b511061054a565b61084981610842888c51015160200190565b5110610596565b61085681885151106105e2565b85875101511061062e565b60005b60088110610bac575090610b85979893929161087e610c36565b966108876100f4565b9260008452610b4c848781019860008a5281996108a2610303565b918a60e06108ae610313565b927f0fc7636dabbf9e89321245390020c13b9c3612e3899363a8ee396e82854b52dd6108d86100f4565b95600087526000858801527f2dec3e3d4f3a37c182ac71510c3ea46ef31ca1f54a695599fd4297b03efad67d8952527f2a85e1651be30eebe1e6cddb570ca01e2704bb9bff6b89db9fe1f6814216434b84527f0b186084672fe960fc86b780f499a0cb476882db7490550eeff76c6da9aa32458385017f176057b0955cba774e8c22bfa4f57bb980f8c9ed4a1fe6052b45a96d5848a18a8152825194604087019586526109878a8a8a8a6111d0565b7f20387acc48da4453aa8bee68dcc27a58227413a065d8d82b6e033897dd9262a587527f0e13210162445a700a4256c30a349344d898db31a57530eff4f79641b79f087a825283015185526109de898989896111d0565b7f09c7986a169c2afb4a661ddf1ba9564641337930b3d28b00694dfd705d87671986527f24d61890796772e937cdbcf488adfd6384438edd3408f4160e2532da08059f1b815260408301518552610a37898989896111d0565b7f2e53b1787daefc522ec9215553808a40142e1b7a73eeab1633cafee67f4a329d86527f220c5cbb4af6fc0c8a3962da1f807f3814225d31e37c69f4af97340416a90568815260608301518552610a90898989896111d0565b600086526000815260808301518552610aab898989896111d0565b600086526000815260a08301518552610ac6898989896111d0565b7f2272e25e053c76bad1d15db6172753bf4e143ec097c6146f2396dc6903ee48dc86527f0498ccd0db136b32625d546a22cba2f1dc40025afab97c9815c8f538103d2a0c815260c08301518552610b1f898989896111d0565b7f0ba7d09f5d29f871daf46244fba0b9b31db0781e5646d4494c1c0d79219bd75a865252015190526111d0565b511590811591610ba1575b50610b88575b5050610b699051611221565b945190845190850151916060604087015195519601519661143f565b90565b51919350610b6991610b99916112f7565b929038610b5d565b905051151538610b57565b80610be57f30644e72e131a029b85045b68181585d2833e84879b9709143e1f593f0000001610bde610bea948e6106a4565b51106106ba565b610690565b610864565b610bf7610119565b90610c006100f4565b60008152600060208201528252610c1561037e565b6020830152610c2261037e565b6040830152610c2f61037e565b6060830152565b610c3e610bef565b90610c476100f4565b7f083fd6b6ecac2db22c286c38e50a8d85451eac4a4a942a923a130abbe9d37f9c81526020907e92bfae1fa4ee7cb337130269010cae02948079af63f917516ff3b8dff542e5828201528352610c9b6100f4565b7f03690d154027be097bc6a5470440063fdd30ee4bf0cd9a7664bef8dfc014026181527f079c948d515add0693a41673862f724e1724aab06a253b4c6e8deb875a0e067982820152610ceb6100f4565b7f0136900d5294e88fc8580ccfdaeca8949c79cfef25b6984ba3ab344f9c9b526581527f2bf62ef7c97a6a5a96b8213e7514dd818db12a0786709ec5cec2a3616c572d8b83820152610d3b6100f4565b9182528282015281840152610d4e6100f4565b7f1a4aa0801dafe442eedae28c1faf8fbe1db85961ca7ec38008963d595e40bbba81527f2c10b6d4c0faf21e25a81228d5ff778d05194e17a5d6b83af84e5dd03a2413cd82820152610d9e6100f4565b7f24df5d34f8971e8bf622948b46a4bed60ee9f50d0e78316a1f4e262ca3a71a8a81527f1066370e9928b6a2aef1365e5097aa45a8454ed4af7342cd1ca83614279645e183820152610dee6100f4565b918252828201526040840152610e026100f4565b907f248473a5a009d4287c07734b174863842b6678aea052ae936351ee2ba2f629c482527f1520b1a49955cf7ede2a67797bf18e286749e8c1e552966f92117ea4a566b33581830152610e536100f4565b907f192832a80b93e14a92b5e8c27bb6e0b57f15d3e2cdde9847467465e889a28ef382527f24f58d1e43dc8596986d42b6f7d0b6bd2811bd617ec22e7a60acac098fba5d6d81830152610ea46100f4565b9283528201526060830152565b906020116101975790602090565b906040116101975760200190602090565b906060116101975760400190602090565b906080116101975760600190602090565b9060a0116101975760800190602090565b9060c0116101975760a00190602090565b9060e0116101975760c00190602090565b90610100116101975760e00190602090565b9061012011610197576101000190602090565b9061014011610197576101200190602090565b9061016011610197576101400190602090565b9061018011610197576101600190602090565b906101a011610197576101800190602090565b906101c011610197576101a00190602090565b906101e011610197576101c00190602090565b9061020011610197576101e00190602090565b9061022011610197576102000190602090565b9061024011610197576102200190602090565b359060208110611003575090565b6000199060200360031b1b1690565b61101a6100f4565b9060005b60409081811015611042576020916110346100f4565b90368237818501520161101e565b5050565b610b8591611052610338565b61106561105f8385610eb1565b90610ff5565b815261107461105f8385610ebf565b6020820152611081611012565b61108e61105f8486610ed0565b81515261109e61105f8486610ee1565b8151602001526110b161105f8486610ef2565b60208201908151526110d16110c961105f8688610f03565b915160200190565b526110da610338565b916110e861105f8587610f14565b83526110f761105f8587610f25565b60208401526111b561105f61110a610338565b9561111861105f828a610f37565b875261112761105f828a610f4a565b6020880152611134610348565b9761114261105f8383610f5d565b895261115161105f8383610f70565b60208a015261116361105f8383610f83565b60408a015261117561105f8383610f96565b60608a015261118761105f8383610fa9565b60808a015261119961105f8383610fbc565b60a08a01526111ab61105f8383610fcf565b60c08a0152610fe2565b60e0860152610706565b9060048110156106b55760051b0190565b90929160608460806107cf19946007865a01fa1561121f57600660c0926020606096865185528187015182860152805160408601520151868401525a01fa801561121f5761121d906112ab565b565bfe5b6000602061122d6100f4565b828152015280519081158061129f575b1561125a57505061124c6100f4565b600081526000602082015290565b602001517f30644e72e131a029b85045b68181585d97816a916871ca8d3c208c16d87cfd4790819006810390811161069f576112946100f4565b918252602082015290565b5060208101511561123d565b156112b257565b60405162461bcd60e51b815260206004820152601260248201527f70616972696e672d6164642d6661696c656400000000000000000000000000006044820152606490fd5b60609092919260c06113076100f4565b9160008352600060208401526020839681611320610119565b936080368637805185520151828401528051604084015201518482015260066107cf195a01fa801561121f5761121d906112ab565b60405190610320820182811067ffffffffffffffff8211176101145760405260188252610300366020840137565b9060068202918083046006149015171561069f57565b906001820180921161069f57565b906002820180921161069f57565b906003820180921161069f57565b906004820180921161069f57565b906005820180921161069f57565b80518210156106b55760209160051b010190565b156113fa57565b60405162461bcd60e51b815260206004820152601560248201527f70616972696e672d6f70636f64652d6661696c656400000000000000000000006044820152606490fd5b949195969290939661144f610119565b9586526020978897888801526040870152606086015261146d610119565b9384528584015260408301526060820152611486611355565b9160005b600481106114c2575050506103006114a0610359565b9384920160086107cf195a01fa801561121f576114bc906113f3565b51151590565b61159491929394506114d381611383565b6114dd82856111bf565b51516114e982886113df565b52866114f583866111bf565b51015161150a61150483611399565b886113df565b5261151582866111bf565b515151611524611504836113a7565b5261153a61153283876111bf565b515160200190565b51611547611504836113b5565b528661155383876111bf565b51015151611563611504836113c3565b5261158e61158861158189611578868a6111bf565b51015160200190565b51926113d1565b876113df565b52610690565b908493929161148a56fea26469706673582212201972332e3dc1173eab50054f20d4f34489a99e10ed4c46fdd638dbc0c627737764736f6c63430008120033",
  "devdoc": {
    "kind": "dev",
    "methods": {},
    "version": 1
  },
  "userdoc": {
    "kind": "user",
    "methods": {},
    "version": 1
  },
  "storageLayout": {
    "storage": [],
    "types": null
  }
}