{
  "address": "0x4e6a4103e9Fe67780C94B28f4Ba4B2e0E78554BF",
  "abi": [
    {
      "inputs": [
        {
          "internalType": "uint256[2]",
          "name": "a",
          "type": "uint256[2]"
        },
        {
          "internalType": "uint256[2][2]",
          "name": "b",
          "type": "uint256[2][2]"
        },
        {
          "internalType": "uint256[2]",
          "name": "c",
          "type": "uint256[2]"
        },
        {
          "internalType": "uint256[2]",
          "name": "commit",
          "type": "uint256[2]"
        },
        {
          "internalType": "uint256[9]",
          "name": "input",
          "type": "uint256[9]"
        }
      ],
      "name": "verifyProof",
      "outputs": [
        {
          "internalType": "bool",
          "name": "r",
          "type": "bool"
        }
      ],
      "stateMutability": "view",
      "type": "function"
    },
    {
      "inputs": [
        {
          "internalType": "bytes",
          "name": "proofData",
          "type": "bytes"
        }
      ],
      "name": "verifyRaw",
      "outputs": [
        {
          "internalType": "bool",
          "name": "",
          "type": "bool"
        }
      ],
      "stateMutability": "view",
      "type": "function"
    }
  ],
  "transactionHash": "0xa67a11a65bc332f1f3c153be27c7385ca168239f7129a2b4b003045e8f4ec427",
  "args": [],
  "numDeployments": 3,
  "solcInputHash": "70caec337e724b03b9d7be4a53423265",
  "bytecode": "0x60808060405234610016576116b9908161001c8239f35b600080fdfe6080604052600436101561001257600080fd5b6000803560e01c908163457726e61461003a57506397ac154d1461003557600080fd5b610267565b346100a85760203660031901126100a85760043567ffffffffffffffff918282116100a857366023830112156100a85781600401359283116100a85736602484840101116100a8576100a4610092846024850161117a565b60405190151581529081906020820190565b0390f35b80fd5b634e487b7160e01b600052604160045260246000fd5b604051906040820182811067ffffffffffffffff8211176100e157604052565b6100ab565b604051906080820182811067ffffffffffffffff8211176100e157604052565b60405190610120820182811067ffffffffffffffff8211176100e157604052565b8060231215610164576101386100c1565b90816044918211610164576004905b8282106101545750505090565b8135815260209182019101610147565b600080fd5b8060e312156101645761017a6100c1565b90816101049182116101645760c4905b8282106101975750505090565b813581526020918201910161018a565b806101231215610164576101b96100c1565b908161014491821161016457610104905b8282106101d75750505090565b81358152602091820191016101ca565b9080601f83011215610164576101fb6100c1565b80926040810192831161016457905b8282106102175750505090565b813581526020918201910161020a565b80610163121561016457610239610106565b908161026491821161016457610144905b8282106102575750505090565b813581526020918201910161024a565b34610164576102603660031901126101645761028236610127565b3660631215610164576102936100c1565b60c481368211610164576044905b8282106102d2576100a461009286866102b936610169565b6102c2366101a7565b916102cc36610227565b936106ef565b60206040916102e136856101e7565b8152019101906102a1565b6102f46100e6565b906080368337565b604051906060820182811067ffffffffffffffff8211176100e1576040526060368337565b6103296100c1565b906040368337565b610339610106565b90610120368337565b604051906020820182811067ffffffffffffffff8211176100e1576040526020368337565b61036f6100c1565b906103786100c1565b604036823782526103876100c1565b60403682376020830152565b61039b6100e6565b906103a46100c1565b60009081815281602082015283526103ba610367565b60208401526103c76100c1565b81815281602082015260408401526103dd6100c1565b9080825260208201526060830152565b634e487b7160e01b600052603260045260246000fd5b1561040a57565b60405162461bcd60e51b815260206004820152601760248201527f76657269666965722d61582d6774652d7072696d652d710000000000000000006044820152606490fd5b1561045657565b60405162461bcd60e51b815260206004820152601760248201527f76657269666965722d61592d6774652d7072696d652d710000000000000000006044820152606490fd5b156104a257565b60405162461bcd60e51b815260206004820152601860248201527f76657269666965722d6258302d6774652d7072696d652d7100000000000000006044820152606490fd5b156104ee57565b60405162461bcd60e51b815260206004820152601860248201527f76657269666965722d6259302d6774652d7072696d652d7100000000000000006044820152606490fd5b1561053a57565b60405162461bcd60e51b815260206004820152601860248201527f76657269666965722d6258312d6774652d7072696d652d7100000000000000006044820152606490fd5b1561058657565b60405162461bcd60e51b815260206004820152601860248201527f76657269666965722d6259312d6774652d7072696d652d7100000000000000006044820152606490fd5b156105d257565b60405162461bcd60e51b815260206004820152601760248201527f76657269666965722d63582d6774652d7072696d652d710000000000000000006044820152606490fd5b1561061e57565b60405162461bcd60e51b815260206004820152601760248201527f76657269666965722d63592d6774652d7072696d652d710000000000000000006044820152606490fd5b634e487b7160e01b600052601160045260246000fd5b60001981146106885760010190565b610663565b90600981101561069e5760051b0190565b6103ed565b156106aa57565b60405162461bcd60e51b815260206004820152601f60248201527f76657269666965722d6774652d736e61726b2d7363616c61722d6669656c64006044820152606490fd5b949394929190926106fe610393565b815160208093015161070e6100c1565b91825283820152815261071f6100c1565b948051518652610730815160200190565b518387015261074f836107416100c1565b920180515183525160200190565b518382015261075c6100c1565b958652828601528181019485528183519301516107776100c1565b93845282840152604081019283528351938281019485516107966100c1565b918252848201526060830190815261084a7f30644e72e131a029b85045b68181585d97816a916871ca8d3c208c16d87cfd476107d58186515110610403565b6107e48187875101511061044f565b6107f2818a5151511061049b565b61080281878b51015151106104e7565b610819816108128b515160200190565b5110610533565b6108328161082b888c51015160200190565b511061057f565b61083f81885151106105cb565b858751015110610617565b60005b60098110610c6a575090610c439798939291610867610cf4565b966108706100c1565b9260008452610c0a848781019860008a52819961088b6102ec565b918a6101006108986102fc565b927f2a9e8c2fc06e5719c0c0605617e8cae5fb4560636d8bb3135bdf72c48188efe46108c26100c1565b95600087526000858801527f2bfce145a4c31e838cfcea44c15f56797e7f03469692651c06ae0c7c940c791e8952527f15dae7ca5e246c4bfcb9d6f05692b0641e52d8a5bdf91b17385ae9a204bbae5484527f254d40668e75ed56d63fb7a99043df11e06130705f8a17568da5ce99eb04520d8385017f0668700d5311d6915f15e8289a7b79b79b70c87bbfa34c43d00596424fd5ae0b8152825194604087019586526109718a8a8a8a610f81565b7f2dd3292fd0f3b132e99a9eb46a5561986d09b7348a9f5cee5aced193007feae687527f22dd9f2038ea8f095281e98fa873684c2a837f841b48c56a44b19bfc8942edc0825283015185526109c889898989610f81565b7e1be1ebd7d5c66b7474adaf9c3f2cfeed726eba6d4ddf740c761feb09edc7d686527f1d95240cd6b1194d7ee5a074e318d7590d0ed7517c89913add33ca7bb701f740815260408301518552610a2089898989610f81565b7f295be68c4c467d19f2b9d5331d7ffea7573ef2610206a58d31bc7d8885fd1ab186527f1394c743581b1a484aa7d6e22ae07152fe70ed2fb8c84a60d1412dc1eb4827f0815260608301518552610a7989898989610f81565b7f0a5044cfff454717829785582bb2169858d8a5f9fb0786e27411f1badaa54a5786527f23c1771b61e8188ee3a374225aacfdca9808db5a5f975a711b065e853298780e815260808301518552610ad289898989610f81565b7f2544a8dc42a61ed77d73c9998f2eb27507c64e995d4fa9a5187280d939976e2686527f1da11c72b6f66e88ec55c9ecf76ba0a5496a06c4242dbfa72748fd43d20dd4d4815260a08301518552610b2b89898989610f81565b7f2aceb41a78550ea355038461748e962e4da73a1c49281a36b6b64322c04bae5d86527f22b4d4f641e64e16dfad502c795c5c584288e2f6196eadc61c8d17efb5877a03815260c08301518552610b8489898989610f81565b7f1466a2c6da5ebfe4173c5456deefede1ee703bfa313781bac182391ea0bdf81386527f27c40f29376005a2a3aabb6c275f84104193a5b0c660bea0952f14de6e358cfc815260e08301518552610bdd89898989610f81565b7f2d86103370bf595721d282c337e42885c376f74ceccfba45d13a29ac7240c97886525201519052610f81565b511590811591610c5f575b50610c46575b5050610c279051611306565b9451908451908501519160606040870151955196015196611524565b90565b51919350610c2791610c57916113dc565b929038610c1b565b905051151538610c15565b80610ca37f30644e72e131a029b85045b68181585d2833e84879b9709143e1f593f0000001610c9c610ca8948e61068d565b51106106a3565b610679565b61084d565b610cb56100e6565b90610cbe6100c1565b60008152600060208201528252610cd3610367565b6020830152610ce0610367565b6040830152610ced610367565b6060830152565b610cfc610cad565b90610d056100c1565b7f011104fb894968883d967cf684a92748376144635bf8b8a16d54bdffae77e56a81526020907f0c57abbcc634b0f4eaad5fe0c27e3e493d2801098390ed4d067097f8e4737413828201528352610d5a6100c1565b7f2cd45fd612c1d8148de027c1eb9808f604f2cd508f2b5b5c5a4c80bf4bfdedfd81527f1f9ebd534549217d7db0c9a2951a4e4fd9820a7b90f319831d4535a7ddd5a14f82820152610daa6100c1565b7f18ae2ff3885d307a991877e21189c0f54af7cc7f19fb421b4fcd924d17ab905581527f096c47f3b864673eb69225e21865cd8eab754abed8d9aacd19ef8f08be89468683820152610dfa6100c1565b9182528282015281840152610e0d6100c1565b7f0403f5f8df4ab11e2a96bbaf7ee631e63de2e7d4681b4537b9beaf3513e8037381527f25424f7f5206f5bd32b278e6c9f78bd551e95e0443da17cbd9c3cf588eaffc1d82820152610e5d6100c1565b7f1e141d8a45c3ee624ce883785edcf7425467ae93cafd82c6804572c8f3583cb981527f05fddbbe68a1d0985ecbbddad085e99715834d4cb9c66b582913dc9264b8c70983820152610ead6100c1565b918252828201526040840152610ec16100c1565b907f05d2f4a932e125cfd95329e6f8ec26fe4e2fabf9d3c2f2ff7c0354d919f66a1d82527f3031ebc609de908cec686c492bbb5bc0222f5aaa329ffde6bb6f2c3da3ccbeaf81830152610f126100c1565b907f2d092ecd0f5fb4a2ae2ed5a08bac441d66fee9a65044747ab71efd965b13560e82527f0a747e67a258ba49dc3dbeba35d60d2291aad35785d07325f758a323bb7545de81830152610f636100c1565b9283528201526060830152565b90600481101561069e5760051b0190565b90929160608460806107cf19946007865a01fa15610fd057600660c0926020606096865185528187015182860152805160408601520151868401525a01fa8015610fd057610fce90611390565b565bfe5b906020116101645790602090565b906040116101645760200190602090565b906060116101645760400190602090565b906080116101645760600190602090565b9060a0116101645760800190602090565b9060c0116101645760a00190602090565b9060e0116101645760c00190602090565b90610100116101645760e00190602090565b9061012011610164576101000190602090565b9061014011610164576101200190602090565b9061016011610164576101400190602090565b9061018011610164576101600190602090565b906101a011610164576101800190602090565b906101c011610164576101a00190602090565b906101e011610164576101c00190602090565b9061020011610164576101e00190602090565b9061022011610164576102000190602090565b9061024011610164576102200190602090565b9061026011610164576102400190602090565b359060208110611137575090565b6000199060200360031b1b1690565b61114e6100c1565b9060005b60409081811015611176576020916111686100c1565b903682378185015201611152565b5050565b610c4391611186610321565b6111996111938385610fd2565b90611129565b81526111a86111938385610fe0565b60208201526111b5611146565b6111c26111938486610ff1565b8151526111d26111938486611002565b8151602001526111e56111938486611013565b60208201908151526112056111fd6111938688611024565b915160200190565b5261120e610321565b9161121c6111938587611035565b835261122b6111938587611046565b60208401526112fb61119361123e610321565b9561124c611193828a611058565b875261125b611193828a61106b565b6020880152611268610331565b97611276611193838361107e565b89526112856111938383611091565b60208a015261129761119383836110a4565b60408a01526112a961119383836110b7565b60608a01526112bb61119383836110ca565b60808a01526112cd61119383836110dd565b60a08a01526112df61119383836110f0565b60c08a01526112f16111938383611103565b60e08a0152611116565b6101008601526106ef565b600060206113126100c1565b8281520152805190811580611384575b1561133f5750506113316100c1565b600081526000602082015290565b602001517f30644e72e131a029b85045b68181585d97816a916871ca8d3c208c16d87cfd47908190068103908111610688576113796100c1565b918252602082015290565b50602081015115611322565b1561139757565b60405162461bcd60e51b815260206004820152601260248201527f70616972696e672d6164642d6661696c656400000000000000000000000000006044820152606490fd5b60609092919260c06113ec6100c1565b91600083526000602084015260208396816114056100e6565b936080368637805185520151828401528051604084015201518482015260066107cf195a01fa8015610fd057610fce90611390565b60405190610320820182811067ffffffffffffffff8211176100e15760405260188252610300366020840137565b9060068202918083046006149015171561068857565b906001820180921161068857565b906002820180921161068857565b906003820180921161068857565b906004820180921161068857565b906005820180921161068857565b805182101561069e5760209160051b010190565b156114df57565b60405162461bcd60e51b815260206004820152601560248201527f70616972696e672d6f70636f64652d6661696c656400000000000000000000006044820152606490fd5b94919596929093966115346100e6565b958652602097889788880152604087015260608601526115526100e6565b938452858401526040830152606082015261156b61143a565b9160005b600481106115a757505050610300611585610342565b9384920160086107cf195a01fa8015610fd0576115a1906114d8565b51151590565b61167991929394506115b881611468565b6115c28285610f70565b51516115ce82886114c4565b52866115da8386610f70565b5101516115ef6115e98361147e565b886114c4565b526115fa8286610f70565b5151516116096115e98361148c565b5261161f6116178387610f70565b515160200190565b5161162c6115e98361149a565b52866116388387610f70565b510151516116486115e9836114a8565b5261167361166d6116668961165d868a610f70565b51015160200190565b51926114b6565b876114c4565b52610679565b908493929161156f56fea2646970667358221220908d01edc44e6099204fc11e08414a27823c2f346fa270d251e3471eeaaf954664736f6c63430008120033",
  "devdoc": {
    "kind": "dev",
    "methods": {},
    "version": 1
  },
  "userdoc": {
    "kind": "user",
    "methods": {},
    "version": 1
  },
  "storageLayout": {
    "storage": [],
    "types": null
  }
}