{
  "address": "0x7A68ee8732aC0B7dcacC925f1075053b3c6BB4D5",
  "abi": [
    {
      "inputs": [
        {
          "internalType": "address",
          "name": "_lightClient",
          "type": "address"
        },
        {
          "internalType": "uint256",
          "name": "_gasLimitPerTransaction",
          "type": "uint256"
        }
      ],
      "stateMutability": "nonpayable",
      "type": "constructor"
    },
    {
      "anonymous": false,
      "inputs": [
        {
          "indexed": true,
          "internalType": "bytes32",
          "name": "messageHash",
          "type": "bytes32"
        },
        {
          "indexed": true,
          "internalType": "uint256",
          "name": "nonce",
          "type": "uint256"
        },
        {
          "indexed": false,
          "internalType": "bytes",
          "name": "message",
          "type": "bytes"
        },
        {
          "indexed": false,
          "internalType": "bool",
          "name": "success",
          "type": "bool"
        }
      ],
      "name": "MessageExecuted",
      "type": "event"
    },
    {
      "anonymous": false,
      "inputs": [
        {
          "indexed": true,
          "internalType": "bytes32",
          "name": "messageHash",
          "type": "bytes32"
        },
        {
          "indexed": true,
          "internalType": "uint256",
          "name": "nonce",
          "type": "uint256"
        },
        {
          "indexed": false,
          "internalType": "bytes",
          "name": "message",
          "type": "bytes"
        }
      ],
      "name": "MessageSent",
      "type": "event"
    },
    {
      "anonymous": false,
      "inputs": [
        {
          "indexed": true,
          "internalType": "address",
          "name": "previousOwner",
          "type": "address"
        },
        {
          "indexed": true,
          "internalType": "address",
          "name": "newOwner",
          "type": "address"
        }
      ],
      "name": "OwnershipTransferred",
      "type": "event"
    },
    {
      "inputs": [
        {
          "internalType": "bytes",
          "name": "message",
          "type": "bytes"
        },
        {
          "internalType": "bytes[]",
          "name": "accountProof",
          "type": "bytes[]"
        },
        {
          "internalType": "bytes[]",
          "name": "storageProof",
          "type": "bytes[]"
        }
      ],
      "name": "executeMessage",
      "outputs": [
        {
          "internalType": "bool",
          "name": "success",
          "type": "bool"
        }
      ],
      "stateMutability": "nonpayable",
      "type": "function"
    },
    {
      "inputs": [],
      "name": "finalizedExecutionStateRootAndSlot",
      "outputs": [
        {
          "internalType": "bytes32",
          "name": "root",
          "type": "bytes32"
        },
        {
          "internalType": "uint64",
          "name": "slot",
          "type": "uint64"
        }
      ],
      "stateMutability": "view",
      "type": "function"
    },
    {
      "inputs": [],
      "name": "gasLimitPerTransaction",
      "outputs": [
        {
          "internalType": "uint256",
          "name": "",
          "type": "uint256"
        }
      ],
      "stateMutability": "view",
      "type": "function"
    },
    {
      "inputs": [],
      "name": "lightClient",
      "outputs": [
        {
          "internalType": "contract IEthereumLightClient",
          "name": "",
          "type": "address"
        }
      ],
      "stateMutability": "view",
      "type": "function"
    },
    {
      "inputs": [],
      "name": "nonce",
      "outputs": [
        {
          "internalType": "uint256",
          "name": "",
          "type": "uint256"
        }
      ],
      "stateMutability": "view",
      "type": "function"
    },
    {
      "inputs": [],
      "name": "owner",
      "outputs": [
        {
          "internalType": "address",
          "name": "",
          "type": "address"
        }
      ],
      "stateMutability": "view",
      "type": "function"
    },
    {
      "inputs": [
        {
          "internalType": "bytes32",
          "name": "",
          "type": "bytes32"
        }
      ],
      "name": "receivedMessages",
      "outputs": [
        {
          "internalType": "enum IMessageBridge.MessageStatus",
          "name": "",
          "type": "uint8"
        }
      ],
      "stateMutability": "view",
      "type": "function"
    },
    {
      "inputs": [],
      "name": "remoteMessageBridge",
      "outputs": [
        {
          "internalType": "address",
          "name": "",
          "type": "address"
        }
      ],
      "stateMutability": "view",
      "type": "function"
    },
    {
      "inputs": [],
      "name": "remoteMessageBridgeHash",
      "outputs": [
        {
          "internalType": "bytes32",
          "name": "",
          "type": "bytes32"
        }
      ],
      "stateMutability": "view",
      "type": "function"
    },
    {
      "inputs": [],
      "name": "renounceOwnership",
      "outputs": [],
      "stateMutability": "nonpayable",
      "type": "function"
    },
    {
      "inputs": [
        {
          "internalType": "address",
          "name": "receiver",
          "type": "address"
        },
        {
          "internalType": "bytes",
          "name": "data",
          "type": "bytes"
        },
        {
          "internalType": "uint256",
          "name": "gasLimit",
          "type": "uint256"
        }
      ],
      "name": "sendMessage",
      "outputs": [
        {
          "internalType": "bytes32",
          "name": "",
          "type": "bytes32"
        }
      ],
      "stateMutability": "nonpayable",
      "type": "function"
    },
    {
      "inputs": [
        {
          "internalType": "uint256",
          "name": "",
          "type": "uint256"
        }
      ],
      "name": "sentMessages",
      "outputs": [
        {
          "internalType": "bytes32",
          "name": "",
          "type": "bytes32"
        }
      ],
      "stateMutability": "view",
      "type": "function"
    },
    {
      "inputs": [
        {
          "internalType": "uint256",
          "name": "_gasLimitPerTransaction",
          "type": "uint256"
        }
      ],
      "name": "setGasLimitPerTransaction",
      "outputs": [],
      "stateMutability": "nonpayable",
      "type": "function"
    },
    {
      "inputs": [
        {
          "internalType": "address",
          "name": "_lightClient",
          "type": "address"
        }
      ],
      "name": "setLightClient",
      "outputs": [],
      "stateMutability": "nonpayable",
      "type": "function"
    },
    {
      "inputs": [
        {
          "internalType": "address",
          "name": "_remoteMessageBridge",
          "type": "address"
        }
      ],
      "name": "setRemoteMessageBridge",
      "outputs": [],
      "stateMutability": "nonpayable",
      "type": "function"
    },
    {
      "inputs": [
        {
          "internalType": "address",
          "name": "newOwner",
          "type": "address"
        }
      ],
      "name": "transferOwnership",
      "outputs": [],
      "stateMutability": "nonpayable",
      "type": "function"
    }
  ],
  "transactionHash": "0x05a1343efa0e0e73c7e7208fd5337e63f3fa046538261b91262f0e1ec5b4f852",
  "args": [
    "0x9572D8869030BfDa4E078Cfdad73E2cFc7344066",
    "1000000"
  ],
  "numDeployments": 3,
  "solcInputHash": "40a3d810e3f257c8537843108987d283",
  "bytecode": "0x60806040523480156200001157600080fd5b5060405162001e3e38038062001e3e8339810160408190526200003491620000c0565b600160005562000044336200006e565b600580546001600160a01b0319166001600160a01b039390931692909217909155600455620000fc565b600180546001600160a01b038381166001600160a01b0319831681179093556040519116919082907f8be0079c531659141344cd1fd0a4f28419497f9722a3daafe3b4186f6b6457e090600090a35050565b60008060408385031215620000d457600080fd5b82516001600160a01b0381168114620000ec57600080fd5b6020939093015192949293505050565b611d32806200010c6000396000f3fe608060405234801561001057600080fd5b50600436106101005760003560e01c8063adb5246311610097578063bf52c78311610066578063bf52c78314610221578063d2952af11461022a578063f2fde38b1461023d578063f69f81511461025057600080fd5b8063adb52463146101d2578063affed0e0146101e5578063b5700e68146101ee578063bc294d7d1461020157600080fd5b80633eae0ae0116100d35780633eae0ae01461017f578063715018a6146101925780638da5cb5b1461019a578063a3c74e9e146101bf57600080fd5b80630571fa2a146101055780630e4159811461012157806312420766146101445780633e553bab1461016a575b600080fd5b61010e60045481565b6040519081526020015b60405180910390f35b61013461012f36600461163a565b610280565b6040519015158152602001610118565b61014c610761565b6040805192835267ffffffffffffffff909116602083015201610118565b61017d6101783660046116e9565b6107d7565b005b61010e61018d366004611706565b610860565b61017d610980565b6001546001600160a01b03165b6040516001600160a01b039091168152602001610118565b61017d6101cd3660046116e9565b6109e6565b61017d6101e0366004611762565b610aa5565b61010e60035481565b6005546101a7906001600160a01b031681565b61010e61020f366004611762565b60026020526000908152604090205481565b61010e60085481565b6007546101a7906001600160a01b031681565b61017d61024b3660046116e9565b610b04565b61027361025e366004611762565b60066020526000908152604090205460ff1681565b6040516101189190611791565b60006002600054036102d95760405162461bcd60e51b815260206004820152601f60248201527f5265656e7472616e637947756172643a207265656e7472616e742063616c6c0060448201526064015b60405180910390fd5b600260009081556040805160c081018252828152602081018390528082018390526060808201849052608082019390935260a08101929092525161032090899089906117b9565b60405190819003902081526000815160009081526006602052604090205460ff1660038111156103525761035261177b565b146103c55760405162461bcd60e51b815260206004820152602760248201527f4d6573736167654272696467653a206d65737361676520616c7265616479206560448201527f786563757465640000000000000000000000000000000000000000000000000060648201526084016102d0565b838360008181106103d8576103d86117c9565b90506020028101906103ea91906117df565b6040516103f89291906117b9565b604051809103902061040a8787610be6565b146104635760405162461bcd60e51b815260206004820152602360248201527f4d6573736167654272696467653a20696e76616c69642073746f7261676520726044820152621bdbdd60ea1b60648201526084016102d0565b61046f878901896118dd565b60a086015260808501526001600160a01b03908116606085015216604080840191909152602080840183905290516000926104b892909160029101918252602082015260400190565b60408051808303601f190181528282528051602091820120818401528151808403820181529282019091528151910120905060006104ff826104fa8789611953565b610e0f565b83516040805180820182526000808252602091820152815180830190925283518252808401908201529192509061053590611037565b1461058e5760405162461bcd60e51b815260206004820152602360248201527f4d6573736167654272696467653a20696e76616c6964206d65737361676520686044820152620c2e6d60eb1b60648201526084016102d0565b608083015161059f90619c406119ed565b60405a6105ad90603f611a00565b6105b79190611a2d565b116106045760405162461bcd60e51b815260206004820152601f60248201527f4d6573736167654272696467653a20696e73756666696369656e74206761730060448201526064016102d0565b600083604001518460a00151604051602401610621929190611a91565b60408051601f198184030181529181526020820180517bffffffffffffffffffffffffffffffffffffffffffffffffffffffff1663bca8db7160e01b1790526060860151608087015191519293506001600160a01b031691610684908490611ab3565b60006040518083038160008787f1925050503d80600081146106c2576040519150601f19603f3d011682016040523d82523d6000602084013e6106c7565b606091505b505080955050846106d95760026106dc565b60035b84516000908152600660205260409020805460ff191660018360038111156107065761070661177b565b0217905550602084015184516040517f656daf87021c9b5cf8c148b7447c0f6e97c4808b42437d27522511973a1f1a0a90610746908f908f908b90611af8565b60405180910390a35050505060016000559695505050505050565b6005546040805163092103b360e11b8152815160009384936001600160a01b0390911692631242076692600480830193928290030181865afa1580156107ab573d6000803e3d6000fd5b505050506040513d601f19601f820116820180604052508101906107cf9190611b1e565b915091509091565b6001546001600160a01b031633146108315760405162461bcd60e51b815260206004820181905260248201527f4f776e61626c653a2063616c6c6572206973206e6f7420746865206f776e657260448201526064016102d0565b6005805473ffffffffffffffffffffffffffffffffffffffff19166001600160a01b0392909216919091179055565b60006004548211156108b45760405162461bcd60e51b815260206004820152601f60248201527f4d6573736167654272696467653a2065786365656420676173206c696d69740060448201526064016102d0565b600060035433878588886040516020016108d396959493929190611b5b565b60408051601f1981840301815291815281516020808401919091206003805460009081526002909352928220819055825493945092919061091383611ba0565b91905055817f6c2c68a20f9b9d846f60ba1a016f6bc89c9240001f1fa5eec65d1f93332e755b846040516109479190611bb9565b60405180910390a3306001600160a01b0316803b806020016040519081016040528181526000908060200190933c509695505050505050565b6001546001600160a01b031633146109da5760405162461bcd60e51b815260206004820181905260248201527f4f776e61626c653a2063616c6c6572206973206e6f7420746865206f776e657260448201526064016102d0565b6109e46000611085565b565b6001546001600160a01b03163314610a405760405162461bcd60e51b815260206004820181905260248201527f4f776e61626c653a2063616c6c6572206973206e6f7420746865206f776e657260448201526064016102d0565b6007805473ffffffffffffffffffffffffffffffffffffffff19166001600160a01b0383161790556040516bffffffffffffffffffffffff19606083901b16602082015260340160408051601f19818403018152919052805160209091012060085550565b6001546001600160a01b03163314610aff5760405162461bcd60e51b815260206004820181905260248201527f4f776e61626c653a2063616c6c6572206973206e6f7420746865206f776e657260448201526064016102d0565b600455565b6001546001600160a01b03163314610b5e5760405162461bcd60e51b815260206004820181905260248201527f4f776e61626c653a2063616c6c6572206973206e6f7420746865206f776e657260448201526064016102d0565b6001600160a01b038116610bda5760405162461bcd60e51b815260206004820152602660248201527f4f776e61626c653a206e6577206f776e657220697320746865207a65726f206160448201527f646472657373000000000000000000000000000000000000000000000000000060648201526084016102d0565b610be381611085565b50565b600080610bf1610761565b50905080610c675760405162461bcd60e51b815260206004820152602d60248201527f4d6573736167654272696467653a20657865637574696f6e207374617465207260448201527f6f6f74206e6f7420666f756e640000000000000000000000000000000000000060648201526084016102d0565b83836000818110610c7a57610c7a6117c9565b9050602002810190610c8c91906117df565b604051610c9a9291906117b9565b60405180910390208114610d165760405162461bcd60e51b815260206004820152602960248201527f4d6573736167654272696467653a20696e76616c6964206163636f756e74207060448201527f726f6f6620726f6f74000000000000000000000000000000000000000000000060648201526084016102d0565b600854600090610d2a906104fa8688611953565b90506000610d67610d628360408051808201825260008082526020918201528151808301909252825182529182019181019190915290565b6110e4565b90508051600414610de05760405162461bcd60e51b815260206004820152602f60248201527f4d6573736167654272696467653a20696e76616c6964206163636f756e74206460448201527f65636f6465642066726f6d20524c50000000000000000000000000000000000060648201526084016102d0565b610e0381600281518110610df657610df66117c9565b6020026020010151611037565b93505050505b92915050565b606060008083600081518110610e2757610e276117c9565b602002602001015190506000805b6000610e6b610d628560408051808201825260008082526020918201528151808301909252825182529182019181019190915290565b90508051601103610ead576000610e8d83610e8581611ba0565b94508a6111fa565b9050610ea4828281518110610df657610df66117c9565b9550610fa89050565b8051600214610f245760405162461bcd60e51b815260206004820152602760248201527f4d6573736167654272696467653a2049696e76616c696420524c50206c69737460448201527f206c656e6774680000000000000000000000000000000000000000000000000060648201526084016102d0565b600080610f52610f4d84600081518110610f4057610f406117c9565b6020026020010151611217565b611295565b9092509050610f6182856119ed565b93508015610f8d57610f7f83600181518110610f4057610f406117c9565b975050505050505050610e09565b610fa383600181518110610df657610df66117c9565b965050505b86610fb284611ba0565b93508381518110610fc557610fc56117c9565b60200260200101519350838051906020012085146110315760405162461bcd60e51b815260206004820152602360248201527f4d6573736167654272696467653a206e6f64652068617368206d69736d6174636044820152621a195960ea1b60648201526084016102d0565b50610e35565b80516000901580159061104c57508151602110155b61105557600080fd5b600080611061846112fe565b81519193509150602082101561107d5760208290036101000a90045b949350505050565b600180546001600160a01b0383811673ffffffffffffffffffffffffffffffffffffffff19831681179093556040519116919082907f8be0079c531659141344cd1fd0a4f28419497f9722a3daafe3b4186f6b6457e090600090a35050565b60606110ef82611345565b6110f857600080fd5b600061110383611380565b905060008167ffffffffffffffff81111561112057611120611826565b60405190808252806020026020018201604052801561116557816020015b604080518082019091526000808252602082015281526020019060019003908161113e5790505b50905060006111778560200151611405565b856020015161118691906119ed565b90506000805b848110156111ef5761119d83611480565b91506040518060400160405280838152602001848152508482815181106111c6576111c66117c9565b60209081029190910101526111db82846119ed565b9250806111e781611ba0565b91505061118c565b509195945050505050565b603f82900360040281901c611210601082611bcc565b9392505050565b805160609061122557600080fd5b600080611231846112fe565b9150915060008167ffffffffffffffff81111561125057611250611826565b6040519080825280601f01601f19166020018201604052801561127a576020820181803683370190505b5090506020810161128c848285611529565b50949350505050565b60008060006010846000815181106112af576112af6117c9565b01602001516112c1919060f81c611a2d565b90506112ce600282611bcc565b600185516112dc9190611be0565b6112e7906002611a00565b6112f191906119ed565b9460019091119350915050565b60008060006113108460200151611405565b9050600081856020015161132491906119ed565b905060008286600001516113389190611be0565b9196919550909350505050565b8051600090810361135857506000919050565b6020820151805160001a9060c0821015611376575060009392505050565b5060019392505050565b8051600090810361139357506000919050565b6000806113a38460200151611405565b84602001516113b291906119ed565b90506000846000015185602001516113ca91906119ed565b90505b808210156113fc576113de82611480565b6113e890836119ed565b9150826113f481611ba0565b9350506113cd565b50909392505050565b8051600090811a608081101561141e5750600092915050565b60b8811080611439575060c08110801590611439575060f881105b156114475750600192915050565b60c08110156114745761145c600160b8611bf3565b6114699060ff1682611be0565b6112109060016119ed565b61145c600160f8611bf3565b80516000908190811a608081101561149b5760019150611522565b60b88110156114c1576114af608082611be0565b6114ba9060016119ed565b9150611522565b60c08110156114ee5760b78103600185019450806020036101000a85510460018201810193505050611522565b60f8811015611502576114af60c082611be0565b60f78103600185019450806020036101000a855104600182018101935050505b5092915050565b8060000361153657505050565b6020811061156e578251825261154d6020846119ed565b925061155a6020836119ed565b9150611567602082611be0565b9050611536565b80156115a75760006001611583836020611be0565b61158f90610100611cf0565b6115999190611be0565b845184518216911916178352505b505050565b60008083601f8401126115be57600080fd5b50813567ffffffffffffffff8111156115d657600080fd5b6020830191508360208285010111156115ee57600080fd5b9250929050565b60008083601f84011261160757600080fd5b50813567ffffffffffffffff81111561161f57600080fd5b6020830191508360208260051b85010111156115ee57600080fd5b6000806000806000806060878903121561165357600080fd5b863567ffffffffffffffff8082111561166b57600080fd5b6116778a838b016115ac565b9098509650602089013591508082111561169057600080fd5b61169c8a838b016115f5565b909650945060408901359150808211156116b557600080fd5b506116c289828a016115f5565b979a9699509497509295939492505050565b6001600160a01b0381168114610be357600080fd5b6000602082840312156116fb57600080fd5b8135611210816116d4565b6000806000806060858703121561171c57600080fd5b8435611727816116d4565b9350602085013567ffffffffffffffff81111561174357600080fd5b61174f878288016115ac565b9598909750949560400135949350505050565b60006020828403121561177457600080fd5b5035919050565b634e487b7160e01b600052602160045260246000fd5b60208101600483106117b357634e487b7160e01b600052602160045260246000fd5b91905290565b8183823760009101908152919050565b634e487b7160e01b600052603260045260246000fd5b6000808335601e198436030181126117f657600080fd5b83018035915067ffffffffffffffff82111561181157600080fd5b6020019150368190038213156115ee57600080fd5b634e487b7160e01b600052604160045260246000fd5b604051601f8201601f1916810167ffffffffffffffff8111828210171561186557611865611826565b604052919050565b600082601f83011261187e57600080fd5b813567ffffffffffffffff81111561189857611898611826565b6118ab601f8201601f191660200161183c565b8181528460208386010111156118c057600080fd5b816020850160208301376000918101602001919091529392505050565b600080600080600060a086880312156118f557600080fd5b853594506020860135611907816116d4565b93506040860135611917816116d4565b925060608601359150608086013567ffffffffffffffff81111561193a57600080fd5b6119468882890161186d565b9150509295509295909350565b600067ffffffffffffffff8084111561196e5761196e611826565b8360051b602061197f81830161183c565b86815291850191818101903684111561199757600080fd5b865b848110156119cb578035868111156119b15760008081fd5b6119bd36828b0161186d565b845250918301918301611999565b50979650505050505050565b634e487b7160e01b600052601160045260246000fd5b80820180821115610e0957610e096119d7565b8082028115828204841417610e0957610e096119d7565b634e487b7160e01b600052601260045260246000fd5b600082611a3c57611a3c611a17565b500490565b60005b83811015611a5c578181015183820152602001611a44565b50506000910152565b60008151808452611a7d816020860160208601611a41565b601f01601f19169290920160200192915050565b6001600160a01b038316815260406020820152600061107d6040830184611a65565b60008251611ac5818460208701611a41565b9190910192915050565b81835281816020850137506000828201602090810191909152601f909101601f19169091010190565b604081526000611b0c604083018587611acf565b90508215156020830152949350505050565b60008060408385031215611b3157600080fd5b82519150602083015167ffffffffffffffff81168114611b5057600080fd5b809150509250929050565b86815260006001600160a01b03808816602084015280871660408401525084606083015260a06080830152611b9460a083018486611acf565b98975050505050505050565b600060018201611bb257611bb26119d7565b5060010190565b6020815260006112106020830184611a65565b600082611bdb57611bdb611a17565b500690565b81810381811115610e0957610e096119d7565b60ff8281168282160390811115610e0957610e096119d7565b600181815b80851115611c47578160001904821115611c2d57611c2d6119d7565b80851615611c3a57918102915b93841c9390800290611c11565b509250929050565b600082611c5e57506001610e09565b81611c6b57506000610e09565b8160018114611c815760028114611c8b57611ca7565b6001915050610e09565b60ff841115611c9c57611c9c6119d7565b50506001821b610e09565b5060208310610133831016604e8410600b8410161715611cca575081810a610e09565b611cd48383611c0c565b8060001904821115611ce857611ce86119d7565b029392505050565b60006112108383611c4f56fea264697066735822122002925c0fc070f6b5550a7996489179d4d5a19b752dfba6e15aa9e99e381a815d64736f6c63430008120033",
  "devdoc": {
    "kind": "dev",
    "methods": {
      "owner()": {
        "details": "Returns the address of the current owner."
      },
      "renounceOwnership()": {
        "details": "Leaves the contract without owner. It will not be possible to call `onlyOwner` functions anymore. Can only be called by the current owner. NOTE: Renouncing ownership will leave the contract without an owner, thereby removing any functionality that is only available to the owner."
      },
      "transferOwnership(address)": {
        "details": "Transfers ownership of the contract to a new account (`newOwner`). Can only be called by the current owner."
      }
    },
    "version": 1
  },
  "userdoc": {
    "kind": "user",
    "methods": {},
    "version": 1
  },
  "storageLayout": {
    "storage": [
      {
        "astId": 115,
        "contract": "contracts/message-bridge/MessageBridge.sol:MessageBridge",
        "label": "_status",
        "offset": 0,
        "slot": "0",
        "type": "t_uint256"
      },
      {
        "astId": 7,
        "contract": "contracts/message-bridge/MessageBridge.sol:MessageBridge",
        "label": "_owner",
        "offset": 0,
        "slot": "1",
        "type": "t_address"
      },
      {
        "astId": 201,
        "contract": "contracts/message-bridge/MessageBridge.sol:MessageBridge",
        "label": "sentMessages",
        "offset": 0,
        "slot": "2",
        "type": "t_mapping(t_uint256,t_bytes32)"
      },
      {
        "astId": 206,
        "contract": "contracts/message-bridge/MessageBridge.sol:MessageBridge",
        "label": "nonce",
        "offset": 0,
        "slot": "3",
        "type": "t_uint256"
      },
      {
        "astId": 208,
        "contract": "contracts/message-bridge/MessageBridge.sol:MessageBridge",
        "label": "gasLimitPerTransaction",
        "offset": 0,
        "slot": "4",
        "type": "t_uint256"
      },
      {
        "astId": 211,
        "contract": "contracts/message-bridge/MessageBridge.sol:MessageBridge",
        "label": "lightClient",
        "offset": 0,
        "slot": "5",
        "type": "t_contract(IEthereumLightClient)176"
      },
      {
        "astId": 216,
        "contract": "contracts/message-bridge/MessageBridge.sol:MessageBridge",
        "label": "receivedMessages",
        "offset": 0,
        "slot": "6",
        "type": "t_mapping(t_bytes32,t_enum(MessageStatus)633)"
      },
      {
        "astId": 218,
        "contract": "contracts/message-bridge/MessageBridge.sol:MessageBridge",
        "label": "remoteMessageBridge",
        "offset": 0,
        "slot": "7",
        "type": "t_address"
      },
      {
        "astId": 220,
        "contract": "contracts/message-bridge/MessageBridge.sol:MessageBridge",
        "label": "remoteMessageBridgeHash",
        "offset": 0,
        "slot": "8",
        "type": "t_bytes32"
      },
      {
        "astId": 222,
        "contract": "contracts/message-bridge/MessageBridge.sol:MessageBridge",
        "label": "initialized",
        "offset": 0,
        "slot": "9",
        "type": "t_bool"
      }
    ],
    "types": {
      "t_address": {
        "encoding": "inplace",
        "label": "address",
        "numberOfBytes": "20"
      },
      "t_bool": {
        "encoding": "inplace",
        "label": "bool",
        "numberOfBytes": "1"
      },
      "t_bytes32": {
        "encoding": "inplace",
        "label": "bytes32",
        "numberOfBytes": "32"
      },
      "t_contract(IEthereumLightClient)176": {
        "encoding": "inplace",
        "label": "contract IEthereumLightClient",
        "numberOfBytes": "20"
      },
      "t_enum(MessageStatus)633": {
        "encoding": "inplace",
        "label": "enum IMessageBridge.MessageStatus",
        "numberOfBytes": "1"
      },
      "t_mapping(t_bytes32,t_enum(MessageStatus)633)": {
        "encoding": "mapping",
        "key": "t_bytes32",
        "label": "mapping(bytes32 => enum IMessageBridge.MessageStatus)",
        "numberOfBytes": "32",
        "value": "t_enum(MessageStatus)633"
      },
      "t_mapping(t_uint256,t_bytes32)": {
        "encoding": "mapping",
        "key": "t_uint256",
        "label": "mapping(uint256 => bytes32)",
        "numberOfBytes": "32",
        "value": "t_bytes32"
      },
      "t_uint256": {
        "encoding": "inplace",
        "label": "uint256",
        "numberOfBytes": "32"
      }
    }
  }
}