{
  "address": "0xbb1e07e77d298a763D9CB7097dC70CfcBe7052e4",
  "abi": [
    {
      "inputs": [
        {
          "internalType": "address",
          "name": "_blockChunks",
          "type": "address"
        }
      ],
      "stateMutability": "nonpayable",
      "type": "constructor"
    },
    {
      "anonymous": false,
      "inputs": [
        {
          "indexed": true,
          "internalType": "address",
          "name": "previousOwner",
          "type": "address"
        },
        {
          "indexed": true,
          "internalType": "address",
          "name": "newOwner",
          "type": "address"
        }
      ],
      "name": "OwnershipTransferred",
      "type": "event"
    },
    {
      "anonymous": false,
      "inputs": [
        {
          "indexed": false,
          "internalType": "address",
          "name": "newAddress",
          "type": "address"
        }
      ],
      "name": "UpdateBlockChunks",
      "type": "event"
    },
    {
      "anonymous": false,
      "inputs": [
        {
          "indexed": false,
          "internalType": "uint64",
          "name": "chainId",
          "type": "uint64"
        },
        {
          "indexed": false,
          "internalType": "address",
          "name": "newAddress",
          "type": "address"
        }
      ],
      "name": "UpdateVerifierAddress",
      "type": "event"
    },
    {
      "anonymous": false,
      "inputs": [
        {
          "indexed": false,
          "internalType": "uint64",
          "name": "chainId",
          "type": "uint64"
        },
        {
          "indexed": false,
          "internalType": "bytes32",
          "name": "receiptHash",
          "type": "bytes32"
        }
      ],
      "name": "VerifiedReceipt",
      "type": "event"
    },
    {
      "inputs": [],
      "name": "blockChunks",
      "outputs": [
        {
          "internalType": "address",
          "name": "",
          "type": "address"
        }
      ],
      "stateMutability": "view",
      "type": "function"
    },
    {
      "inputs": [
        {
          "internalType": "bytes",
          "name": "receiptRaw",
          "type": "bytes"
        }
      ],
      "name": "decodeReceipt",
      "outputs": [
        {
          "components": [
            {
              "internalType": "bytes",
              "name": "status",
              "type": "bytes"
            },
            {
              "internalType": "uint64",
              "name": "cumulativeGasUsed",
              "type": "uint64"
            },
            {
              "internalType": "bytes",
              "name": "bloom",
              "type": "bytes"
            },
            {
              "components": [
                {
                  "internalType": "address",
                  "name": "addr",
                  "type": "address"
                },
                {
                  "internalType": "bytes32[]",
                  "name": "topics",
                  "type": "bytes32[]"
                },
                {
                  "internalType": "bytes",
                  "name": "data",
                  "type": "bytes"
                }
              ],
              "internalType": "struct IReceiptVerifier.LogInfo[]",
              "name": "logs",
              "type": "tuple[]"
            },
            {
              "internalType": "uint32",
              "name": "blkNum",
              "type": "uint32"
            },
            {
              "internalType": "bytes32",
              "name": "blkHash",
              "type": "bytes32"
            },
            {
              "internalType": "uint64",
              "name": "blkTime",
              "type": "uint64"
            },
            {
              "internalType": "uint64",
              "name": "chainId",
              "type": "uint64"
            }
          ],
          "internalType": "struct IReceiptVerifier.ReceiptInfo",
          "name": "info",
          "type": "tuple"
        }
      ],
      "stateMutability": "pure",
      "type": "function"
    },
    {
      "inputs": [],
      "name": "owner",
      "outputs": [
        {
          "internalType": "address",
          "name": "",
          "type": "address"
        }
      ],
      "stateMutability": "view",
      "type": "function"
    },
    {
      "inputs": [],
      "name": "renounceOwnership",
      "outputs": [],
      "stateMutability": "nonpayable",
      "type": "function"
    },
    {
      "inputs": [
        {
          "internalType": "address",
          "name": "newOwner",
          "type": "address"
        }
      ],
      "name": "transferOwnership",
      "outputs": [],
      "stateMutability": "nonpayable",
      "type": "function"
    },
    {
      "inputs": [
        {
          "internalType": "address",
          "name": "_blockChunks",
          "type": "address"
        }
      ],
      "name": "updateBlockChunks",
      "outputs": [],
      "stateMutability": "nonpayable",
      "type": "function"
    },
    {
      "inputs": [
        {
          "internalType": "uint64",
          "name": "_chainId",
          "type": "uint64"
        },
        {
          "internalType": "address",
          "name": "_verifierAddress",
          "type": "address"
        }
      ],
      "name": "updateVerifierAddress",
      "outputs": [],
      "stateMutability": "nonpayable",
      "type": "function"
    },
    {
      "inputs": [
        {
          "internalType": "uint64",
          "name": "",
          "type": "uint64"
        }
      ],
      "name": "verifierAddresses",
      "outputs": [
        {
          "internalType": "address",
          "name": "",
          "type": "address"
        }
      ],
      "stateMutability": "view",
      "type": "function"
    },
    {
      "inputs": [
        {
          "internalType": "bytes",
          "name": "receiptRaw",
          "type": "bytes"
        },
        {
          "internalType": "bytes",
          "name": "proofData",
          "type": "bytes"
        },
        {
          "internalType": "bytes",
          "name": "auxiBlkVerifyInfo",
          "type": "bytes"
        }
      ],
      "name": "verifyReceipt",
      "outputs": [
        {
          "components": [
            {
              "internalType": "bytes",
              "name": "status",
              "type": "bytes"
            },
            {
              "internalType": "uint64",
              "name": "cumulativeGasUsed",
              "type": "uint64"
            },
            {
              "internalType": "bytes",
              "name": "bloom",
              "type": "bytes"
            },
            {
              "components": [
                {
                  "internalType": "address",
                  "name": "addr",
                  "type": "address"
                },
                {
                  "internalType": "bytes32[]",
                  "name": "topics",
                  "type": "bytes32[]"
                },
                {
                  "internalType": "bytes",
                  "name": "data",
                  "type": "bytes"
                }
              ],
              "internalType": "struct IReceiptVerifier.LogInfo[]",
              "name": "logs",
              "type": "tuple[]"
            },
            {
              "internalType": "uint32",
              "name": "blkNum",
              "type": "uint32"
            },
            {
              "internalType": "bytes32",
              "name": "blkHash",
              "type": "bytes32"
            },
            {
              "internalType": "uint64",
              "name": "blkTime",
              "type": "uint64"
            },
            {
              "internalType": "uint64",
              "name": "chainId",
              "type": "uint64"
            }
          ],
          "internalType": "struct IReceiptVerifier.ReceiptInfo",
          "name": "info",
          "type": "tuple"
        }
      ],
      "stateMutability": "view",
      "type": "function"
    },
    {
      "inputs": [
        {
          "internalType": "bytes",
          "name": "receiptRaw",
          "type": "bytes"
        },
        {
          "internalType": "bytes",
          "name": "proofData",
          "type": "bytes"
        },
        {
          "internalType": "bytes",
          "name": "auxiBlkVerifyInfo",
          "type": "bytes"
        }
      ],
      "name": "verifyReceiptAndLog",
      "outputs": [
        {
          "components": [
            {
              "internalType": "bytes",
              "name": "status",
              "type": "bytes"
            },
            {
              "internalType": "uint64",
              "name": "cumulativeGasUsed",
              "type": "uint64"
            },
            {
              "internalType": "bytes",
              "name": "bloom",
              "type": "bytes"
            },
            {
              "components": [
                {
                  "internalType": "address",
                  "name": "addr",
                  "type": "address"
                },
                {
                  "internalType": "bytes32[]",
                  "name": "topics",
                  "type": "bytes32[]"
                },
                {
                  "internalType": "bytes",
                  "name": "data",
                  "type": "bytes"
                }
              ],
              "internalType": "struct IReceiptVerifier.LogInfo[]",
              "name": "logs",
              "type": "tuple[]"
            },
            {
              "internalType": "uint32",
              "name": "blkNum",
              "type": "uint32"
            },
            {
              "internalType": "bytes32",
              "name": "blkHash",
              "type": "bytes32"
            },
            {
              "internalType": "uint64",
              "name": "blkTime",
              "type": "uint64"
            },
            {
              "internalType": "uint64",
              "name": "chainId",
              "type": "uint64"
            }
          ],
          "internalType": "struct IReceiptVerifier.ReceiptInfo",
          "name": "info",
          "type": "tuple"
        }
      ],
      "stateMutability": "nonpayable",
      "type": "function"
    }
  ],
  "transactionHash": "0x43c4646da5c27122e06360ed352043aadc18ea9d0ba49580d0c0dce45a4de1d1",
  "args": [
    "0x420755E97ca29314dB49ae019161f4b52012AADf"
  ],
  "numDeployments": 1,
  "solcInputHash": "2c4506faf962a540c8e2d2bc35bafac2",
  "bytecode": "0x6080346100a757601f611b2938819003918201601f19168301916001600160401b038311848410176100ac578084926020946040528339810103126100a757516001600160a01b0390818116908190036100a75760005460018060a01b0319903382821617600055604051933391167f8be0079c531659141344cd1fd0a4f28419497f9722a3daafe3b4186f6b6457e0600080a36002541617600255611a6690816100c38239f35b600080fd5b634e487b7160e01b600052604160045260246000fdfe6080604052600436101561001257600080fd5b6000803560e01c9081631eeb86da146100ba575080633996da7a146100b557806368ac2f78146100b0578063715018a6146100ab578063724796ed146100a65780638da5cb5b146100a1578063c109ae5d1461009c578063ec4ffc5214610097578063f2fde38b146100925763f5cec6af1461008d57600080fd5b610698565b6105eb565b610553565b6104ff565b6104d8565b6104b1565b610453565b610427565b610399565b3461012a57602036600319011261012a577f0addee9cb6aa9328bbfbe8282179a6737af344619320736b6918af70b6a94a9860206100f661012d565b6001600160a01b039061010d8286541633146106dc565b16806001600160a01b03196002541617600255604051908152a180f35b80fd5b600435906001600160a01b038216820361014357565b600080fd5b9181601f840112156101435782359167ffffffffffffffff8311610143576020838186019501011161014357565b9060606003198301126101435767ffffffffffffffff60043581811161014357836101a391600401610148565b9390939260243583811161014357826101be91600401610148565b93909392604435918211610143576101d891600401610148565b9091565b60005b8381106101ef5750506000910152565b81810151838201526020016101df565b90602091610218815180928185528580860191016101dc565b601f01601f1916010190565b908082519081815260208091019281808460051b830101950193600080925b858410610254575050505050505090565b90919293949596601f19828203018452858851916060908181016001600160a01b0385511682528385015192848301528251809152836080830193019087905b8082106102ca5750505082916001946102b992604080920151918184039101526101ff565b990194019401929594939190610243565b825185528b95948501949092019160019190910190610294565b6103969060208152825160e061035061030b610100938460208701526101208601906101ff565b602087015167ffffffffffffffff16604086015261033b604088015191601f1992838883030160608901526101ff565b90606088015190868303016080870152610224565b608086015163ffffffff1660a08501529460a081015160c085015261038560c08201518386019067ffffffffffffffff169052565b015167ffffffffffffffff16910152565b90565b34610143576104236104057fa5db3bb7a25cc2804c7835ab71b15513b8c68585e3593c3fdee39a883754736660406103ed6103d336610176565b926103e59995999694969291926107f7565b50868a610a56565b9467ffffffffffffffff60e087015116923691610864565b6020815191012082519182526020820152a1604051918291826102e4565b0390f35b346101435761042361044761043b36610176565b94939093929192610a56565b604051918291826102e4565b346101435760008060031936011261012a578080546001600160a01b03196001600160a01b038216916104873384146106dc565b1682557f8be0079c531659141344cd1fd0a4f28419497f9722a3daafe3b4186f6b6457e08280a380f35b346101435760003660031901126101435760206001600160a01b0360025416604051908152f35b346101435760003660031901126101435760206001600160a01b0360005416604051908152f35b346101435760203660031901126101435760043567ffffffffffffffff811161014357610447610536610423923690600401610148565b906110ee565b6004359067ffffffffffffffff8216820361014357565b346101435760403660031901126101435761056c61053c565b602435906001600160a01b03918281168091036101435767ffffffffffffffff6040926105bf7ffd4bb2421fdcb098a8b68c19410f433a24b805b98f148eb28b7cc384b0a0e65f956000541633146106dc565b169081600052600160205282600020816001600160a01b031982541617905582519182526020820152a1005b346101435760203660031901126101435761060461012d565b6001600160a01b0361061b816000541633146106dc565b81161561062d5761062b90610727565b005b60405162461bcd60e51b815260206004820152602660248201527f4f776e61626c653a206e6577206f776e657220697320746865207a65726f206160448201527f64647265737300000000000000000000000000000000000000000000000000006064820152608490fd5b346101435760203660031901126101435767ffffffffffffffff6106ba61053c565b16600052600160205260206001600160a01b0360406000205416604051908152f35b156106e357565b606460405162461bcd60e51b815260206004820152602060248201527f4f776e61626c653a2063616c6c6572206973206e6f7420746865206f776e65726044820152fd5b600054906001600160a01b0380911691826001600160a01b0319821617600055167f8be0079c531659141344cd1fd0a4f28419497f9722a3daafe3b4186f6b6457e0600080a3565b634e487b7160e01b600052604160045260246000fd5b6040810190811067ffffffffffffffff8211176107a157604052565b61076f565b90601f8019910116810190811067ffffffffffffffff8211176107a157604052565b6040519060c0820182811067ffffffffffffffff8211176107a157604052565b604051906107f582610785565b565b60405190610100820182811067ffffffffffffffff8211176107a157604052600060e08360608152826020820152606060408201526060808201528260808201528260a08201528260c08201520152565b67ffffffffffffffff81116107a157601f01601f191660200190565b92919261087082610848565b9161087e60405193846107a6565b829481845281830111610143578281602093846000960137010152565b156108a257565b60405162461bcd60e51b815260206004820152600f60248201527f70726f6f66206e6f742076616c696400000000000000000000000000000000006044820152606490fd5b602090836107f593959495604051968361090a89955180928880890191016101dc565b84019185830137016000838201520380855201836107a6565b1561092a57565b60405162461bcd60e51b815260206004820152601260248201527f6c65616648617368206e6f74206d6174636800000000000000000000000000006044820152606490fd5b90816020910312610143575180151581036101435790565b91909161018081019267ffffffffffffffff815116825260a08063ffffffff926020938085830151168587015260408201516040870152606082015160608701526080820151166080860152015192016000905b600782106109e95750505050565b828060019286518152019401910190926109db565b6040513d6000823e3d90fd5b15610a1157565b60405162461bcd60e51b815260206004820152600f60248201527f696e76616c696420626c6b4861736800000000000000000000000000000000006044820152606490fd5b959493929192610a646107f7565b50610a6f8385611484565b9360808501938451610a889067ffffffffffffffff1690565b91610a929261130c565b610a9b9061089b565b868260a086015191610aac926108e7565b948551602080970120855114610ac190610923565b610aca91610e8d565b9291978451610ae09067ffffffffffffffff1690565b9360408701928351610af59063ffffffff1690565b9a8989019b8c5190610b056107c8565b67ffffffffffffffff909916895263ffffffff16888c01526040880152606087015263ffffffff16608086015260a085015260025487906001600160a01b03166001600160a01b03166001600160a01b0316604051631513dce960e21b81529586919082908190610b799060048301610987565b03915afa968715610c42576060610c0497610bb8610be996610bdf95610bb36107f59d610bf69b610bce98600092610c15575b5050610a0a565b6110ee565b9b5160a08d0152015167ffffffffffffffff1690565b67ffffffffffffffff1660c08a0152565b5163ffffffff1690565b63ffffffff166080870152565b5167ffffffffffffffff1690565b67ffffffffffffffff1660e0840152565b610c349250803d10610c3b575b610c2c81836107a6565b81019061096f565b3880610bac565b503d610c22565b6109fe565b15610c4e57565b60405162461bcd60e51b815260206004820152601b60248201527f696e636f72726563742061757869426c6b566572696679496e666f00000000006044820152606490fd5b906020116101435790602090565b906024116101435760200190600490565b90610104116101435760e40190602090565b909291928360011161014357831161014357600101916000190190565b9061016011610143576101400190602090565b9061018011610143576101700190601090565b906101a011610143576101800190602090565b906101c011610143576101b00190601090565b906101e011610143576101dc0190600490565b9061020011610143576101f80190600890565b9061020811610143576102000190600890565b92919261020891848311610143578411610143570191610207190190565b90939293848311610143578411610143578101920390565b359060208110610daa575090565b6000199060200360031b1b1690565b7fffffffff000000000000000000000000000000000000000000000000000000009035818116939260048110610dee57505050565b60040360031b82901b16169150565b634e487b7160e01b600052601160045260246000fd5b60ff1660ff8114610e245760010190565b610dfd565b60051b90611fe060e0831692168203610e2457565b60ff166024019060ff8211610e2457565b60ff60019116019060ff8211610e2457565b634e487b7160e01b600052603260045260246000fd5b906007811015610e885760051b0190565b610e61565b916040519060e0820182811067ffffffffffffffff8211176107a15760405260e036833781610ebf6101048514610c47565b610ed2610ecc8587610c93565b90610d9c565b93610eef610ee9610ee38389610ca1565b90610db9565b60e01c90565b9460005b60ff808216906006821015610f555790610f4a610f43610ecc85948d89610f24610f1f610f509a610e29565b610e3e565b9280610f3a610f1f610f358c610e4f565b610e29565b16931691610d84565b9189610e77565b52610e13565b610ef3565b50505095610ecc60c092610f6b92969496610cb2565b910152565b9015610e885790565b15610f8057565b60405162461bcd60e51b815260206004820152601660248201527f6e6f7420612044796e616d6963466565547854797065000000000000000000006044820152606490fd5b805115610e885760200190565b805160011015610e885760400190565b805160021015610e885760600190565b805160031015610e885760800190565b8051821015610e885760209160051b010190565b67ffffffffffffffff81116107a15760051b60200190565b9061103882611016565b604090611047825191826107a6565b8381528093611058601f1991611016565b0190600092835b83811061106d575050505050565b8151906060918281019281841067ffffffffffffffff8511176107a1576020938552878252839080828401528583015282860101520161105f565b906110b282611016565b6110bf60405191826107a6565b82815280926110d0601f1991611016565b0190602036910137565b602081519101519060208110610daa575090565b909161116861116361115e6111576111046107f7565b968060ff9761115260028a61114b61114561111f8787610f70565b357fff000000000000000000000000000000000000000000000000000000000000001690565b60f81c90565b1614610f79565b610cc4565b3691610864565b6115e0565b611630565b9161117b61117584610fc5565b5161180f565b845261119f61119261118c85610fd2565b51611748565b67ffffffffffffffff1690565b6111b76020918287019067ffffffffffffffff169052565b6111dc6111d66111c961117587610fe2565b9560409687890152610ff2565b51611630565b6111e6815161102e565b936000805b835193868316948510156112d5576112066111d68683611002565b9961123561121c6112168d610fc5565b5161172a565b611226888c611002565b51906001600160a01b03169052565b6112416111d68c610fd2565b9461124c86516110a8565b88611257898d611002565b510152835b86518a8216908110156112a057908b610f4a838c6112938d61128d6112888f61129b9a61117591611002565b6110da565b95611002565b510151611002565b61125c565b505095909a6112cd9395506112c56112be6111758d93979597610fe2565b928b611002565b510152610e13565b9092916111eb565b50505094505050506060830152565b90918060409360208452816020850152848401376000828201840152601f01601f1916010190565b909167ffffffffffffffff821660005260016020526001600160a01b0360406000205416156113c6576113989261137b61136f61136f61136260209667ffffffffffffffff166000526001602052604060002090565b546001600160a01b031690565b6001600160a01b031690565b906040518095819482936322bb937360e11b8452600484016112e4565b03915afa908115610c42576000916113ae575090565b610396915060203d8111610c3b57610c2c81836107a6565b60405162461bcd60e51b815260206004820152601660248201527f636861696e207665726966696572206e6f7420736574000000000000000000006044820152606490fd5b6fffffffffffffffffffffffffffffffff19903581811693926010811061143157505050565b60100360031b82901b16169150565b7fffffffffffffffff000000000000000000000000000000000000000000000000903581811693926008811061147557505050565b60080360031b82901b16169150565b91906040519060c082019082821067ffffffffffffffff8311176107a157611157610f6b9160a09360405260008552600060208601526000604086015260006060860152600060808601526060848601528085976114ee6114e8610ecc8484610ce1565b60801b90565b61152261150d6115076115018686610cf4565b9061140b565b60801c90565b6fffffffffffffffffffffffffffffffff1690565b1787526115356114e8610ecc8484610d07565b61154861150d6115076115018686610d1a565b17602088015261156e611561610ee9610ee38585610d2d565b63ffffffff166040890152565b61159e61158d6115876115818585610d40565b90611440565b60c01c90565b67ffffffffffffffff166060890152565b6115c26115b16115876115818585610d53565b67ffffffffffffffff166080890152565b610d66565b604051906115d482610785565b60006020838281520152565b6115e86115c7565b506020815191604051926115fb84610785565b835201602082015290565b9060018201809211610e2457565b91908201809211610e2457565b6000198114610e245760010190565b61163981611703565b15610143576116478161185c565b61165081611016565b9161165e60405193846107a6565b818352601f1961166d83611016565b0160005b8181106116ec57505061169260208092015161168c81611944565b90611614565b6000905b8382106116a4575050505090565b6116e0816116b46116e6936118be565b906116bd6107e8565b82815281878201526116cf868a611002565b526116da8589611002565b50611614565b91611621565b90611696565b6020906116f76115c7565b82828801015201611671565b80511561172457602060c09101515160001a1061171f57600190565b600090565b50600090565b6015815103610143576117446001600160a01b0391611748565b1690565b8051801515908161177e575b501561014357611763906117e3565b90519060208110611772575090565b6020036101000a900490565b60219150111538611754565b60bf19810191908211610e2457565b607f19810191908211610e2457565b6020039060208211610e2457565b600019810191908211610e2457565b60f619810191908211610e2457565b60b619810191908211610e2457565b9060208201916117f38351611944565b925190838201809211610e245751928303928311610e24579190565b80511561014357611822610396916117e3565b61182e81939293610848565b9261183c60405194856107a6565b818452601f1961184b83610848565b0136602086013783602001906119b3565b805115611724576000906020810190815161187681611944565b8101809111610e2457915190518101809111610e245791905b82811061189c5750905090565b6118a5816118be565b8101809111610e24576118b89091611621565b9061188f565b805160001a9060808210156118d4575050600190565b60b88210156118ef57506118ea61039691611799565b611606565b9060c08110156119135760b51991600160b783602003016101000a91015104010190565b9060f882101561192a57506118ea6103969161178a565b60010151602082900360f7016101000a90040160f5190190565b5160001a60808110156119575750600090565b60b88110801561198e575b1561196d5750600190565b60c0811015611982576118ea610396916117d4565b6118ea610396916117c5565b5060c08110158015611962575060f88110611962565b601f8111610e24576101000a90565b929091928315611a2a5792915b6020938484106119f55780518252848101809111610e2457938101809111610e245791601f198101908111610e2457916119c0565b9193509180611a0357505050565b611a17611a12611a1c926117a8565b6119a4565b6117b6565b905182518216911916179052565b5091505056fea2646970667358221220b629ac78b6d4b32310be6770abda08ad305ad54a23897fa355b4f313fa3ac82f64736f6c63430008120033",
  "devdoc": {
    "kind": "dev",
    "methods": {
      "owner()": {
        "details": "Returns the address of the current owner."
      },
      "renounceOwnership()": {
        "details": "Leaves the contract without owner. It will not be possible to call `onlyOwner` functions anymore. Can only be called by the current owner. NOTE: Renouncing ownership will leave the contract without an owner, thereby removing any functionality that is only available to the owner."
      },
      "transferOwnership(address)": {
        "details": "Transfers ownership of the contract to a new account (`newOwner`). Can only be called by the current owner."
      }
    },
    "version": 1
  },
  "userdoc": {
    "kind": "user",
    "methods": {},
    "version": 1
  },
  "storageLayout": {
    "storage": [
      {
        "astId": 7,
        "contract": "contracts/verifiers/ReceiptVerifier.sol:ReceiptVerifier",
        "label": "_owner",
        "offset": 0,
        "slot": "0",
        "type": "t_address"
      },
      {
        "astId": 1509,
        "contract": "contracts/verifiers/ReceiptVerifier.sol:ReceiptVerifier",
        "label": "verifierAddresses",
        "offset": 0,
        "slot": "1",
        "type": "t_mapping(t_uint64,t_address)"
      },
      {
        "astId": 1511,
        "contract": "contracts/verifiers/ReceiptVerifier.sol:ReceiptVerifier",
        "label": "blockChunks",
        "offset": 0,
        "slot": "2",
        "type": "t_address"
      }
    ],
    "types": {
      "t_address": {
        "encoding": "inplace",
        "label": "address",
        "numberOfBytes": "20"
      },
      "t_mapping(t_uint64,t_address)": {
        "encoding": "mapping",
        "key": "t_uint64",
        "label": "mapping(uint64 => address)",
        "numberOfBytes": "32",
        "value": "t_address"
      },
      "t_uint64": {
        "encoding": "inplace",
        "label": "uint64",
        "numberOfBytes": "8"
      }
    }
  }
}