{
  "address": "0x19b7aF7A7739E27413F5CB6a6ad916ffF78fD9C1",
  "abi": [
    {
      "inputs": [
        {
          "internalType": "address",
          "name": "_blocChunks",
          "type": "address"
        }
      ],
      "stateMutability": "nonpayable",
      "type": "constructor"
    },
    {
      "anonymous": false,
      "inputs": [
        {
          "indexed": true,
          "internalType": "address",
          "name": "previousOwner",
          "type": "address"
        },
        {
          "indexed": true,
          "internalType": "address",
          "name": "newOwner",
          "type": "address"
        }
      ],
      "name": "OwnershipTransferred",
      "type": "event"
    },
    {
      "anonymous": false,
      "inputs": [
        {
          "indexed": false,
          "internalType": "address",
          "name": "newAddress",
          "type": "address"
        }
      ],
      "name": "UpdateBlockChunks",
      "type": "event"
    },
    {
      "anonymous": false,
      "inputs": [
        {
          "indexed": false,
          "internalType": "uint64",
          "name": "chainId",
          "type": "uint64"
        },
        {
          "indexed": false,
          "internalType": "address",
          "name": "newAddress",
          "type": "address"
        }
      ],
      "name": "UpdateVerifierAddress",
      "type": "event"
    },
    {
      "inputs": [],
      "name": "BlockChunks",
      "outputs": [
        {
          "internalType": "address",
          "name": "",
          "type": "address"
        }
      ],
      "stateMutability": "view",
      "type": "function"
    },
    {
      "inputs": [],
      "name": "owner",
      "outputs": [
        {
          "internalType": "address",
          "name": "",
          "type": "address"
        }
      ],
      "stateMutability": "view",
      "type": "function"
    },
    {
      "inputs": [],
      "name": "renounceOwnership",
      "outputs": [],
      "stateMutability": "nonpayable",
      "type": "function"
    },
    {
      "inputs": [
        {
          "internalType": "address",
          "name": "newOwner",
          "type": "address"
        }
      ],
      "name": "transferOwnership",
      "outputs": [],
      "stateMutability": "nonpayable",
      "type": "function"
    },
    {
      "inputs": [
        {
          "internalType": "address",
          "name": "_BlockChunks",
          "type": "address"
        }
      ],
      "name": "updateBlockChunks",
      "outputs": [],
      "stateMutability": "nonpayable",
      "type": "function"
    },
    {
      "inputs": [
        {
          "internalType": "uint64",
          "name": "_chainId",
          "type": "uint64"
        },
        {
          "internalType": "address",
          "name": "_verifierAddress",
          "type": "address"
        }
      ],
      "name": "updateVerifierAddress",
      "outputs": [],
      "stateMutability": "nonpayable",
      "type": "function"
    },
    {
      "inputs": [
        {
          "internalType": "uint64",
          "name": "",
          "type": "uint64"
        }
      ],
      "name": "verifierAddresses",
      "outputs": [
        {
          "internalType": "address",
          "name": "",
          "type": "address"
        }
      ],
      "stateMutability": "view",
      "type": "function"
    },
    {
      "inputs": [
        {
          "internalType": "uint64",
          "name": "chainId",
          "type": "uint64"
        },
        {
          "internalType": "bytes",
          "name": "proofData",
          "type": "bytes"
        },
        {
          "internalType": "bytes",
          "name": "blkVerifyInfo",
          "type": "bytes"
        }
      ],
      "name": "verifySlotValue",
      "outputs": [
        {
          "components": [
            {
              "internalType": "uint64",
              "name": "chainId",
              "type": "uint64"
            },
            {
              "internalType": "bytes32",
              "name": "addrHash",
              "type": "bytes32"
            },
            {
              "internalType": "bytes32",
              "name": "blkHash",
              "type": "bytes32"
            },
            {
              "internalType": "bytes32",
              "name": "slotKey",
              "type": "bytes32"
            },
            {
              "internalType": "bytes32",
              "name": "slotValue",
              "type": "bytes32"
            },
            {
              "internalType": "uint32",
              "name": "blkNum",
              "type": "uint32"
            }
          ],
          "internalType": "struct ISlotValueVerifier.SlotInfo",
          "name": "slotInfo",
          "type": "tuple"
        }
      ],
      "stateMutability": "view",
      "type": "function"
    }
  ],
  "transactionHash": "0x4a9e6ac7350535d513fa66936399938253d8c15127ca3fd374125c9dd07f3e5b",
  "args": [
    "0x420755E97ca29314dB49ae019161f4b52012AADf"
  ],
  "numDeployments": 2,
  "solcInputHash": "ce59f34ab3a9265892ad529586d4507a",
  "bytecode": "0x6080346100a757601f610b6438819003918201601f19168301916001600160401b038311848410176100ac578084926020946040528339810103126100a757516001600160a01b0390818116908190036100a75760005460018060a01b0319903382821617600055604051933391167f8be0079c531659141344cd1fd0a4f28419497f9722a3daafe3b4186f6b6457e0600080a36002541617600255610aa190816100c38239f35b600080fd5b634e487b7160e01b600052604160045260246000fdfe608080604052600436101561001357600080fd5b60003560e01c9081630215d01314610925575080630b885e531461032a5780631eeb86da146102ba578063715018a61461025d5780638da5cb5b14610236578063ec4ffc521461019e578063f2fde38b146100c05763f5cec6af1461007757600080fd5b346100bb5760203660031901126100bb5767ffffffffffffffff610099610949565b16600052600160205260206001600160a01b0360406000205416604051908152f35b600080fd5b346100bb5760203660031901126100bb576100d961098e565b600054906001600160a01b03808316916100f43384146109a4565b16918215610133576001600160a01b0319839116176000557f8be0079c531659141344cd1fd0a4f28419497f9722a3daafe3b4186f6b6457e0600080a3005b60405162461bcd60e51b815260206004820152602660248201527f4f776e61626c653a206e6577206f776e657220697320746865207a65726f206160448201527f64647265737300000000000000000000000000000000000000000000000000006064820152608490fd5b346100bb5760403660031901126100bb576101b7610949565b602435906001600160a01b03918281168091036100bb5767ffffffffffffffff60409261020a7ffd4bb2421fdcb098a8b68c19410f433a24b805b98f148eb28b7cc384b0a0e65f956000541633146109a4565b169081600052600160205282600020816001600160a01b031982541617905582519182526020820152a1005b346100bb5760003660031901126100bb5760206001600160a01b0360005416604051908152f35b346100bb5760003660031901126100bb57600080546001600160a01b03196001600160a01b038216916102913384146109a4565b1682557f8be0079c531659141344cd1fd0a4f28419497f9722a3daafe3b4186f6b6457e08280a3005b346100bb5760203660031901126100bb577f0addee9cb6aa9328bbfbe8282179a6737af344619320736b6918af70b6a94a9860206102f661098e565b6001600160a01b039061030e826000541633146109a4565b16806001600160a01b03196002541617600255604051908152a1005b346100bb5760603660031901126100bb57610343610949565b60243567ffffffffffffffff81116100bb57610363903690600401610960565b9160443567ffffffffffffffff81116100bb57610384903690600401610960565b929060405194610393866109ef565b6000865260006020870152600060408701526000606087015260006080870152600060a087015267ffffffffffffffff841660005260016020526001600160a01b0360406000205416156108e05767ffffffffffffffff841660005260016020526001600160a01b0360406000205416602060405180926322bb937360e11b82528260048301528460248301528487604484013760006044868401015281604481601f19601f89011681010301915afa908115610840576000916108c1575b50156100bb576040519360e0850185811067ffffffffffffffff8211176108665760405260e0368637610104860361087c57856020116100bb57856024116100bb5760005b60ff60068183161015610562576104b56104b083610a45565b610a5a565b9060018184160181811161051e576104d06104b08392610a45565b1680828416116100bb578981116100bb579181168681013592036020811061054a575b506007908316101561053457611fe08260051b1687015260ff80911690811461051e57600101610497565b634e487b7160e01b600052601160045260246000fd5b634e487b7160e01b600052603260045260246000fd5b60001960209190910360031b1b9091169060076104f3565b50508684868589610104116100bb5760e481013560c08301526040519560a0870187811067ffffffffffffffff8211176108665760405280610160116100bb5780610180116100bb5761017084013560801c61014085013560801b178752806101a0116100bb57806101c0116100bb576101b084013560801c61018085013560801b176020880152806101e0116100bb5780610200116100bb576101f084013560801c6101c085013560801b17604088015280610220116100bb5780610240116100bb5761023084013560801c61020085013560801b176060880152610260116100bb57906020839261025c60a095013560e01c608089015260405193610668856109ef565b67ffffffffffffffff8816855261025c81013560e01c8386015261014061017082013560801c91013560801b17604085015280356060850152013560e01c6080830152828201526001600160a01b036002541690604051928391631513dce960e21b835267ffffffffffffffff815116600484015263ffffffff6020820151166024840152604081015160448401526060810151606484015263ffffffff6080820151166084840152015160a482016000905b6007821061084c57505050610184816020935afa90811561084057600091610811575b50156107cc5760a063ffffffff91606060c09567ffffffffffffffff86168352805160408401526020810151602084015284608082015116848401526040810151828401520151608082015267ffffffffffffffff604051941684526020810151602085015260408101516040850152606081015160608501526080810151608085015201511660a0820152f35b60405162461bcd60e51b815260206004820152600f60248201527f696e76616c696420626c6b4861736800000000000000000000000000000000006044820152606490fd5b610833915060203d602011610839575b61082b8183610a0b565b810190610a2d565b8461073e565b503d610821565b6040513d6000823e3d90fd5b82935060208091600193945181520193019101849261071b565b634e487b7160e01b600052604160045260246000fd5b60405162461bcd60e51b815260206004820152601760248201527f696e636f727265637420626c6b566572696679496e666f0000000000000000006044820152606490fd5b6108da915060203d6020116108395761082b8183610a0b565b87610452565b60405162461bcd60e51b815260206004820152601660248201527f636861696e207665726966696572206e6f7420736574000000000000000000006044820152606490fd5b346100bb5760003660031901126100bb576020906001600160a01b03600254168152f35b6004359067ffffffffffffffff821682036100bb57565b9181601f840112156100bb5782359167ffffffffffffffff83116100bb57602083818601950101116100bb57565b600435906001600160a01b03821682036100bb57565b156109ab57565b606460405162461bcd60e51b815260206004820152602060248201527f4f776e61626c653a2063616c6c6572206973206e6f7420746865206f776e65726044820152fd5b60c0810190811067ffffffffffffffff82111761086657604052565b90601f8019910116810190811067ffffffffffffffff82111761086657604052565b908160209103126100bb575180151581036100bb5790565b60051b90611fe060e083169216820361051e57565b60ff166024019060ff821161051e5756fea264697066735822122093df16ca625454245c6df706e6a071d0dc912ab0eb5ad22fd0c78a29d9b86d7a64736f6c63430008120033",
  "devdoc": {
    "kind": "dev",
    "methods": {
      "owner()": {
        "details": "Returns the address of the current owner."
      },
      "renounceOwnership()": {
        "details": "Leaves the contract without owner. It will not be possible to call `onlyOwner` functions anymore. Can only be called by the current owner. NOTE: Renouncing ownership will leave the contract without an owner, thereby removing any functionality that is only available to the owner."
      },
      "transferOwnership(address)": {
        "details": "Transfers ownership of the contract to a new account (`newOwner`). Can only be called by the current owner."
      }
    },
    "version": 1
  },
  "userdoc": {
    "kind": "user",
    "methods": {},
    "version": 1
  },
  "storageLayout": {
    "storage": [
      {
        "astId": 7,
        "contract": "contracts/verifiers/SlotValueVerifier.sol:SlotValueVerifier",
        "label": "_owner",
        "offset": 0,
        "slot": "0",
        "type": "t_address"
      },
      {
        "astId": 5043,
        "contract": "contracts/verifiers/SlotValueVerifier.sol:SlotValueVerifier",
        "label": "verifierAddresses",
        "offset": 0,
        "slot": "1",
        "type": "t_mapping(t_uint64,t_address)"
      },
      {
        "astId": 5045,
        "contract": "contracts/verifiers/SlotValueVerifier.sol:SlotValueVerifier",
        "label": "BlockChunks",
        "offset": 0,
        "slot": "2",
        "type": "t_address"
      }
    ],
    "types": {
      "t_address": {
        "encoding": "inplace",
        "label": "address",
        "numberOfBytes": "20"
      },
      "t_mapping(t_uint64,t_address)": {
        "encoding": "mapping",
        "key": "t_uint64",
        "label": "mapping(uint64 => address)",
        "numberOfBytes": "32",
        "value": "t_address"
      },
      "t_uint64": {
        "encoding": "inplace",
        "label": "uint64",
        "numberOfBytes": "8"
      }
    }
  }
}