{
  "address": "0xDD2C004bFdE6b72E1a39c496288f6596d605Fe28",
  "abi": [
    {
      "inputs": [
        {
          "internalType": "uint256[2]",
          "name": "a",
          "type": "uint256[2]"
        },
        {
          "internalType": "uint256[2][2]",
          "name": "b",
          "type": "uint256[2][2]"
        },
        {
          "internalType": "uint256[2]",
          "name": "c",
          "type": "uint256[2]"
        },
        {
          "internalType": "uint256[2]",
          "name": "commit",
          "type": "uint256[2]"
        },
        {
          "internalType": "uint256[6]",
          "name": "input",
          "type": "uint256[6]"
        }
      ],
      "name": "verifyProof",
      "outputs": [
        {
          "internalType": "bool",
          "name": "r",
          "type": "bool"
        }
      ],
      "stateMutability": "view",
      "type": "function"
    },
    {
      "inputs": [
        {
          "internalType": "bytes",
          "name": "proofData",
          "type": "bytes"
        }
      ],
      "name": "verifyRaw",
      "outputs": [
        {
          "internalType": "bool",
          "name": "",
          "type": "bool"
        }
      ],
      "stateMutability": "view",
      "type": "function"
    }
  ],
  "transactionHash": "0x4ad1f127c30caaba265ce4ea3efa60ee658037a88384a765a0eb7c2a7898cb4e",
  "args": [],
  "numDeployments": 2,
  "solcInputHash": "1c8398edd641d654c2111f1e64384371",
  "bytecode": "0x6080806040523461001657611553908161001c8239f35b600080fdfe604060808152600436101561001357600080fd5b600090813560e01c9182633e6eeee51461003d57505063457726e61461003857600080fd5b610299565b346100db576102003660031901126100db5761005836610159565b9036606312156100db5761006a6100f4565b908160c4913683116100db57506044905b8282106100c2576100be866100ad87876100943661019b565b61009d366101d9565b916100a736610259565b93610704565b905190151581529081906020820190565b0390f35b602086916100d03685610219565b81520191019061007b565b80fd5b634e487b7160e01b600052604160045260246000fd5b604051906040820182811067ffffffffffffffff82111761011457604052565b6100de565b604051906080820182811067ffffffffffffffff82111761011457604052565b6040519060c0820182811067ffffffffffffffff82111761011457604052565b80602312156101965761016a6100f4565b90816044918211610196576004905b8282106101865750505090565b8135815260209182019101610179565b600080fd5b8060e31215610196576101ac6100f4565b90816101049182116101965760c4905b8282106101c95750505090565b81358152602091820191016101bc565b806101231215610196576101eb6100f4565b908161014491821161019657610104905b8282106102095750505090565b81358152602091820191016101fc565b9080601f830112156101965761022d6100f4565b80926040810192831161019657905b8282106102495750505090565b813581526020918201910161023c565b8061016312156101965761026b610139565b908161020491821161019657610144905b8282106102895750505090565b813581526020918201910161027c565b346101965760203660031901126101965767ffffffffffffffff6004358181116101965736602382011215610196578060040135918211610196573660248383010111610196576100be9160246102f092016113c8565b60405190151581529081906020820190565b61030a610119565b906080368337565b604051906060820182811067ffffffffffffffff821117610114576040526060368337565b604051906020820182811067ffffffffffffffff821117610114576040526020368337565b6103646100f4565b906040368337565b610374610139565b9060c0368337565b6103846100f4565b9061038d6100f4565b6040368237825261039c6100f4565b60403682376020830152565b6103b0610119565b906103b96100f4565b60009081815281602082015283526103cf61037c565b60208401526103dc6100f4565b81815281602082015260408401526103f26100f4565b9080825260208201526060830152565b634e487b7160e01b600052603260045260246000fd5b1561041f57565b60405162461bcd60e51b815260206004820152601760248201527f76657269666965722d61582d6774652d7072696d652d710000000000000000006044820152606490fd5b1561046b57565b60405162461bcd60e51b815260206004820152601760248201527f76657269666965722d61592d6774652d7072696d652d710000000000000000006044820152606490fd5b156104b757565b60405162461bcd60e51b815260206004820152601860248201527f76657269666965722d6258302d6774652d7072696d652d7100000000000000006044820152606490fd5b1561050357565b60405162461bcd60e51b815260206004820152601860248201527f76657269666965722d6259302d6774652d7072696d652d7100000000000000006044820152606490fd5b1561054f57565b60405162461bcd60e51b815260206004820152601860248201527f76657269666965722d6258312d6774652d7072696d652d7100000000000000006044820152606490fd5b1561059b57565b60405162461bcd60e51b815260206004820152601860248201527f76657269666965722d6259312d6774652d7072696d652d7100000000000000006044820152606490fd5b156105e757565b60405162461bcd60e51b815260206004820152601760248201527f76657269666965722d63582d6774652d7072696d652d710000000000000000006044820152606490fd5b1561063357565b60405162461bcd60e51b815260206004820152601760248201527f76657269666965722d63592d6774652d7072696d652d710000000000000000006044820152606490fd5b634e487b7160e01b600052601160045260246000fd5b600019811461069d5760010190565b610678565b9060068110156106b35760051b0190565b610402565b156106bf57565b60405162461bcd60e51b815260206004820152601f60248201527f76657269666965722d6774652d736e61726b2d7363616c61722d6669656c64006044820152606490fd5b949394929190926107136103a8565b81516020809301516107236100f4565b9182528382015281526107346100f4565b948051518652610745815160200190565b5183870152610764836107566100f4565b920180515183525160200190565b51838201526107716100f4565b9586528286015281810194855281835193015161078c6100f4565b93845282840152604081019283528351938281019485516107ab6100f4565b918252848201526060830190815261085f7f30644e72e131a029b85045b68181585d97816a916871ca8d3c208c16d87cfd476107ea8186515110610418565b6107f981878751015110610464565b610807818a515151106104b0565b61081781878b51015151106104fc565b61082e816108278b515160200190565b5110610548565b61084781610840888c51015160200190565b5110610594565b61085481885151106105e0565b85875101511061062c565b60005b60068110610b74575090610b4d979893929161087c610f90565b966108856100f4565b9260008452610b14848781019860008a5281996108a0610302565b918a60a06108ac610312565b927f1a491bb0eab85fa65a47fa72eeacd218377989211ed2bf60ce9ae1d30a049a926108d66100f4565b95600087526000858801527f278370b5ff090d0008e398144d927e65baf2619ae9dd7d91ca38362d591c67098952527f0c704ddbca6b61bead87bfa652eeb698cac8b2b1405dff2b655d449dd5cb291684527f27345997167c2487b661a2c877aaf6586fab5676a33863398cf74a904363e9e38385017f24df82b8764c4ca23e2e8cf0b9b5170462b5e4b81ef5f632bde3438a26ac50208152825194604087019586526109858a8a8a8a61120c565b7f1230e94b5253f5483525d7351f0960035633f29eb80172540b5cf9c79cb8470487527f297df342ae0a4c02c29b60efbdee398ed728138e7f46a02ea53723a23ae18d84825283015185526109dc8989898961120c565b7f1b245055f0a30d5e10b1128985f7d2c19c82de28c744ed07cd9dc8de6057486a86527f02711a0414930b2d4bb3dfb4b8cab87112bc49d3d42c89dab039256e3731a63a815260408301518552610a358989898961120c565b7f09e483df81adea20821cff8a828c7601bd418559c6e860c60355915e35ec51aa86527f2bd700540f58dc15c04259e8ec9fd0e961d94a6df14f696258fd96c065bf1462815260608301518552610a8e8989898961120c565b7f184f31ca1f12b89647dc7d50a69a2e2cd14c176f0f748504a4876df5911e190586527f05ac8fe1cf0774b5c3f0ccc77abecce2fac2b646f90555de76ec58ea304321e4815260808301518552610ae78989898961120c565b7f17c5e6501029b44ee37109287da3c321bebb913bc00b81951f012c2a3256370d8652520151905261120c565b511590811591610b69575b50610b50575b5050610b319051610bb7565b9451908451908501519160606040870151955196015196610dea565b90565b51919350610b3191610b6191610c9e565b929038610b25565b905051151538610b1f565b80610bad7f30644e72e131a029b85045b68181585d2833e84879b9709143e1f593f0000001610ba6610bb2948e6106a2565b51106106b8565b61068e565b610862565b60006020610bc36100f4565b8281520152805190811580610c35575b15610bf0575050610be26100f4565b600081526000602082015290565b602001517f30644e72e131a029b85045b68181585d97816a916871ca8d3c208c16d87cfd4790819006810390811161069d57610c2a6100f4565b918252602082015290565b50602081015115610bd3565b9060048110156106b35760051b0190565b15610c5957565b60405162461bcd60e51b815260206004820152601260248201527f70616972696e672d6164642d6661696c656400000000000000000000000000006044820152606490fd5b60609092919260c0610cae6100f4565b9160008352600060208401526020839681610cc7610119565b936080368637805185520151828401528051604084015201518482015260066107cf195a01fa8015610cfe57610cfc90610c52565b565bfe5b60405190610320820182811067ffffffffffffffff8211176101145760405260188252610300366020840137565b9060068202918083046006149015171561069d57565b906001820180921161069d57565b906002820180921161069d57565b906003820180921161069d57565b906004820180921161069d57565b906005820180921161069d57565b80518210156106b35760209160051b010190565b15610da557565b60405162461bcd60e51b815260206004820152601560248201527f70616972696e672d6f70636f64652d6661696c656400000000000000000000006044820152606490fd5b9491959692909396610dfa610119565b95865260209788978888015260408701526060860152610e18610119565b9384528584015260408301526060820152610e31610d00565b9160005b60048110610e6d57505050610300610e4b610337565b9384920160086107cf195a01fa8015610cfe57610e6790610d9e565b51151590565b610f3f9192939450610e7e81610d2e565b610e888285610c41565b5151610e948288610d8a565b5286610ea08386610c41565b510151610eb5610eaf83610d44565b88610d8a565b52610ec08286610c41565b515151610ecf610eaf83610d52565b52610ee5610edd8387610c41565b515160200190565b51610ef2610eaf83610d60565b5286610efe8387610c41565b51015151610f0e610eaf83610d6e565b52610f39610f33610f2c89610f23868a610c41565b51015160200190565b5192610d7c565b87610d8a565b5261068e565b9084939291610e35565b610f51610119565b90610f5a6100f4565b60008152600060208201528252610f6f61037c565b6020830152610f7c61037c565b6040830152610f8961037c565b6060830152565b610f98610f49565b90610fa16100f4565b7f26d5426d55d0da69438fa091e71763c98a25afda37ef9dde5ac44d094e74adf581526020907f08f227884512c05c0d133c1792310174c2c4948cb13612935a199f9fe9ee4cbe828201528352610ff66100f4565b7f245054e42e16b3fbda1adede4877fb6a0026bd6312690dfc3fe2d1db26e162a381527f06735b4774b430d73bc61585a397048c04287c21813d521e6a23eab25979c728828201526110466100f4565b7f14717c10ccacb71785fbdb5aa7df422dbb70b0f341f2424f75c6e6147f09106281527f23b0ba6deebff785e14642dd56f7fd0614fcfb10bcd8ad6c3965c1d88fef7159838201526110966100f4565b91825282820152818401526110a96100f4565b7f123223544df0d33e6c425533db08c6795f0545c91e5ab21cc1b68e9c929fd85d81527f207371de34bef39efd59de14a0846de003fb8264a1998da2dc6bbe165a16499a828201526110f96100f4565b7f178340f96467bee30203a5397f3bd21fa70fda2da6e26382f42db279f3d99d6681527f10a8fd9b10cd7d7f0c5a37b69776b8615095df6f4dd7bafdde22081cf1dd4ca4838201526111496100f4565b91825282820152604084015261115d6100f4565b907f251944fb44e694b5711b13d8db2516473fb9048371801dc48a186052e1af4ae582527f0ed51e154e0efef8fba7227a9e77ce4dee9ad117f0eb3db351be892c455ecf9d818301526111ae6100f4565b907f1f23153bb31217506de5de9e6c3669c3bca088fe184c77819a5fe1622dfc125e82527f255b49b79e7fcafb43765d219fc5c9229af70e9ca1996773f17ac5cac110c0af818301526111ff6100f4565b9283528201526060830152565b90929160608460806107cf19946007865a01fa15610cfe57600660c0926020606096865185528187015182860152805160408601520151868401525a01fa8015610cfe57610cfc90610c52565b906020116101965790602090565b906040116101965760200190602090565b906060116101965760400190602090565b906080116101965760600190602090565b9060a0116101965760800190602090565b9060c0116101965760a00190602090565b9060e0116101965760c00190602090565b90610100116101965760e00190602090565b9061012011610196576101000190602090565b9061014011610196576101200190602090565b9061016011610196576101400190602090565b9061018011610196576101600190602090565b906101a011610196576101800190602090565b906101c011610196576101a00190602090565b906101e011610196576101c00190602090565b9061020011610196576101e00190602090565b359060208110611385575090565b6000199060200360031b1b1690565b61139c6100f4565b9060005b604090818110156113c4576020916113b66100f4565b9036823781850152016113a0565b5050565b610b4d916113d461035c565b6113e76113e18385611259565b90611377565b81526113f66113e18385611267565b6020820152611403611394565b6114106113e18486611278565b8151526114206113e18486611289565b8151602001526114336113e1848661129a565b602082019081515261145361144b6113e186886112ab565b915160200190565b5261145c61035c565b9161146a6113e185876112bc565b83526114796113e185876112cd565b60208401526115136113e161148c61035c565b9561149a6113e1828a6112df565b87526114a96113e1828a6112f2565b60208801526114b661036c565b976114c46113e18383611305565b89526114d36113e18383611318565b60208a01526114e56113e1838361132b565b60408a01526114f76113e1838361133e565b60608a01526115096113e18383611351565b60808a0152611364565b60a086015261070456fea26469706673582212207ecbff9cdfa91602c2cb20de54381566e1d0057869339b545121566618fd4bd064736f6c63430008120033",
  "devdoc": {
    "kind": "dev",
    "methods": {},
    "version": 1
  },
  "userdoc": {
    "kind": "user",
    "methods": {},
    "version": 1
  },
  "storageLayout": {
    "storage": [],
    "types": null
  }
}