{
  "address": "0x0e38FDbDebB447B76568a57A71165fC0a669C9F8",
  "abi": [
    {
      "inputs": [
        {
          "internalType": "contract ITxVerifier",
          "name": "_txVerifier",
          "type": "address"
        }
      ],
      "stateMutability": "nonpayable",
      "type": "constructor"
    },
    {
      "anonymous": false,
      "inputs": [
        {
          "indexed": true,
          "internalType": "address",
          "name": "previousOwner",
          "type": "address"
        },
        {
          "indexed": true,
          "internalType": "address",
          "name": "newOwner",
          "type": "address"
        }
      ],
      "name": "OwnershipTransferred",
      "type": "event"
    },
    {
      "anonymous": false,
      "inputs": [
        {
          "indexed": false,
          "internalType": "uint64",
          "name": "chainId",
          "type": "uint64"
        },
        {
          "indexed": false,
          "internalType": "address",
          "name": "trader",
          "type": "address"
        },
        {
          "indexed": false,
          "internalType": "uint64",
          "name": "timestamp",
          "type": "uint64"
        },
        {
          "indexed": false,
          "internalType": "uint256",
          "name": "usdcAmount",
          "type": "uint256"
        },
        {
          "indexed": false,
          "internalType": "enum UniswapVolume.TierName",
          "name": "tier",
          "type": "uint8"
        }
      ],
      "name": "VerifiedSwap",
      "type": "event"
    },
    {
      "inputs": [],
      "name": "owner",
      "outputs": [
        {
          "internalType": "address",
          "name": "",
          "type": "address"
        }
      ],
      "stateMutability": "view",
      "type": "function"
    },
    {
      "inputs": [],
      "name": "renounceOwnership",
      "outputs": [],
      "stateMutability": "nonpayable",
      "type": "function"
    },
    {
      "inputs": [
        {
          "internalType": "enum UniswapVolume.TierName[]",
          "name": "_names",
          "type": "uint8[]"
        },
        {
          "internalType": "address[]",
          "name": "_nfts",
          "type": "address[]"
        }
      ],
      "name": "setTierNFTs",
      "outputs": [],
      "stateMutability": "nonpayable",
      "type": "function"
    },
    {
      "inputs": [
        {
          "internalType": "contract ITxVerifier",
          "name": "_txVerifier",
          "type": "address"
        }
      ],
      "name": "setTxVerifier",
      "outputs": [],
      "stateMutability": "nonpayable",
      "type": "function"
    },
    {
      "inputs": [
        {
          "internalType": "uint64",
          "name": "_chainId",
          "type": "uint64"
        },
        {
          "internalType": "address",
          "name": "_usdc",
          "type": "address"
        },
        {
          "internalType": "uint8",
          "name": "_decimal",
          "type": "uint8"
        }
      ],
      "name": "setUSDC",
      "outputs": [],
      "stateMutability": "nonpayable",
      "type": "function"
    },
    {
      "inputs": [
        {
          "internalType": "uint64",
          "name": "_chainId",
          "type": "uint64"
        },
        {
          "internalType": "address",
          "name": "_router",
          "type": "address"
        }
      ],
      "name": "setUniversalRouter",
      "outputs": [],
      "stateMutability": "nonpayable",
      "type": "function"
    },
    {
      "inputs": [
        {
          "internalType": "uint64",
          "name": "_chainId",
          "type": "uint64"
        },
        {
          "internalType": "address",
          "name": "_weth",
          "type": "address"
        }
      ],
      "name": "setWETH",
      "outputs": [],
      "stateMutability": "nonpayable",
      "type": "function"
    },
    {
      "inputs": [
        {
          "internalType": "bytes",
          "name": "_tx",
          "type": "bytes"
        },
        {
          "internalType": "bytes",
          "name": "_proof",
          "type": "bytes"
        },
        {
          "internalType": "bytes",
          "name": "_auxiBlkVerifyInfo",
          "type": "bytes"
        }
      ],
      "name": "submitUniswapTxProof",
      "outputs": [],
      "stateMutability": "nonpayable",
      "type": "function"
    },
    {
      "inputs": [
        {
          "internalType": "enum UniswapVolume.TierName",
          "name": "",
          "type": "uint8"
        }
      ],
      "name": "tierNFTs",
      "outputs": [
        {
          "internalType": "address",
          "name": "",
          "type": "address"
        }
      ],
      "stateMutability": "view",
      "type": "function"
    },
    {
      "inputs": [
        {
          "internalType": "address",
          "name": "newOwner",
          "type": "address"
        }
      ],
      "name": "transferOwnership",
      "outputs": [],
      "stateMutability": "nonpayable",
      "type": "function"
    },
    {
      "inputs": [],
      "name": "txVerifier",
      "outputs": [
        {
          "internalType": "contract ITxVerifier",
          "name": "",
          "type": "address"
        }
      ],
      "stateMutability": "view",
      "type": "function"
    },
    {
      "inputs": [
        {
          "internalType": "uint64",
          "name": "",
          "type": "uint64"
        }
      ],
      "name": "universalRouter",
      "outputs": [
        {
          "internalType": "address",
          "name": "",
          "type": "address"
        }
      ],
      "stateMutability": "view",
      "type": "function"
    },
    {
      "inputs": [
        {
          "internalType": "uint64",
          "name": "",
          "type": "uint64"
        }
      ],
      "name": "usdc",
      "outputs": [
        {
          "internalType": "address",
          "name": "",
          "type": "address"
        }
      ],
      "stateMutability": "view",
      "type": "function"
    },
    {
      "inputs": [
        {
          "internalType": "uint64",
          "name": "_chainId",
          "type": "uint64"
        },
        {
          "internalType": "bytes",
          "name": "_data",
          "type": "bytes"
        }
      ],
      "name": "usdcSwapAmount",
      "outputs": [
        {
          "internalType": "uint256",
          "name": "amount",
          "type": "uint256"
        },
        {
          "internalType": "enum UniswapVolume.TierName",
          "name": "tier",
          "type": "uint8"
        }
      ],
      "stateMutability": "view",
      "type": "function"
    },
    {
      "inputs": [
        {
          "internalType": "address",
          "name": "",
          "type": "address"
        }
      ],
      "name": "userTier",
      "outputs": [
        {
          "internalType": "enum UniswapVolume.TierName",
          "name": "",
          "type": "uint8"
        }
      ],
      "stateMutability": "view",
      "type": "function"
    },
    {
      "inputs": [
        {
          "internalType": "uint64",
          "name": "",
          "type": "uint64"
        }
      ],
      "name": "weth",
      "outputs": [
        {
          "internalType": "address",
          "name": "",
          "type": "address"
        }
      ],
      "stateMutability": "view",
      "type": "function"
    }
  ],
  "transactionHash": "0x9e835531813f935cc735ddaceb3a149f618a64c469e22e10b92551ce6bb6ec88",
  "args": [
    "0xD9C0bC3BCe36F478c71746d51B833C99E99D568F"
  ],
  "numDeployments": 4,
  "solcInputHash": "88412c49ed27190cac976e00b987d18e",
  "bytecode": "0x60803461013057601f6118ab38819003918201601f19168301916001600160401b038311848410176101355780849260209460405283398101031261013057516001600160a01b03808216918290036101305760005460018060a01b03199133838316176000553391167f8be0079c531659141344cd1fd0a4f28419497f9722a3daafe3b4186f6b6457e0600080a3601e602061009a61014b565b828152017f657865637574652862797465732c62797465735b5d2c75696e7432353629000081522060e01c6006549067ffffffff00000000601660206100de61014b565b828152017f657865637574652862797465732c62797465735b5d290000000000000000000081522060c01c169160018060401b03191617176006556001541617600155604051611740908161016b8239f35b600080fd5b634e487b7160e01b600052604160045260246000fd5b60408051919082016001600160401b038111838210176101355760405256fe6080604052600436101561001257600080fd5b60003560e01c80630f2ef5661461011757806321c7557c1461011257806323a45c931461010d57806327c5fc1314610108578063337ad58f14610103578063488c8719146100fe5780634cf88b22146100f95780634de359e8146100f4578063715018a6146100ef5780638da5cb5b146100ea57806395123685146100e5578063953cadad146100e05780639f38dbf9146100db578063a6806682146100d6578063e36fc1eb146100d15763f2fde38b146100cc57600080fd5b610af1565b610aa9565b610a75565b610a06565b6109ab565b61088d565b610835565b6107d4565b61078c565b6104bb565b6103f8565b6102f5565b610285565b61025e565b61020b565b610144565b67ffffffffffffffff81160361012e57565b600080fd5b6001600160a01b0381160361012e57565b3461012e57606036600319011261012e576004356101618161011c565b60243561016d81610133565b6044359060ff821680920361012e576101c89067ffffffffffffffff6000946101a16001600160a01b038754163314610ba0565b168452600460205260408420906001600160a01b03166001600160a01b0319825416179055565b6005602052604082209060ff1982541617905580f35b600711156101e857565b634e487b7160e01b600052602160045260246000fd5b9060078210156101e85752565b3461012e57602036600319011261012e576001600160a01b0360043561023081610133565b166000526008602052602060ff6040600020541661025160405180926101fe565bf35b600091031261012e57565b3461012e57600036600319011261012e5760206001600160a01b0360015416604051908152f35b3461012e57602036600319011261012e5767ffffffffffffffff6004356102ab8161011c565b16600052600460205260206001600160a01b0360406000205416604051908152f35b604090600319011261012e576004356102e58161011c565b906024356102f281610133565b90565b3461012e5761035067ffffffffffffffff61030f366102cd565b91906103276001600160a01b03600054163314610ba0565b1660005260026020526040600020906001600160a01b03166001600160a01b0319825416179055565b005b634e487b7160e01b600052604160045260246000fd5b67ffffffffffffffff811161037c57604052565b610352565b90601f8019910116810190811067ffffffffffffffff82111761037c57604052565b60405190610180820182811067ffffffffffffffff82111761037c57604052565b67ffffffffffffffff811161037c57601f01601f191660200190565b9081526040810192916103f691602001906101fe565b565b3461012e57604036600319011261012e576004356104158161011c565b6024359067ffffffffffffffff821161012e573660238301121561012e57816004013590610442826103c4565b916104506040519384610381565b808352366024828601011161012e576020816000926024610479970183870137840101526111d3565b90610489604051928392836103e0565b0390f35b9181601f8401121561012e5782359167ffffffffffffffff831161012e576020838186019501011161012e57565b3461012e57606036600319011261012e5767ffffffffffffffff6004803582811161012e576104ed903690830161048d565b929060243582811161012e57610506903690850161048d565b909260443590811161012e5761051f903690860161048d565b939091856105446105386001546001600160a01b031690565b6001600160a01b031690565b9261056a60405197889687958694631b08846f60e11b865260009d8e9b8c988801610dc5565b03925af190811561076157839161076a575b506105e661059460a08301516001600160a01b031690565b6001600160a01b036105de6105386105d16105b7875167ffffffffffffffff1690565b67ffffffffffffffff166000526002602052604060002090565b546001600160a01b031690565b911614610e0b565b610100810161063461062561061e61060584516001600160a01b031690565b6001600160a01b03166000526008602052604060002090565b5460ff1690565b61062e816101de565b15610e57565b610654610649835167ffffffffffffffff1690565b60e0840151906111d3565b6106718161066c61060586516001600160a01b031690565b610ead565b856106846105386105386105d185610a5c565b84516001600160a01b031690803b15610766576106c69783604051809a819582946335313c2160e11b845283019190916001600160a01b036020820193169052565b03925af1918215610761577fbb5393be0f0ddf4fc1bad219916823c8ae4d5b88379239a2f761043b51a8a63b9561074293610748575b50610736610160610726610718885167ffffffffffffffff1690565b96516001600160a01b031690565b96015167ffffffffffffffff1690565b60405195869586610ec5565b0390a180f35b8061075561075b92610368565b80610253565b386106fc565b610dff565b8280fd5b61078691503d8085833e61077e8183610381565b810190610cbc565b3861057c565b3461012e57602036600319011261012e5767ffffffffffffffff6004356107b28161011c565b16600052600260205260206001600160a01b0360406000205416604051908152f35b3461012e57600080600319360112610832578080546001600160a01b03196001600160a01b03821691610808338414610ba0565b1682557f8be0079c531659141344cd1fd0a4f28419497f9722a3daafe3b4186f6b6457e08280a380f35b80fd5b3461012e57600036600319011261012e5760206001600160a01b0360005416604051908152f35b9181601f8401121561012e5782359167ffffffffffffffff831161012e576020808501948460051b01011161012e57565b3461012e57604036600319011261012e5767ffffffffffffffff60043581811161012e576108bf90369060040161085c565b9160243590811161012e576108d890369060040161085c565b6108f16001600160a01b03600094939454163314610ba0565b8084036109665760005b84811061090457005b61095061091a610915838588610f30565b610f45565b61093561093061092b858a89610f30565b610f4f565b610a5c565b906001600160a01b03166001600160a01b0319825416179055565b6000198114610961576001016108fb565b610f04565b60405162461bcd60e51b815260206004820152600f60248201527f6c656e677468206d69736d6174636800000000000000000000000000000000006044820152606490fd5b3461012e5761035067ffffffffffffffff6109c5366102cd565b91906109dd6001600160a01b03600054163314610ba0565b1660005260036020526040600020906001600160a01b03166001600160a01b0319825416179055565b3461012e57602036600319011261012e57600435610a2381610133565b6001600160a01b0390610a3b82600054163314610ba0565b166001600160a01b03196001541617600155600080f35b6007111561012e57565b60078110156101e8576000526007602052604060002090565b3461012e57602036600319011261012e5760206001600160a01b03610a9f60043561093081610a52565b5416604051908152f35b3461012e57602036600319011261012e5767ffffffffffffffff600435610acf8161011c565b16600052600360205260206001600160a01b0360406000205416604051908152f35b3461012e57602036600319011261012e57600435610b0e81610133565b6001600160a01b03610b2581600054163314610ba0565b811615610b355761035090610beb565b60405162461bcd60e51b815260206004820152602660248201527f4f776e61626c653a206e6577206f776e657220697320746865207a65726f206160448201527f64647265737300000000000000000000000000000000000000000000000000006064820152608490fd5b15610ba757565b606460405162461bcd60e51b815260206004820152602060248201527f4f776e61626c653a2063616c6c6572206973206e6f7420746865206f776e65726044820152fd5b600054906001600160a01b0380911691826001600160a01b0319821617600055167f8be0079c531659141344cd1fd0a4f28419497f9722a3daafe3b4186f6b6457e0600080a3565b51906103f68261011c565b51906103f682610133565b919080601f8401121561012e57825190610c62826103c4565b91610c706040519384610381565b80835260209182828701011161012e5760005b818110610c9857508260009394955001015290565b8581018301518482018401528201610c83565b519063ffffffff8216820361012e57565b60208183031261012e57805167ffffffffffffffff9182821161012e5701906101808284031261012e57610cee6103a3565b92610cf883610c33565b8452610d0660208401610c33565b6020850152604083015160408501526060830151606085015260808301516080850152610d3560a08401610c3e565b60a085015260c083015160c085015260e083015191821161012e57610d5b918301610c49565b60e0830152610100610d6e818301610c3e565b90830152610120610d80818301610cab565b908301526101408082015190830152610d9d610160809201610c33565b9082015290565b908060209392818452848401376000828201840152601f01601f1916010190565b94929093610de36102f29795610df194606089526060890191610da4565b918683036020880152610da4565b926040818503910152610da4565b6040513d6000823e3d90fd5b15610e1257565b60405162461bcd60e51b815260206004820152601260248201527f696e76616c696420746f206164647265737300000000000000000000000000006044820152606490fd5b15610e5e57565b60405162461bcd60e51b815260206004820152602160248201527f7377617020616c72656164792070726f76656420666f722074686973207573656044820152603960f91b6064820152608490fd5b9060078110156101e85760ff80198354169116179055565b90936103f6946080939796946001600160a01b0360a085019967ffffffffffffffff8094168652166020850152166040830152606082015201906101fe565b634e487b7160e01b600052601160045260246000fd5b634e487b7160e01b600052603260045260246000fd5b9190811015610f405760051b0190565b610f1a565b356102f281610133565b356102f281610a52565b15610f6057565b60405162461bcd60e51b815260206004820152600c60248201527f77726f6e67206d6574686f6400000000000000000000000000000000000000006044820152606490fd5b60031981019190821161096157565b909160608284031261012e57815167ffffffffffffffff9081811161012e5784610fdf918501610c49565b936020908185015183811161012e57850181601f8201121561012e5780519380851161037c578460051b906040519561101a86840188610381565b865284808701928401019380851161012e57858401925b858410611048575050505050505060409092015190565b835183811161012e578791611062848480948a0101610c49565b815201930192611031565b805115610f405760200190565b805160011015610f405760210190565b805160011015610f405760400190565b156110a157565b60405162461bcd60e51b815260206004820152601360248201527f756e737570706f7274656420636f6d6d616e64000000000000000000000000006044820152606490fd5b919060a08382031261012e5782516110fd81610133565b92602081015192604082015192606083015167ffffffffffffffff811161012e5760809161112c918501610c49565b920151801515810361012e5790565b1561114257565b60405162461bcd60e51b815260206004820152601060248201527f756e737570706f727465642070616972000000000000000000000000000000006044820152606490fd5b1561118e57565b60405162461bcd60e51b815260206004820152601060248201527f7a65726f207573646320616d6f756e74000000000000000000000000000000006044820152606490fd5b91906112cf6112316112226112db9361121260208201516006549063ffffffff60e01b80911690808360e01b1682149283156113e6575b505050610f59565b61121c8151610fa5565b9061167f565b60208082518301019101610fb4565b5090603f6112676112418361106d565b517fff000000000000000000000000000000000000000000000000000000000000001690565b60f81c16600b811480156113dc575b156113c657506112ad6112a76112a16112c09361129a611241603f60f81b9261107a565b1660f81c90565b60ff1690565b9261108a565b51915b80159081156113bb575b5061109a565b602080825183010191016110e6565b50909250929092611517565b50926113016105386105d18867ffffffffffffffff166000526003602052604060002090565b6001600160a01b0392831690810361135c5750506102f292611349916113416105386105d18967ffffffffffffffff166000526004602052604060002090565b91161461113b565b80935b611357821515611187565b611461565b9092506113836105386105d18867ffffffffffffffff166000526004602052604060002090565b03611142576102f2926113b4916113416105386105d18967ffffffffffffffff166000526003602052604060002090565b809361134c565b6001915014386112ba565b916112c091506113d59061106d565b51916112b0565b50600a8114611276565b60c01b1614905038808061120a565b60ff16604d811161096157600a0a90565b90620f4240918083029283040361096157565b90620186a0918083029283040361096157565b90612710918083029283040361096157565b906103e8918083029283040361096157565b908160640291606483040361096157565b61148561061e61148a9267ffffffffffffffff166000526005602052604060002090565b6113f5565b61149381611406565b82106114a0575050600690565b6114a981611419565b82106114b6575050600590565b6114bf8161142c565b82106114cc575050600490565b6114d58161143e565b82106114e2575050600390565b6114eb90611450565b11156114f657600190565b600290565b90601f820180921161096157565b600401908160041161096157565b9061152660148351101561159b565b602082015160601c91601781511061155657603760178201519161154e602b8251101561159b565b015160601c91565b60405162461bcd60e51b815260206004820152601460248201527f746f55696e7432345f6f75744f66426f756e64730000000000000000000000006044820152606490fd5b156115a257565b60405162461bcd60e51b815260206004820152601560248201527f746f416464726573735f6f75744f66426f756e647300000000000000000000006044820152606490fd5b156115ee57565b60405162461bcd60e51b815260206004820152600e60248201527f736c6963655f6f766572666c6f770000000000000000000000000000000000006044820152606490fd5b1561163a57565b60405162461bcd60e51b815260206004820152601160248201527f736c6963655f6f75744f66426f756e64730000000000000000000000000000006044820152606490fd5b6116938261168c816114fb565b10156115e7565b6116a881516116a184611509565b1115611633565b816116c0575050604051600081526020810160405290565b60405191601f8116916004831560051b80858701019484860193010101905b8084106116f75750508252601f01601f191660405290565b90928351815260208091019301906116df56fea2646970667358221220466b8f4796875930dbebe6e9aafb5722cce089cff8602ffd196b91b991eca5cf64736f6c63430008120033",
  "devdoc": {
    "kind": "dev",
    "methods": {
      "owner()": {
        "details": "Returns the address of the current owner."
      },
      "renounceOwnership()": {
        "details": "Leaves the contract without owner. It will not be possible to call `onlyOwner` functions anymore. Can only be called by the current owner. NOTE: Renouncing ownership will leave the contract without an owner, thereby removing any functionality that is only available to the owner."
      },
      "transferOwnership(address)": {
        "details": "Transfers ownership of the contract to a new account (`newOwner`). Can only be called by the current owner."
      }
    },
    "version": 1
  },
  "userdoc": {
    "kind": "user",
    "methods": {},
    "version": 1
  },
  "storageLayout": {
    "storage": [
      {
        "astId": 7,
        "contract": "contracts/apps/uniswap-volume/UniswapVolume.sol:UniswapVolume",
        "label": "_owner",
        "offset": 0,
        "slot": "0",
        "type": "t_address"
      },
      {
        "astId": 3593,
        "contract": "contracts/apps/uniswap-volume/UniswapVolume.sol:UniswapVolume",
        "label": "txVerifier",
        "offset": 0,
        "slot": "1",
        "type": "t_contract(ITxVerifier)70362"
      },
      {
        "astId": 3597,
        "contract": "contracts/apps/uniswap-volume/UniswapVolume.sol:UniswapVolume",
        "label": "universalRouter",
        "offset": 0,
        "slot": "2",
        "type": "t_mapping(t_uint64,t_address)"
      },
      {
        "astId": 3601,
        "contract": "contracts/apps/uniswap-volume/UniswapVolume.sol:UniswapVolume",
        "label": "weth",
        "offset": 0,
        "slot": "3",
        "type": "t_mapping(t_uint64,t_address)"
      },
      {
        "astId": 3605,
        "contract": "contracts/apps/uniswap-volume/UniswapVolume.sol:UniswapVolume",
        "label": "usdc",
        "offset": 0,
        "slot": "4",
        "type": "t_mapping(t_uint64,t_address)"
      },
      {
        "astId": 3609,
        "contract": "contracts/apps/uniswap-volume/UniswapVolume.sol:UniswapVolume",
        "label": "usdcDecimal",
        "offset": 0,
        "slot": "5",
        "type": "t_mapping(t_uint64,t_uint8)"
      },
      {
        "astId": 3620,
        "contract": "contracts/apps/uniswap-volume/UniswapVolume.sol:UniswapVolume",
        "label": "executeSelector",
        "offset": 0,
        "slot": "6",
        "type": "t_bytes4"
      },
      {
        "astId": 3631,
        "contract": "contracts/apps/uniswap-volume/UniswapVolume.sol:UniswapVolume",
        "label": "executeNoDealineSelector",
        "offset": 4,
        "slot": "6",
        "type": "t_bytes4"
      },
      {
        "astId": 3644,
        "contract": "contracts/apps/uniswap-volume/UniswapVolume.sol:UniswapVolume",
        "label": "tierNFTs",
        "offset": 0,
        "slot": "7",
        "type": "t_mapping(t_enum(TierName)3639,t_address)"
      },
      {
        "astId": 3649,
        "contract": "contracts/apps/uniswap-volume/UniswapVolume.sol:UniswapVolume",
        "label": "userTier",
        "offset": 0,
        "slot": "8",
        "type": "t_mapping(t_address,t_enum(TierName)3639)"
      }
    ],
    "types": {
      "t_address": {
        "encoding": "inplace",
        "label": "address",
        "numberOfBytes": "20"
      },
      "t_bytes4": {
        "encoding": "inplace",
        "label": "bytes4",
        "numberOfBytes": "4"
      },
      "t_contract(ITxVerifier)70362": {
        "encoding": "inplace",
        "label": "contract ITxVerifier",
        "numberOfBytes": "20"
      },
      "t_enum(TierName)3639": {
        "encoding": "inplace",
        "label": "enum UniswapVolume.TierName",
        "numberOfBytes": "1"
      },
      "t_mapping(t_address,t_enum(TierName)3639)": {
        "encoding": "mapping",
        "key": "t_address",
        "label": "mapping(address => enum UniswapVolume.TierName)",
        "numberOfBytes": "32",
        "value": "t_enum(TierName)3639"
      },
      "t_mapping(t_enum(TierName)3639,t_address)": {
        "encoding": "mapping",
        "key": "t_enum(TierName)3639",
        "label": "mapping(enum UniswapVolume.TierName => address)",
        "numberOfBytes": "32",
        "value": "t_address"
      },
      "t_mapping(t_uint64,t_address)": {
        "encoding": "mapping",
        "key": "t_uint64",
        "label": "mapping(uint64 => address)",
        "numberOfBytes": "32",
        "value": "t_address"
      },
      "t_mapping(t_uint64,t_uint8)": {
        "encoding": "mapping",
        "key": "t_uint64",
        "label": "mapping(uint64 => uint8)",
        "numberOfBytes": "32",
        "value": "t_uint8"
      },
      "t_uint64": {
        "encoding": "inplace",
        "label": "uint64",
        "numberOfBytes": "8"
      },
      "t_uint8": {
        "encoding": "inplace",
        "label": "uint8",
        "numberOfBytes": "1"
      }
    }
  }
}