{
  "address": "0xA7Bdb5ad4E91db4eb83cd1EEfc8e4c959F159D83",
  "abi": [
    {
      "inputs": [
        {
          "internalType": "contract IReceiptVerifier",
          "name": "_receiptVerifier",
          "type": "address"
        }
      ],
      "stateMutability": "nonpayable",
      "type": "constructor"
    },
    {
      "anonymous": false,
      "inputs": [
        {
          "indexed": true,
          "internalType": "address",
          "name": "previousOwner",
          "type": "address"
        },
        {
          "indexed": true,
          "internalType": "address",
          "name": "newOwner",
          "type": "address"
        }
      ],
      "name": "OwnershipTransferred",
      "type": "event"
    },
    {
      "anonymous": false,
      "inputs": [
        {
          "indexed": false,
          "internalType": "uint64",
          "name": "chainId",
          "type": "uint64"
        },
        {
          "indexed": false,
          "internalType": "uint64",
          "name": "blknum",
          "type": "uint64"
        },
        {
          "indexed": false,
          "internalType": "address",
          "name": "from",
          "type": "address"
        },
        {
          "indexed": false,
          "internalType": "uint256",
          "name": "number",
          "type": "uint256"
        }
      ],
      "name": "VerifiedNumber",
      "type": "event"
    },
    {
      "inputs": [],
      "name": "owner",
      "outputs": [
        {
          "internalType": "address",
          "name": "",
          "type": "address"
        }
      ],
      "stateMutability": "view",
      "type": "function"
    },
    {
      "inputs": [],
      "name": "receiptVerifier",
      "outputs": [
        {
          "internalType": "contract IReceiptVerifier",
          "name": "",
          "type": "address"
        }
      ],
      "stateMutability": "view",
      "type": "function"
    },
    {
      "inputs": [],
      "name": "renounceOwnership",
      "outputs": [],
      "stateMutability": "nonpayable",
      "type": "function"
    },
    {
      "inputs": [
        {
          "internalType": "contract IReceiptVerifier",
          "name": "_receiptVerifier",
          "type": "address"
        }
      ],
      "name": "setReceiptVerifier",
      "outputs": [],
      "stateMutability": "nonpayable",
      "type": "function"
    },
    {
      "inputs": [
        {
          "internalType": "uint64",
          "name": "_chainId",
          "type": "uint64"
        },
        {
          "internalType": "address",
          "name": "_contract",
          "type": "address"
        }
      ],
      "name": "setSrcContract",
      "outputs": [],
      "stateMutability": "nonpayable",
      "type": "function"
    },
    {
      "inputs": [
        {
          "internalType": "uint64",
          "name": "",
          "type": "uint64"
        }
      ],
      "name": "srcContract",
      "outputs": [
        {
          "internalType": "address",
          "name": "",
          "type": "address"
        }
      ],
      "stateMutability": "view",
      "type": "function"
    },
    {
      "inputs": [
        {
          "internalType": "bytes",
          "name": "_receipt",
          "type": "bytes"
        },
        {
          "internalType": "bytes",
          "name": "_proof",
          "type": "bytes"
        },
        {
          "internalType": "bytes",
          "name": "_auxiBlkVerifyInfo",
          "type": "bytes"
        }
      ],
      "name": "submitNumberReceiptProof",
      "outputs": [],
      "stateMutability": "nonpayable",
      "type": "function"
    },
    {
      "inputs": [
        {
          "internalType": "address",
          "name": "newOwner",
          "type": "address"
        }
      ],
      "name": "transferOwnership",
      "outputs": [],
      "stateMutability": "nonpayable",
      "type": "function"
    }
  ],
  "transactionHash": "0xea5be7bf74fff284c8aec633fa02b96c4925412547fb20be92c5d898f3f64ed4",
  "args": [
    "0xbb1e07e77d298a763D9CB7097dC70CfcBe7052e4"
  ],
  "numDeployments": 2,
  "solcInputHash": "50fd67eb810644417db095ab6c0434e7",
  "bytecode": "0x608034610106576001600160401b0390601f610e4738819003918201601f19168301918483118484101761010b5780849260209460405283398101031261010657516001600160a01b0380821692909183900361010657600090815460018060a01b031993338583161784553391167f8be0079c531659141344cd1fd0a4f28419497f9722a3daafe3b4186f6b6457e08480a3604051916040830191838310908311176100f25750601b91602091604052828152017f53656e644e756d62657228616464726573732c75696e743235362900000000008152206003556001541617600155604051610d2590816101228239f35b634e487b7160e01b81526041600452602490fd5b600080fd5b634e487b7160e01b600052604160045260246000fdfe6080604052600436101561001257600080fd5b6000803560e01c9081632b4fc2001461009a575080634710f6d114610095578063715018a6146100905780638da5cb5b1461008b578063c941746114610086578063f22074f014610081578063f2fde38b1461007c5763fdb2965e1461007757600080fd5b610643565b610592565b610546565b6104d7565b61049f565b610441565b610127565b346100df5760203660031901126100df5760406001600160a01b039167ffffffffffffffff6004356100cb816100e2565b168152600260205220541660805260206080f35b80fd5b67ffffffffffffffff8116036100f457565b600080fd5b9181601f840112156100f45782359167ffffffffffffffff83116100f457602083818601950101116100f457565b346100f4576060806003193601126100f45767ffffffffffffffff906004358281116100f45761015b9036906004016100f9565b9190926024358181116100f4576101769036906004016100f9565b9290936044359283116100f4576101946101e09336906004016100f9565b90966001976101b96101ad8a546001600160a01b031690565b6001600160a01b031690565b91604097885197889586948593631ccb6d3d60e11b855260009d8e9a8b9760048801610a42565b03925af191821561043c578492610418575b50610211600160f81b60ff60f81b61020a8551610a8b565b1614610ab9565b60e082019061025561024861022e845167ffffffffffffffff1690565b67ffffffffffffffff166000526002602052604060002090565b546001600160a01b031690565b918587879388956001600160a01b038a9116925b61030a575b50505060806102bc6103049594936102ae7fdf57525f8b726ad747267d5fd6ca5fa2934198b708305f8716362dca43146ba59a9b6102c895151514610bc0565b5167ffffffffffffffff1690565b95015163ffffffff1690565b945194859485909493926001600160a01b039063ffffffff60609467ffffffffffffffff60808601991685521660208401521660408201520152565b0390a180f35b81880180518051831015610411576103376101ad610329858894610b52565b51516001600160a01b031690565b14806103ee575b6103595750906103508b949392610b05565b90919293610269565b949061030497507fdf57525f8b726ad747267d5fd6ca5fa2934198b708305f8716362dca43146ba59a9b96506102c89450608093506102bc92506103de6103d98b6103d1846103ca6103c46103bf856103b78f9a6102ae9b51610b52565b510151610c58565b610b66565b60601c90565b9a51610b52565b510151610ca5565b610b9d565b968095509b9a505093949561026e565b5061040760206103ff848451610b52565b510151610b40565b516003541461033e565b505061026e565b6104359192503d8086833e61042d8183610734565b81019061094d565b90386101f2565b610a7f565b346100f4576000806003193601126100df578080546001600160a01b03196001600160a01b0382169161047533841461066a565b1682557f8be0079c531659141344cd1fd0a4f28419497f9722a3daafe3b4186f6b6457e08280a380f35b346100f45760003660031901126100f45760206001600160a01b0360005416604051908152f35b6001600160a01b038116036100f457565b346100f45760403660031901126100f4576004356104f4816100e2565b60243590610501826104c6565b67ffffffffffffffff6001600160a01b03916105228360005416331461066a565b166000526002602052604060002091166001600160a01b0319825416179055600080f35b346100f45760203660031901126100f457600435610563816104c6565b6001600160a01b039061057b8260005416331461066a565b166001600160a01b03196001541617600155600080f35b346100f45760203660031901126100f4576004356105af816104c6565b6001600160a01b036105c68160005416331461066a565b8116156105d8576105d6906106b5565b005b60405162461bcd60e51b815260206004820152602660248201527f4f776e61626c653a206e6577206f776e657220697320746865207a65726f206160448201527f64647265737300000000000000000000000000000000000000000000000000006064820152608490fd5b346100f45760003660031901126100f45760206001600160a01b0360015416604051908152f35b1561067157565b606460405162461bcd60e51b815260206004820152602060248201527f4f776e61626c653a2063616c6c6572206973206e6f7420746865206f776e65726044820152fd5b600054906001600160a01b0380911691826001600160a01b0319821617600055167f8be0079c531659141344cd1fd0a4f28419497f9722a3daafe3b4186f6b6457e0600080a3565b634e487b7160e01b600052604160045260246000fd5b6060810190811067ffffffffffffffff82111761072f57604052565b6106fd565b90601f8019910116810190811067ffffffffffffffff82111761072f57604052565b60405190610100820182811067ffffffffffffffff82111761072f57604052565b919080601f840112156100f45782519067ffffffffffffffff821161072f57604051916020916107b0601f8301601f1916840185610734565b8184528282870101116100f45760005b8181106107d557508260009394955001015290565b85810183015184820184015282016107c0565b51906107f3826100e2565b565b67ffffffffffffffff811161072f5760051b60200190565b81601f820112156100f457805190610824826107f5565b92604061083381519586610734565b8385526020938486019185600592831b860101948486116100f457868101935b86851061086557505050505050505090565b845167ffffffffffffffff908181116100f457830191606080601f19858b0301126100f45785519061089682610713565b8b8501516108a3816104c6565b8252868501518481116100f45785018a603f820112156100f457808d80920151896108cd826107f5565b936108da82519586610734565b8285528401918c1b830101918d83116100f4578f908b01915b83831061092b57509150508301528401519283116100f45761091c898c80969581960101610777565b86820152815201940193610853565b819083518152019101908f906108f3565b519063ffffffff821682036100f457565b6020818303126100f457805167ffffffffffffffff918282116100f4570191610100838203126100f45761097f610756565b9280518381116100f45782610995918301610777565b84526109a3602082016107e8565b602085015260408101518381116100f457826109c0918301610777565b604085015260608101519283116100f4576109e260e092610a1994830161080d565b60608501526109f36080820161093c565b608085015260a081015160a0850152610a0e60c082016107e8565b60c0850152016107e8565b60e082015290565b908060209392818452848401376000828201840152601f01601f1916010190565b94929093610a60610a7c9795610a6e94606089526060890191610a21565b918683036020880152610a21565b926040818503910152610a21565b90565b6040513d6000823e3d90fd5b906020825192015160ff60f81b908181169360018110610aaa57505050565b60010360031b82901b16169150565b15610ac057565b60405162461bcd60e51b815260206004820152601660248201527f7265636569707420737461747573206973206661696c000000000000000000006044820152606490fd5b6000198114610b145760010190565b634e487b7160e01b600052601160045260246000fd5b634e487b7160e01b600052603260045260246000fd5b805115610b4d5760200190565b610b2a565b8051821015610b4d5760209160051b010190565b90602082519201516bffffffffffffffffffffffff19908181169360148110610b8e57505050565b60140360031b82901b16169150565b602081519101519060208110610bb1575090565b6000199060200360031b1b1690565b15610bc757565b60405162461bcd60e51b815260206004820152601a60248201527f6661696c20746f2066696e6420746865206576656e74206c6f670000000000006044820152606490fd5b15610c1357565b60405162461bcd60e51b815260206004820152601160248201527f736c6963655f6f75744f66426f756e64730000000000000000000000000000006044820152606490fd5b6020610c678183511015610c0c565b60405191601483019180602885019201915b808410610c945750506014835250601f01601f191660405290565b825184529281019291810191610c79565b610cb3604082511015610c0c565b6040519060208083019160408085019101905b808410610cde5750508252601f01601f191660405290565b815184529282019290820190610cc656fea26469706673582212201133ec86744a8a2ece6b982a6b263ea826e3379ca563fd894158ef2ffbefb0f464736f6c63430008120033",
  "devdoc": {
    "kind": "dev",
    "methods": {
      "owner()": {
        "details": "Returns the address of the current owner."
      },
      "renounceOwnership()": {
        "details": "Leaves the contract without owner. It will not be possible to call `onlyOwner` functions anymore. Can only be called by the current owner. NOTE: Renouncing ownership will leave the contract without an owner, thereby removing any functionality that is only available to the owner."
      },
      "transferOwnership(address)": {
        "details": "Transfers ownership of the contract to a new account (`newOwner`). Can only be called by the current owner."
      }
    },
    "version": 1
  },
  "userdoc": {
    "kind": "user",
    "methods": {},
    "version": 1
  },
  "storageLayout": {
    "storage": [
      {
        "astId": 7,
        "contract": "contracts/apps/receipt-demo/VerifyEmitNumber.sol:VerifyEmitNumber",
        "label": "_owner",
        "offset": 0,
        "slot": "0",
        "type": "t_address"
      },
      {
        "astId": 137,
        "contract": "contracts/apps/receipt-demo/VerifyEmitNumber.sol:VerifyEmitNumber",
        "label": "receiptVerifier",
        "offset": 0,
        "slot": "1",
        "type": "t_contract(IReceiptVerifier)395"
      },
      {
        "astId": 162,
        "contract": "contracts/apps/receipt-demo/VerifyEmitNumber.sol:VerifyEmitNumber",
        "label": "srcContract",
        "offset": 0,
        "slot": "2",
        "type": "t_mapping(t_uint64,t_address)"
      },
      {
        "astId": 170,
        "contract": "contracts/apps/receipt-demo/VerifyEmitNumber.sol:VerifyEmitNumber",
        "label": "logTopic",
        "offset": 0,
        "slot": "3",
        "type": "t_bytes32"
      }
    ],
    "types": {
      "t_address": {
        "encoding": "inplace",
        "label": "address",
        "numberOfBytes": "20"
      },
      "t_bytes32": {
        "encoding": "inplace",
        "label": "bytes32",
        "numberOfBytes": "32"
      },
      "t_contract(IReceiptVerifier)395": {
        "encoding": "inplace",
        "label": "contract IReceiptVerifier",
        "numberOfBytes": "20"
      },
      "t_mapping(t_uint64,t_address)": {
        "encoding": "mapping",
        "key": "t_uint64",
        "label": "mapping(uint64 => address)",
        "numberOfBytes": "32",
        "value": "t_address"
      },
      "t_uint64": {
        "encoding": "inplace",
        "label": "uint64",
        "numberOfBytes": "8"
      }
    }
  }
}