{
  "address": "0x1d347182554FD6B40846E60c40ae42eac42EDAC2",
  "abi": [
    {
      "inputs": [
        {
          "internalType": "address",
          "name": "_messageBridge",
          "type": "address"
        }
      ],
      "stateMutability": "nonpayable",
      "type": "constructor"
    },
    {
      "anonymous": false,
      "inputs": [
        {
          "indexed": false,
          "internalType": "address",
          "name": "vaultToken",
          "type": "address"
        },
        {
          "indexed": false,
          "internalType": "address",
          "name": "pegToken",
          "type": "address"
        }
      ],
      "name": "BridgeTokenAdded",
      "type": "event"
    },
    {
      "anonymous": false,
      "inputs": [
        {
          "indexed": false,
          "internalType": "address",
          "name": "vaultToken",
          "type": "address"
        },
        {
          "indexed": false,
          "internalType": "address",
          "name": "pegToken",
          "type": "address"
        }
      ],
      "name": "BridgeTokenDeleted",
      "type": "event"
    },
    {
      "anonymous": false,
      "inputs": [
        {
          "indexed": false,
          "internalType": "bytes32",
          "name": "burnId",
          "type": "bytes32"
        },
        {
          "indexed": false,
          "internalType": "address",
          "name": "burnAccount",
          "type": "address"
        },
        {
          "indexed": false,
          "internalType": "address",
          "name": "token",
          "type": "address"
        },
        {
          "indexed": false,
          "internalType": "uint256",
          "name": "amount",
          "type": "uint256"
        },
        {
          "indexed": false,
          "internalType": "address",
          "name": "withdrawAccount",
          "type": "address"
        },
        {
          "indexed": false,
          "internalType": "uint64",
          "name": "nonce",
          "type": "uint64"
        },
        {
          "indexed": false,
          "internalType": "bytes32",
          "name": "messageId",
          "type": "bytes32"
        }
      ],
      "name": "Burn",
      "type": "event"
    },
    {
      "anonymous": false,
      "inputs": [
        {
          "indexed": false,
          "internalType": "address",
          "name": "token",
          "type": "address"
        },
        {
          "indexed": false,
          "internalType": "uint256",
          "name": "amount",
          "type": "uint256"
        }
      ],
      "name": "MinBurnUpdated",
      "type": "event"
    },
    {
      "anonymous": false,
      "inputs": [
        {
          "indexed": false,
          "internalType": "bytes32",
          "name": "mintId",
          "type": "bytes32"
        },
        {
          "indexed": false,
          "internalType": "address",
          "name": "account",
          "type": "address"
        },
        {
          "indexed": false,
          "internalType": "address",
          "name": "token",
          "type": "address"
        },
        {
          "indexed": false,
          "internalType": "uint256",
          "name": "amount",
          "type": "uint256"
        },
        {
          "indexed": false,
          "internalType": "bytes32",
          "name": "refId",
          "type": "bytes32"
        },
        {
          "indexed": false,
          "internalType": "address",
          "name": "depositor",
          "type": "address"
        }
      ],
      "name": "Mint",
      "type": "event"
    },
    {
      "anonymous": false,
      "inputs": [
        {
          "indexed": true,
          "internalType": "address",
          "name": "previousOwner",
          "type": "address"
        },
        {
          "indexed": true,
          "internalType": "address",
          "name": "newOwner",
          "type": "address"
        }
      ],
      "name": "OwnershipTransferred",
      "type": "event"
    },
    {
      "inputs": [
        {
          "internalType": "address",
          "name": "_token",
          "type": "address"
        },
        {
          "internalType": "uint256",
          "name": "_amount",
          "type": "uint256"
        },
        {
          "internalType": "uint64",
          "name": "_toChainId",
          "type": "uint64"
        },
        {
          "internalType": "address",
          "name": "_withdrawAccount",
          "type": "address"
        },
        {
          "internalType": "uint64",
          "name": "_nonce",
          "type": "uint64"
        }
      ],
      "name": "burn",
      "outputs": [
        {
          "internalType": "bytes32",
          "name": "",
          "type": "bytes32"
        }
      ],
      "stateMutability": "nonpayable",
      "type": "function"
    },
    {
      "inputs": [
        {
          "internalType": "address[]",
          "name": "_pegTokens",
          "type": "address[]"
        }
      ],
      "name": "deletePegTokens",
      "outputs": [],
      "stateMutability": "nonpayable",
      "type": "function"
    },
    {
      "inputs": [
        {
          "internalType": "address[]",
          "name": "_vaultTokens",
          "type": "address[]"
        }
      ],
      "name": "deleteVaultTokens",
      "outputs": [],
      "stateMutability": "nonpayable",
      "type": "function"
    },
    {
      "inputs": [],
      "name": "messageBridge",
      "outputs": [
        {
          "internalType": "address",
          "name": "",
          "type": "address"
        }
      ],
      "stateMutability": "view",
      "type": "function"
    },
    {
      "inputs": [
        {
          "internalType": "address",
          "name": "",
          "type": "address"
        }
      ],
      "name": "minBurn",
      "outputs": [
        {
          "internalType": "uint256",
          "name": "",
          "type": "uint256"
        }
      ],
      "stateMutability": "view",
      "type": "function"
    },
    {
      "inputs": [],
      "name": "owner",
      "outputs": [
        {
          "internalType": "address",
          "name": "",
          "type": "address"
        }
      ],
      "stateMutability": "view",
      "type": "function"
    },
    {
      "inputs": [
        {
          "internalType": "address",
          "name": "",
          "type": "address"
        }
      ],
      "name": "pegToVaultTokens",
      "outputs": [
        {
          "internalType": "address",
          "name": "",
          "type": "address"
        }
      ],
      "stateMutability": "view",
      "type": "function"
    },
    {
      "inputs": [
        {
          "internalType": "address",
          "name": "_sender",
          "type": "address"
        },
        {
          "internalType": "bytes",
          "name": "_message",
          "type": "bytes"
        }
      ],
      "name": "receiveMessage",
      "outputs": [],
      "stateMutability": "nonpayable",
      "type": "function"
    },
    {
      "inputs": [
        {
          "internalType": "bytes32",
          "name": "",
          "type": "bytes32"
        }
      ],
      "name": "records",
      "outputs": [
        {
          "internalType": "bool",
          "name": "",
          "type": "bool"
        }
      ],
      "stateMutability": "view",
      "type": "function"
    },
    {
      "inputs": [],
      "name": "remoteTokenVault",
      "outputs": [
        {
          "internalType": "address",
          "name": "",
          "type": "address"
        }
      ],
      "stateMutability": "view",
      "type": "function"
    },
    {
      "inputs": [],
      "name": "renounceOwnership",
      "outputs": [],
      "stateMutability": "nonpayable",
      "type": "function"
    },
    {
      "inputs": [
        {
          "internalType": "address[]",
          "name": "_vaultTokens",
          "type": "address[]"
        },
        {
          "internalType": "address[]",
          "name": "_pegTokens",
          "type": "address[]"
        }
      ],
      "name": "setBridgeTokens",
      "outputs": [],
      "stateMutability": "nonpayable",
      "type": "function"
    },
    {
      "inputs": [
        {
          "internalType": "address",
          "name": "_messageBridge",
          "type": "address"
        }
      ],
      "name": "setMessageBridge",
      "outputs": [],
      "stateMutability": "nonpayable",
      "type": "function"
    },
    {
      "inputs": [
        {
          "internalType": "address[]",
          "name": "_tokens",
          "type": "address[]"
        },
        {
          "internalType": "uint256[]",
          "name": "_amounts",
          "type": "uint256[]"
        }
      ],
      "name": "setMinBurn",
      "outputs": [],
      "stateMutability": "nonpayable",
      "type": "function"
    },
    {
      "inputs": [
        {
          "internalType": "address",
          "name": "_remoteTokenVault",
          "type": "address"
        }
      ],
      "name": "setRemoteTokenVault",
      "outputs": [],
      "stateMutability": "nonpayable",
      "type": "function"
    },
    {
      "inputs": [
        {
          "internalType": "address",
          "name": "",
          "type": "address"
        }
      ],
      "name": "supplies",
      "outputs": [
        {
          "internalType": "uint256",
          "name": "",
          "type": "uint256"
        }
      ],
      "stateMutability": "view",
      "type": "function"
    },
    {
      "inputs": [
        {
          "internalType": "address",
          "name": "newOwner",
          "type": "address"
        }
      ],
      "name": "transferOwnership",
      "outputs": [],
      "stateMutability": "nonpayable",
      "type": "function"
    },
    {
      "inputs": [
        {
          "internalType": "address",
          "name": "",
          "type": "address"
        }
      ],
      "name": "vaultToPegTokens",
      "outputs": [
        {
          "internalType": "address",
          "name": "",
          "type": "address"
        }
      ],
      "stateMutability": "view",
      "type": "function"
    }
  ],
  "transactionHash": "0xdf2439a61ae72bd39f8298129a293d1537d851aad18d7f23b1167795df433bec",
  "args": [
    "0x5d748Cb4767D44842626122ED399177207ffD458"
  ],
  "numDeployments": 4,
  "solcInputHash": "ed97ce3b095369a6c844b227ea03481b",
  "bytecode": "0x608060405234801561001057600080fd5b5060405161172338038061172383398101604081905261002f916100af565b6100383361005d565b600080546001600160a01b0319166001600160a01b03929092169190911790556100df565b600180546001600160a01b038381166001600160a01b0319831681179093556040519116919082907f8be0079c531659141344cd1fd0a4f28419497f9722a3daafe3b4186f6b6457e090600090a35050565b6000602082840312156100c157600080fd5b81516001600160a01b03811681146100d857600080fd5b9392505050565b611635806100ee6000396000f3fe608060405234801561001057600080fd5b50600436106101365760003560e01c80637f856013116100b2578063a93ce09911610081578063bf4816f011610066578063bf4816f0146102e5578063f2fde38b146102f8578063fdbcd5db1461030b57600080fd5b8063a93ce099146102bf578063bca8db71146102d257600080fd5b80637f856013146102525780638da5cb5b1461027257806390fc2e2514610283578063a0029301146102ac57600080fd5b8063274cee311161010957806333a42db1116100ee57806333a42db11461022457806340b6cc3414610237578063715018a61461024a57600080fd5b8063274cee31146101c65780632be16dce146101f457600080fd5b806301e647251461013b5780630627d075146101735780630745fcce1461019e5780631cd90061146101b3575b600080fd5b61015e610149366004611264565b60026020526000908152604090205460ff1681565b60405190151581526020015b60405180910390f35b600754610186906001600160a01b031681565b6040516001600160a01b03909116815260200161016a565b6101b16101ac3660046112c9565b610334565b005b6101b16101c1366004611320565b610467565b6101e66101d4366004611320565b60036020526000908152604090205481565b60405190815260200161016a565b6101b1610202366004611320565b600080546001600160a01b0319166001600160a01b0392909216919091179055565b600054610186906001600160a01b031681565b6101b16102453660046112c9565b6104e3565b6101b1610601565b6101e6610260366004611320565b60066020526000908152604090205481565b6001546001600160a01b0316610186565b610186610291366004611320565b6005602052600090815260409020546001600160a01b031681565b6101e66102ba366004611361565b610667565b6101b16102cd3660046113c3565b6106e5565b6101b16102e036600461142f565b61093c565b6101b16102f33660046113c3565b6109fd565b6101b1610306366004611320565b610b96565b610186610319366004611320565b6004602052600090815260409020546001600160a01b031681565b6001546001600160a01b031633146103935760405162461bcd60e51b815260206004820181905260248201527f4f776e61626c653a2063616c6c6572206973206e6f7420746865206f776e657260448201526064015b60405180910390fd5b60005b818110156104625760008383838181106103b2576103b26114b4565b90506020020160208101906103c79190611320565b6001600160a01b03818116600081815260056020818152604080842080549096168085526004835281852080546001600160a01b0319908116909155948690529282528554909316909455815181815293840192909252929350917f2ff7cbe4f1f12bb7d93999c06304c58410c46ebb8ddbcba627d52d93a6aaffb1910160405180910390a15050808061045a906114e0565b915050610396565b505050565b6001546001600160a01b031633146104c15760405162461bcd60e51b815260206004820181905260248201527f4f776e61626c653a2063616c6c6572206973206e6f7420746865206f776e6572604482015260640161038a565b600780546001600160a01b0319166001600160a01b0392909216919091179055565b6001546001600160a01b0316331461053d5760405162461bcd60e51b815260206004820181905260248201527f4f776e61626c653a2063616c6c6572206973206e6f7420746865206f776e6572604482015260640161038a565b60005b8181101561046257600083838381811061055c5761055c6114b4565b90506020020160208101906105719190611320565b6001600160a01b03818116600081815260046020908152604080832080546001600160a01b031980821690925590951680845260058352928190208054909516909455835192835282018190529293507f2ff7cbe4f1f12bb7d93999c06304c58410c46ebb8ddbcba627d52d93a6aaffb1910160405180910390a1505080806105f9906114e0565b915050610540565b6001546001600160a01b0316331461065b5760405162461bcd60e51b815260206004820181905260248201527f4f776e61626c653a2063616c6c6572206973206e6f7420746865206f776e6572604482015260640161038a565b6106656000610c78565b565b6000806106778787878787610cca565b604051632770a7eb60e21b8152336004820152602481018890529091506001600160a01b03881690639dc29fac90604401600060405180830381600087803b1580156106c257600080fd5b505af11580156106d6573d6000803e3d6000fd5b50929998505050505050505050565b6001546001600160a01b0316331461073f5760405162461bcd60e51b815260206004820181905260248201527f4f776e61626c653a2063616c6c6572206973206e6f7420746865206f776e6572604482015260640161038a565b8281146107805760405162461bcd60e51b815260206004820152600f60248201526e0d8cadccee8d040dad2e6dac2e8c6d608b1b604482015260640161038a565b60005b838110156109355782828281811061079d5761079d6114b4565b90506020020160208101906107b29190611320565b600460008787858181106107c8576107c86114b4565b90506020020160208101906107dd9190611320565b6001600160a01b039081168252602082019290925260400160002080546001600160a01b03191692909116919091179055848482818110610820576108206114b4565b90506020020160208101906108359190611320565b6005600085858581811061084b5761084b6114b4565b90506020020160208101906108609190611320565b6001600160a01b039081168252602082019290925260400160002080546001600160a01b031916929091169190911790557feabeda8c7848101043c4c7d8a980cbc9078963ea815cd1cdfcab1dfdc80eb9118585838181106108c4576108c46114b4565b90506020020160208101906108d99190611320565b8484848181106108eb576108eb6114b4565b90506020020160208101906109009190611320565b604080516001600160a01b0393841681529290911660208301520160405180910390a18061092d816114e0565b915050610783565b5050505050565b6000546001600160a01b031633146109965760405162461bcd60e51b815260206004820152601c60248201527f63616c6c6572206973206e6f74206d6573736167652062726964676500000000604482015260640161038a565b6007546001600160a01b038481169116146109f35760405162461bcd60e51b815260206004820181905260248201527f73656e646572206973206e6f742072656d6f746520746f6b656e207661756c74604482015260640161038a565b6104628282611015565b6001546001600160a01b03163314610a575760405162461bcd60e51b815260206004820181905260248201527f4f776e61626c653a2063616c6c6572206973206e6f7420746865206f776e6572604482015260640161038a565b828114610a985760405162461bcd60e51b815260206004820152600f60248201526e0d8cadccee8d040dad2e6dac2e8c6d608b1b604482015260640161038a565b60005b8381101561093557828282818110610ab557610ab56114b4565b9050602002013560066000878785818110610ad257610ad26114b4565b9050602002016020810190610ae79190611320565b6001600160a01b031681526020810191909152604001600020557f3796cd0b17a8734f8da819920625598e9a18be490f686725282e5383f1d06683858583818110610b3457610b346114b4565b9050602002016020810190610b499190611320565b848484818110610b5b57610b5b6114b4565b604080516001600160a01b0390951685526020918202939093013590840152500160405180910390a180610b8e816114e0565b915050610a9b565b6001546001600160a01b03163314610bf05760405162461bcd60e51b815260206004820181905260248201527f4f776e61626c653a2063616c6c6572206973206e6f7420746865206f776e6572604482015260640161038a565b6001600160a01b038116610c6c5760405162461bcd60e51b815260206004820152602660248201527f4f776e61626c653a206e6577206f776e657220697320746865207a65726f206160448201527f6464726573730000000000000000000000000000000000000000000000000000606482015260840161038a565b610c7581610c78565b50565b600180546001600160a01b038381166001600160a01b0319831681179093556040519116919082907f8be0079c531659141344cd1fd0a4f28419497f9722a3daafe3b4186f6b6457e090600090a35050565b6001600160a01b0385166000908152600660205260408120548511610d315760405162461bcd60e51b815260206004820152601060248201527f616d6f756e7420746f6f20736d616c6c00000000000000000000000000000000604482015260640161038a565b6001600160a01b038087166000908152600560205260409020541680610d995760405162461bcd60e51b815260206004820152600e60248201527f6e6f207661756c7420746f6b656e000000000000000000000000000000000000604482015260640161038a565b6001600160a01b03871660009081526003602052604081208054889290610dc19084906114f9565b90915550506040516bffffffffffffffffffffffff1933606090811b8216602084015289811b82166034840152604883018990527fffffffffffffffff00000000000000000000000000000000000000000000000060c089811b8216606886015288831b8416607086015287811b8216608486015246901b16608c84015230901b16609482015260009060a80160408051601f1981840301815291815281516020928301206000818152600290935291205490915060ff1615610eb65760405162461bcd60e51b815260206004820152600d60248201526c7265636f72642065786973747360981b604482015260640161038a565b6000818152600260209081526040808320805460ff1916600117905580516001600160a01b03868116938201939093529081018a9052908716606082015233608082015260a0810183905260c00160408051601f1981840301815290829052600080546007546301f5705760e51b855292945090926001600160a01b0391821692633eae0ae092610f53929116908690620f424090600401611512565b6020604051808303816000875af1158015610f72573d6000803e3d6000fd5b505050506040513d601f19601f82011682018060405250810190610f969190611578565b604080518581523360208201526001600160a01b038d811682840152606082018d90528a16608082015267ffffffffffffffff891660a082015260c0810183905290519192507f1b4b8f452b18b4a267e27ea158479a8124cef2cd93a0d59309667a8e933ab285919081900360e00190a1509098975050505050505050565b60008080808061102786880188611591565b6001600160a01b03808616600090815260046020526040902054959a5093985091965094509250168061109c5760405162461bcd60e51b815260206004820152600c60248201527f6e6f2070656720746f6b656e0000000000000000000000000000000000000000604482015260640161038a565b6040516bffffffffffffffffffffffff19606083811b821660208401526034830188905286811b8216605484015285811b82166068840152607c830185905230901b16609c82015260009060b00160408051601f1981840301815291815281516020928301206000818152600290935291205490915060ff16156111525760405162461bcd60e51b815260206004820152600d60248201526c7265636f72642065786973747360981b604482015260640161038a565b60008181526002602052604090819020805460ff19166001179055516340c10f1960e01b81526001600160a01b038681166004830152602482018890528316906340c10f1990604401600060405180830381600087803b1580156111b557600080fd5b505af11580156111c9573d6000803e3d6000fd5b505050506001600160a01b038216600090815260036020526040812080548892906111f59084906115ec565b9091555050604080518281526001600160a01b038781166020830152848116828401526060820189905260808201869052861660a082015290517f317276091e0f98226fe28cd525f29e0b1c7b3edd91bf9f85e5f0aba596074ac99181900360c00190a1505050505050505050565b60006020828403121561127657600080fd5b5035919050565b60008083601f84011261128f57600080fd5b50813567ffffffffffffffff8111156112a757600080fd5b6020830191508360208260051b85010111156112c257600080fd5b9250929050565b600080602083850312156112dc57600080fd5b823567ffffffffffffffff8111156112f357600080fd5b6112ff8582860161127d565b90969095509350505050565b6001600160a01b0381168114610c7557600080fd5b60006020828403121561133257600080fd5b813561133d8161130b565b9392505050565b803567ffffffffffffffff8116811461135c57600080fd5b919050565b600080600080600060a0868803121561137957600080fd5b85356113848161130b565b94506020860135935061139960408701611344565b925060608601356113a98161130b565b91506113b760808701611344565b90509295509295909350565b600080600080604085870312156113d957600080fd5b843567ffffffffffffffff808211156113f157600080fd5b6113fd8883890161127d565b9096509450602087013591508082111561141657600080fd5b506114238782880161127d565b95989497509550505050565b60008060006040848603121561144457600080fd5b833561144f8161130b565b9250602084013567ffffffffffffffff8082111561146c57600080fd5b818601915086601f83011261148057600080fd5b81358181111561148f57600080fd5b8760208285010111156114a157600080fd5b6020830194508093505050509250925092565b634e487b7160e01b600052603260045260246000fd5b634e487b7160e01b600052601160045260246000fd5b6000600182016114f2576114f26114ca565b5060010190565b8181038181111561150c5761150c6114ca565b92915050565b6001600160a01b038416815260006020606081840152845180606085015260005b8181101561154f57868101830151858201608001528201611533565b506000608082860101526080601f19601f83011685010192505050826040830152949350505050565b60006020828403121561158a57600080fd5b5051919050565b600080600080600060a086880312156115a957600080fd5b85356115b48161130b565b94506020860135935060408601356115cb8161130b565b925060608601356115db8161130b565b949793965091946080013592915050565b8082018082111561150c5761150c6114ca56fea2646970667358221220b1abe6cc6ef14a33c3463ea8f50140182fb4cb87713d7889f9d3993149bfbd4b64736f6c63430008120033",
  "devdoc": {
    "kind": "dev",
    "methods": {
      "owner()": {
        "details": "Returns the address of the current owner."
      },
      "renounceOwnership()": {
        "details": "Leaves the contract without owner. It will not be possible to call `onlyOwner` functions anymore. Can only be called by the current owner. NOTE: Renouncing ownership will leave the contract without an owner, thereby removing any functionality that is only available to the owner."
      },
      "transferOwnership(address)": {
        "details": "Transfers ownership of the contract to a new account (`newOwner`). Can only be called by the current owner."
      }
    },
    "version": 1
  },
  "userdoc": {
    "kind": "user",
    "methods": {},
    "version": 1
  },
  "storageLayout": {
    "storage": [
      {
        "astId": 2494,
        "contract": "contracts/token-bridge/PegBridge.sol:PegBridge",
        "label": "messageBridge",
        "offset": 0,
        "slot": "0",
        "type": "t_address"
      },
      {
        "astId": 7,
        "contract": "contracts/token-bridge/PegBridge.sol:PegBridge",
        "label": "_owner",
        "offset": 0,
        "slot": "1",
        "type": "t_address"
      },
      {
        "astId": 2542,
        "contract": "contracts/token-bridge/PegBridge.sol:PegBridge",
        "label": "records",
        "offset": 0,
        "slot": "2",
        "type": "t_mapping(t_bytes32,t_bool)"
      },
      {
        "astId": 2546,
        "contract": "contracts/token-bridge/PegBridge.sol:PegBridge",
        "label": "supplies",
        "offset": 0,
        "slot": "3",
        "type": "t_mapping(t_address,t_uint256)"
      },
      {
        "astId": 2550,
        "contract": "contracts/token-bridge/PegBridge.sol:PegBridge",
        "label": "vaultToPegTokens",
        "offset": 0,
        "slot": "4",
        "type": "t_mapping(t_address,t_address)"
      },
      {
        "astId": 2554,
        "contract": "contracts/token-bridge/PegBridge.sol:PegBridge",
        "label": "pegToVaultTokens",
        "offset": 0,
        "slot": "5",
        "type": "t_mapping(t_address,t_address)"
      },
      {
        "astId": 2558,
        "contract": "contracts/token-bridge/PegBridge.sol:PegBridge",
        "label": "minBurn",
        "offset": 0,
        "slot": "6",
        "type": "t_mapping(t_address,t_uint256)"
      },
      {
        "astId": 2560,
        "contract": "contracts/token-bridge/PegBridge.sol:PegBridge",
        "label": "remoteTokenVault",
        "offset": 0,
        "slot": "7",
        "type": "t_address"
      }
    ],
    "types": {
      "t_address": {
        "encoding": "inplace",
        "label": "address",
        "numberOfBytes": "20"
      },
      "t_bool": {
        "encoding": "inplace",
        "label": "bool",
        "numberOfBytes": "1"
      },
      "t_bytes32": {
        "encoding": "inplace",
        "label": "bytes32",
        "numberOfBytes": "32"
      },
      "t_mapping(t_address,t_address)": {
        "encoding": "mapping",
        "key": "t_address",
        "label": "mapping(address => address)",
        "numberOfBytes": "32",
        "value": "t_address"
      },
      "t_mapping(t_address,t_uint256)": {
        "encoding": "mapping",
        "key": "t_address",
        "label": "mapping(address => uint256)",
        "numberOfBytes": "32",
        "value": "t_uint256"
      },
      "t_mapping(t_bytes32,t_bool)": {
        "encoding": "mapping",
        "key": "t_bytes32",
        "label": "mapping(bytes32 => bool)",
        "numberOfBytes": "32",
        "value": "t_bool"
      },
      "t_uint256": {
        "encoding": "inplace",
        "label": "uint256",
        "numberOfBytes": "32"
      }
    }
  }
}