{
  "address": "0x51C5efa1092dF7d086aFa02A2116d00749c8a177",
  "abi": [
    {
      "inputs": [
        {
          "internalType": "address",
          "name": "_messageBridge",
          "type": "address"
        }
      ],
      "stateMutability": "nonpayable",
      "type": "constructor"
    },
    {
      "anonymous": false,
      "inputs": [
        {
          "indexed": false,
          "internalType": "bytes32",
          "name": "depositId",
          "type": "bytes32"
        },
        {
          "indexed": false,
          "internalType": "address",
          "name": "depositor",
          "type": "address"
        },
        {
          "indexed": false,
          "internalType": "address",
          "name": "token",
          "type": "address"
        },
        {
          "indexed": false,
          "internalType": "uint256",
          "name": "amount",
          "type": "uint256"
        },
        {
          "indexed": false,
          "internalType": "address",
          "name": "mintAccount",
          "type": "address"
        },
        {
          "indexed": false,
          "internalType": "uint64",
          "name": "nonce",
          "type": "uint64"
        },
        {
          "indexed": false,
          "internalType": "bytes32",
          "name": "messageId",
          "type": "bytes32"
        }
      ],
      "name": "Deposited",
      "type": "event"
    },
    {
      "anonymous": false,
      "inputs": [
        {
          "indexed": false,
          "internalType": "address",
          "name": "token",
          "type": "address"
        },
        {
          "indexed": false,
          "internalType": "uint256",
          "name": "amount",
          "type": "uint256"
        }
      ],
      "name": "MinDepositUpdated",
      "type": "event"
    },
    {
      "anonymous": false,
      "inputs": [
        {
          "indexed": true,
          "internalType": "address",
          "name": "previousOwner",
          "type": "address"
        },
        {
          "indexed": true,
          "internalType": "address",
          "name": "newOwner",
          "type": "address"
        }
      ],
      "name": "OwnershipTransferred",
      "type": "event"
    },
    {
      "anonymous": false,
      "inputs": [
        {
          "indexed": false,
          "internalType": "bytes32",
          "name": "withdrawId",
          "type": "bytes32"
        },
        {
          "indexed": false,
          "internalType": "address",
          "name": "receiver",
          "type": "address"
        },
        {
          "indexed": false,
          "internalType": "address",
          "name": "token",
          "type": "address"
        },
        {
          "indexed": false,
          "internalType": "uint256",
          "name": "amount",
          "type": "uint256"
        },
        {
          "indexed": false,
          "internalType": "bytes32",
          "name": "refId",
          "type": "bytes32"
        },
        {
          "indexed": false,
          "internalType": "address",
          "name": "burnAccount",
          "type": "address"
        }
      ],
      "name": "Withdrawn",
      "type": "event"
    },
    {
      "inputs": [
        {
          "internalType": "address",
          "name": "_token",
          "type": "address"
        },
        {
          "internalType": "uint256",
          "name": "_amount",
          "type": "uint256"
        },
        {
          "internalType": "address",
          "name": "_mintAccount",
          "type": "address"
        },
        {
          "internalType": "uint64",
          "name": "_nonce",
          "type": "uint64"
        }
      ],
      "name": "deposit",
      "outputs": [
        {
          "internalType": "bytes32",
          "name": "",
          "type": "bytes32"
        }
      ],
      "stateMutability": "nonpayable",
      "type": "function"
    },
    {
      "inputs": [],
      "name": "messageBridge",
      "outputs": [
        {
          "internalType": "address",
          "name": "",
          "type": "address"
        }
      ],
      "stateMutability": "view",
      "type": "function"
    },
    {
      "inputs": [
        {
          "internalType": "address",
          "name": "",
          "type": "address"
        }
      ],
      "name": "minDeposit",
      "outputs": [
        {
          "internalType": "uint256",
          "name": "",
          "type": "uint256"
        }
      ],
      "stateMutability": "view",
      "type": "function"
    },
    {
      "inputs": [],
      "name": "owner",
      "outputs": [
        {
          "internalType": "address",
          "name": "",
          "type": "address"
        }
      ],
      "stateMutability": "view",
      "type": "function"
    },
    {
      "inputs": [
        {
          "internalType": "address",
          "name": "_sender",
          "type": "address"
        },
        {
          "internalType": "bytes",
          "name": "_message",
          "type": "bytes"
        }
      ],
      "name": "receiveMessage",
      "outputs": [],
      "stateMutability": "nonpayable",
      "type": "function"
    },
    {
      "inputs": [
        {
          "internalType": "bytes32",
          "name": "",
          "type": "bytes32"
        }
      ],
      "name": "records",
      "outputs": [
        {
          "internalType": "bool",
          "name": "",
          "type": "bool"
        }
      ],
      "stateMutability": "view",
      "type": "function"
    },
    {
      "inputs": [],
      "name": "remotePegBridge",
      "outputs": [
        {
          "internalType": "address",
          "name": "",
          "type": "address"
        }
      ],
      "stateMutability": "view",
      "type": "function"
    },
    {
      "inputs": [],
      "name": "renounceOwnership",
      "outputs": [],
      "stateMutability": "nonpayable",
      "type": "function"
    },
    {
      "inputs": [
        {
          "internalType": "address",
          "name": "_messageBridge",
          "type": "address"
        }
      ],
      "name": "setMessageBridge",
      "outputs": [],
      "stateMutability": "nonpayable",
      "type": "function"
    },
    {
      "inputs": [
        {
          "internalType": "address[]",
          "name": "_tokens",
          "type": "address[]"
        },
        {
          "internalType": "uint256[]",
          "name": "_amounts",
          "type": "uint256[]"
        }
      ],
      "name": "setMinDeposit",
      "outputs": [],
      "stateMutability": "nonpayable",
      "type": "function"
    },
    {
      "inputs": [
        {
          "internalType": "address",
          "name": "_remotePegBridge",
          "type": "address"
        }
      ],
      "name": "setRemotePegBridge",
      "outputs": [],
      "stateMutability": "nonpayable",
      "type": "function"
    },
    {
      "inputs": [
        {
          "internalType": "address",
          "name": "newOwner",
          "type": "address"
        }
      ],
      "name": "transferOwnership",
      "outputs": [],
      "stateMutability": "nonpayable",
      "type": "function"
    }
  ],
  "transactionHash": "0x9aa3896ef17365e4e6aeb5efc474ae741ca73c2ee197c49ce91526576e351bec",
  "args": [
    "0x5d748Cb4767D44842626122ED399177207ffD458"
  ],
  "numDeployments": 4,
  "solcInputHash": "ed97ce3b095369a6c844b227ea03481b",
  "bytecode": "0x608060405234801561001057600080fd5b5060405161130738038061130783398101604081905261002f916100af565b6100383361005d565b600080546001600160a01b0319166001600160a01b03929092169190911790556100df565b600180546001600160a01b038381166001600160a01b0319831681179093556040519116919082907f8be0079c531659141344cd1fd0a4f28419497f9722a3daafe3b4186f6b6457e090600090a35050565b6000602082840312156100c157600080fd5b81516001600160a01b03811681146100d857600080fd5b9392505050565b611219806100ee6000396000f3fe608060405234801561001057600080fd5b50600436106100d45760003560e01c8063715018a611610081578063bca8db711161005b578063bca8db71146101fb578063ca0d4d8c1461020e578063f2fde38b1461022157600080fd5b8063715018a6146101cf5780637c0905a9146101d75780638da5cb5b146101ea57600080fd5b80633c29f839116100b25780633c29f8391461017b57806352661863146101a95780635ec2fa26146101bc57600080fd5b806301e64725146100d95780632be16dce1461011157806333a42db114610150575b600080fd5b6100fc6100e7366004610e77565b60026020526000908152604090205460ff1681565b60405190151581526020015b60405180910390f35b61014e61011f366004610ea5565b6000805473ffffffffffffffffffffffffffffffffffffffff19166001600160a01b0392909216919091179055565b005b600054610163906001600160a01b031681565b6040516001600160a01b039091168152602001610108565b61019b610189366004610ea5565b60046020526000908152604090205481565b604051908152602001610108565b600354610163906001600160a01b031681565b61014e6101ca366004610f0e565b610234565b61014e6103e7565b61014e6101e5366004610ea5565b61044d565b6001546001600160a01b0316610163565b61014e610209366004610f7a565b6104d6565b61019b61021c366004610fff565b61059c565b61014e61022f366004610ea5565b61063e565b6001546001600160a01b031633146102935760405162461bcd60e51b815260206004820181905260248201527f4f776e61626c653a2063616c6c6572206973206e6f7420746865206f776e657260448201526064015b60405180910390fd5b8281146102e25760405162461bcd60e51b815260206004820152600f60248201527f6c656e677468206d69736d617463680000000000000000000000000000000000604482015260640161028a565b60005b838110156103e0578282828181106102ff576102ff61105f565b905060200201356004600087878581811061031c5761031c61105f565b90506020020160208101906103319190610ea5565b6001600160a01b031681526020810191909152604001600020557f0f48d517989455cd80ed52427e80553e66f9b69fd5cee8e26bd1a1f9c364fba685858381811061037e5761037e61105f565b90506020020160208101906103939190610ea5565b8484848181106103a5576103a561105f565b604080516001600160a01b0390951685526020918202939093013590840152500160405180910390a1806103d881611075565b9150506102e5565b5050505050565b6001546001600160a01b031633146104415760405162461bcd60e51b815260206004820181905260248201527f4f776e61626c653a2063616c6c6572206973206e6f7420746865206f776e6572604482015260640161028a565b61044b6000610720565b565b6001546001600160a01b031633146104a75760405162461bcd60e51b815260206004820181905260248201527f4f776e61626c653a2063616c6c6572206973206e6f7420746865206f776e6572604482015260640161028a565b6003805473ffffffffffffffffffffffffffffffffffffffff19166001600160a01b0392909216919091179055565b6000546001600160a01b031633146105305760405162461bcd60e51b815260206004820152601c60248201527f63616c6c6572206973206e6f74206d6573736167652062726964676500000000604482015260640161028a565b6003546001600160a01b0384811691161461058d5760405162461bcd60e51b815260206004820152601f60248201527f73656e646572206973206e6f742072656d6f7465207065672062726964676500604482015260640161028a565b610597828261077f565b505050565b60008060006105ad878787876108ea565b90925090506105c76001600160a01b038816333089610b2a565b604080518381523360208201526001600160a01b0389811682840152606082018990528716608082015267ffffffffffffffff861660a082015260c0810183905290517f3151eb0c52871b9cf9243864e37490145ad0396a42ce45349fdfd20b16a2487f9181900360e00190a15095945050505050565b6001546001600160a01b031633146106985760405162461bcd60e51b815260206004820181905260248201527f4f776e61626c653a2063616c6c6572206973206e6f7420746865206f776e6572604482015260640161028a565b6001600160a01b0381166107145760405162461bcd60e51b815260206004820152602660248201527f4f776e61626c653a206e6577206f776e657220697320746865207a65726f206160448201527f6464726573730000000000000000000000000000000000000000000000000000606482015260840161028a565b61071d81610720565b50565b600180546001600160a01b0383811673ffffffffffffffffffffffffffffffffffffffff19831681179093556040519116919082907f8be0079c531659141344cd1fd0a4f28419497f9722a3daafe3b4186f6b6457e090600090a35050565b6000808080806107918688018861109c565b6040516bffffffffffffffffffffffff19606085811b8216602084015287811b821660348401526048830187905284811b82166068840152607c830184905230901b16609c8201529499509297509095509350915060009060b00160408051601f1981840301815291815281516020928301206000818152600290935291205490915060ff16156108545760405162461bcd60e51b815260206004820152600d60248201526c7265636f72642065786973747360981b604482015260640161028a565b6000818152600260205260409020805460ff191660011790556108816001600160a01b0387168587610bc8565b604080518281526001600160a01b038681166020830152888116828401526060820188905260808201859052851660a082015290517fc20f8288cc0b746ccfa1837a99fcdc5225b43ab191419bf6b43fe3802c4829569181900360c00190a15050505050505050565b6001600160a01b038416600090815260046020526040812054819085116109535760405162461bcd60e51b815260206004820152601060248201527f616d6f756e7420746f6f20736d616c6c00000000000000000000000000000000604482015260640161028a565b6040516bffffffffffffffffffffffff1933606090811b8216602084015288811b821660348401526048830188905286811b821660688401527fffffffffffffffff00000000000000000000000000000000000000000000000060c087811b8216607c86015246901b16608484015230901b16608c82015260009060a00160408051601f1981840301815291815281516020928301206000818152600290935291205490915060ff1615610a395760405162461bcd60e51b815260206004820152600d60248201526c7265636f72642065786973747360981b604482015260640161028a565b604080516001600160a01b03808a166020830152918101889052908616606082015233608082015260a0810182905260009060c00160408051601f1981840301815290829052600080546003546301f5705760e51b855292945090926001600160a01b0391821692633eae0ae092610abd929116908690620f424090600401611147565b6020604051808303816000875af1158015610adc573d6000803e3d6000fd5b505050506040513d601f19601f82011682018060405250810190610b009190611179565b6000848152600260205260409020805460ff19166001179055929450919250505094509492505050565b6040516001600160a01b0380851660248301528316604482015260648101829052610bc29085906323b872dd60e01b906084015b60408051601f198184030181529190526020810180517bffffffffffffffffffffffffffffffffffffffffffffffffffffffff167fffffffff0000000000000000000000000000000000000000000000000000000090931692909217909152610bf8565b50505050565b6040516001600160a01b03831660248201526044810182905261059790849063a9059cbb60e01b90606401610b5e565b6000610c4d826040518060400160405280602081526020017f5361666545524332303a206c6f772d6c6576656c2063616c6c206661696c6564815250856001600160a01b0316610cdd9092919063ffffffff16565b8051909150156105975780806020019051810190610c6b9190611192565b6105975760405162461bcd60e51b815260206004820152602a60248201527f5361666545524332303a204552433230206f7065726174696f6e20646964206e60448201527f6f74207375636365656400000000000000000000000000000000000000000000606482015260840161028a565b6060610cec8484600085610cf6565b90505b9392505050565b606082471015610d6e5760405162461bcd60e51b815260206004820152602660248201527f416464726573733a20696e73756666696369656e742062616c616e636520666f60448201527f722063616c6c0000000000000000000000000000000000000000000000000000606482015260840161028a565b6001600160a01b0385163b610dc55760405162461bcd60e51b815260206004820152601d60248201527f416464726573733a2063616c6c20746f206e6f6e2d636f6e7472616374000000604482015260640161028a565b600080866001600160a01b03168587604051610de191906111b4565b60006040518083038185875af1925050503d8060008114610e1e576040519150601f19603f3d011682016040523d82523d6000602084013e610e23565b606091505b5091509150610e33828286610e3e565b979650505050505050565b60608315610e4d575081610cef565b825115610e5d5782518084602001fd5b8160405162461bcd60e51b815260040161028a91906111d0565b600060208284031215610e8957600080fd5b5035919050565b6001600160a01b038116811461071d57600080fd5b600060208284031215610eb757600080fd5b8135610cef81610e90565b60008083601f840112610ed457600080fd5b50813567ffffffffffffffff811115610eec57600080fd5b6020830191508360208260051b8501011115610f0757600080fd5b9250929050565b60008060008060408587031215610f2457600080fd5b843567ffffffffffffffff80821115610f3c57600080fd5b610f4888838901610ec2565b90965094506020870135915080821115610f6157600080fd5b50610f6e87828801610ec2565b95989497509550505050565b600080600060408486031215610f8f57600080fd5b8335610f9a81610e90565b9250602084013567ffffffffffffffff80821115610fb757600080fd5b818601915086601f830112610fcb57600080fd5b813581811115610fda57600080fd5b876020828501011115610fec57600080fd5b6020830194508093505050509250925092565b6000806000806080858703121561101557600080fd5b843561102081610e90565b935060208501359250604085013561103781610e90565b9150606085013567ffffffffffffffff8116811461105457600080fd5b939692955090935050565b634e487b7160e01b600052603260045260246000fd5b60006001820161109557634e487b7160e01b600052601160045260246000fd5b5060010190565b600080600080600060a086880312156110b457600080fd5b85356110bf81610e90565b94506020860135935060408601356110d681610e90565b925060608601356110e681610e90565b949793965091946080013592915050565b60005b838110156111125781810151838201526020016110fa565b50506000910152565b600081518084526111338160208601602086016110f7565b601f01601f19169290920160200192915050565b6001600160a01b0384168152606060208201526000611169606083018561111b565b9050826040830152949350505050565b60006020828403121561118b57600080fd5b5051919050565b6000602082840312156111a457600080fd5b81518015158114610cef57600080fd5b600082516111c68184602087016110f7565b9190910192915050565b602081526000610cef602083018461111b56fea2646970667358221220ad483c6c3ff5235cc68d9b058f0e9a7b2c6f5051dd98fbbaa32955532735737b64736f6c63430008120033",
  "devdoc": {
    "kind": "dev",
    "methods": {
      "owner()": {
        "details": "Returns the address of the current owner."
      },
      "renounceOwnership()": {
        "details": "Leaves the contract without owner. It will not be possible to call `onlyOwner` functions anymore. Can only be called by the current owner. NOTE: Renouncing ownership will leave the contract without an owner, thereby removing any functionality that is only available to the owner."
      },
      "transferOwnership(address)": {
        "details": "Transfers ownership of the contract to a new account (`newOwner`). Can only be called by the current owner."
      }
    },
    "version": 1
  },
  "userdoc": {
    "kind": "user",
    "methods": {},
    "version": 1
  },
  "storageLayout": {
    "storage": [
      {
        "astId": 2494,
        "contract": "contracts/token-bridge/TokenVault.sol:TokenVault",
        "label": "messageBridge",
        "offset": 0,
        "slot": "0",
        "type": "t_address"
      },
      {
        "astId": 7,
        "contract": "contracts/token-bridge/TokenVault.sol:TokenVault",
        "label": "_owner",
        "offset": 0,
        "slot": "1",
        "type": "t_address"
      },
      {
        "astId": 3151,
        "contract": "contracts/token-bridge/TokenVault.sol:TokenVault",
        "label": "records",
        "offset": 0,
        "slot": "2",
        "type": "t_mapping(t_bytes32,t_bool)"
      },
      {
        "astId": 3153,
        "contract": "contracts/token-bridge/TokenVault.sol:TokenVault",
        "label": "remotePegBridge",
        "offset": 0,
        "slot": "3",
        "type": "t_address"
      },
      {
        "astId": 3157,
        "contract": "contracts/token-bridge/TokenVault.sol:TokenVault",
        "label": "minDeposit",
        "offset": 0,
        "slot": "4",
        "type": "t_mapping(t_address,t_uint256)"
      }
    ],
    "types": {
      "t_address": {
        "encoding": "inplace",
        "label": "address",
        "numberOfBytes": "20"
      },
      "t_bool": {
        "encoding": "inplace",
        "label": "bool",
        "numberOfBytes": "1"
      },
      "t_bytes32": {
        "encoding": "inplace",
        "label": "bytes32",
        "numberOfBytes": "32"
      },
      "t_mapping(t_address,t_uint256)": {
        "encoding": "mapping",
        "key": "t_address",
        "label": "mapping(address => uint256)",
        "numberOfBytes": "32",
        "value": "t_uint256"
      },
      "t_mapping(t_bytes32,t_bool)": {
        "encoding": "mapping",
        "key": "t_bytes32",
        "label": "mapping(bytes32 => bool)",
        "numberOfBytes": "32",
        "value": "t_bool"
      },
      "t_uint256": {
        "encoding": "inplace",
        "label": "uint256",
        "numberOfBytes": "32"
      }
    }
  }
}